:020000040800F2
:10000000007500205D020008130E0008B90D0008FD
:10001000110E00082F09000811120008000000004E
:100020000000000000000000000000009D0100082A
:10003000310C000800000000F9010008051000085C
:1000400077020008770200087702000877020008AC
:10005000770200087702000877020008770200089C
:10006000770200087702000877020008770200088C
:1000700077020008770200083109000877020008BB
:10008000770200087702000877020008770200086C
:10009000770200087702000877020008770200085C
:1000A000770200087702000877020008770200084C
:1000B000770200087702000877020008770200083C
:1000C000770200087702000877020008770200082C
:1000D0007702000877020008770200088D100008F8
:1000E000770200087702000877020008770200080C
:1000F00077020008770200087702000877020008FC
:1001000077020008770200087702000877020008EB
:1001100077020008770200087702000877020008DB
:1001200077020008770200087702000877020008CB
:1001300077020008770200087702000877020008BB
:1001400077020008770200087702000877020008AB
:10015000770200087702000877020008770200089B
:10016000770200087702000877020008770200088B
:10017000770200087702000877020008770200087B
:100180007702000877020008DFF80CD000F09CFA34
:10019000004800478D210008007500202C4B19688D
:1001A0000868B0E8F04F80F30988BFF36F8F4FF015
:1001B000000080F3118870470000000008480068C4
:1001C000006880F308884FF0000080F3148862B65E
:1001D00061B6BFF34F8FBFF36F8F00DF00BF00BF6B
:1001E00008ED00E0DFF80C00016841F470010160E7
:1001F000704700BF88ED00E0EFF30980BFF36F8F19
:10020000134B1A681EF0100F08BF20ED108A20E96A
:10021000F04F106009B44FF0500080F31188BFF325
:100220004F8FBFF36F8F02F079FE4FF0000080F325
:10023000118809BC19680868B0E8F04F1EF0100F6B
:1002400008BFB0EC108A80F30988BFF36F8F704746
:100250005C000020EFF305807047000006488047EF
:1002600006480047FEE7FEE7FEE7FEE7FEE7FEE79B
:10027000FEE7FEE7FEE7FEE731100008890100080F
:1002800040EA01039B0703D009E008C9121F08C018
:10029000042AFAD203E011F8013B00F8013B521E98
:1002A000F9D27047D2B201E000F8012B491EFBD20F
:1002B00070470022F6E710B513460A460446194671
:1002C000FFF7F0FF204610BD30B50B460146002079
:1002D0002022012409E021FA02F59D4205D303FA08
:1002E00002F5491B04FA02F52844151EA2F1010289
:1002F000F1DC30BD2DE9F05F0546002092469B46BB
:1003000088460646814640241BE02846414647462B
:10031000224600F0FAF953465A46C01A914110D3CA
:1003200011461846224600F0E1F92D1A67EB010844
:100330004F4622460120002100F0D8F917EB0009B2
:100340004E41201EA4F10104DFDC484631462A4616
:100350004346BDE8F09F2DE9FE4F804681EA030049
:10036000C00F0C46009021F0004123F00045B8EB8F
:100370000200A94105D24046214690461C460B4644
:10038000024623F00040104347D0270DC7F30A0070
:10039000C3F30A510290401A019040286BDAC3F36C
:1003A000130040F4801B0098924620B10023D2EB4A
:1003B000030A63EB0B0B01985946C0F1400250460B
:1003C00000F094F906460D4650465946019A00F051
:1003D000ACF910EB08006141002487EA115284EA6D
:1003E000E7731A4340D0009A62B3019A012A4FEA98
:1003F000075215DC001B61EB02014FF0004202EADC
:100400000752CDE90042001C41F5801132462B46CF
:1004100000F0ACF903B0BDE8F08F40462146F9E7A3
:10042000001B61EB0201001C41F5801300185B41C9
:100430002018A2F5001747EB030140EAD570B61962
:100440006D4111E06D084FEA360645EAC0754FEA86
:100450000752001B61EB0201001C41F580114908A5
:100460004FEA30000019514132462B4603B0BDE837
:10047000F04F00F06CB90098012240000023D0EB4F
:10048000020263EBE073009821464FEAE074B8EB98
:10049000000061EB0401E9E783F000435BE781F0D2
:1004A000004158E72DE9FE4F81EA030404F00044BF
:1004B00021F0004100944FF0000B23F0004350EA7C
:1004C00001045ED052EA03045BD0C3F30A54C1F3C3
:1004D0000A552C44A4F2F3340194A0FB0254C1F356
:1004E000130141F48011C3F3130343F4801301FBA0
:1004F000024400FB034E840A970A44EA815447EA07
:100500008357A4FB076802958D0A05FB07854FEA10
:10051000932C04FB0C542705029D4FEA065847EA2A
:100520001637B5EB08056EEB070C870E920E47EAFF
:10053000811742EA8312A7FB0201B6EB0B0164EBC1
:1005400000042B0D43EA0C335E1844EB1C50DA46D2
:100550005146E7FB0201C5F313044FEA0B3343EAAC
:1005600014534FEA0432019C43EA0603A4F10C043D
:100570000294009CCDE900B400F0F8F803B0BDE8A7
:10058000F08F00200146F9E72DE9F04D81EA0304E0
:1005900004F0004B21F0004514464FF0000A23F010
:1005A000004150EA050220D054EA01021DD0C5F3F3
:1005B0000A570246C5F31303C1F31300C1F30A56E9
:1005C00040F4801543F48013A7EB0608101BD646B1
:1005D00008F2FD3873EB050002D308F1010801E0D1
:1005E00092185B41B8F1000F03DA00200146BDE824
:1005F000F08D00204FF48011064684460EE0171B54
:1006000073EB050705D3121B63EB050306434CEAA6
:10061000010C49084FEA300092185B4150EA01078B
:10062000EDD152EA030012D082EA040083EA050108
:10063000084305D0101BAB4106D20122002306E07F
:1006400000224FF0004302E06FF0010253101AEB5A
:1006500006004CEB085110EB0A0041EB0B01BDE822
:10066000F04D00F074B8C1F30A52C1F3130140F227
:10067000FF3341F480119A4202DA002001467047AC
:1006800040F233439A42A2F2334202DC524200F07B
:100690003CB800F02BB8000030B5041E71F1000426
:1006A00004DB4FF00044404264EB0101141E73F17F
:1006B000000405DB1C464FF00043524263EB040389
:1006C000994208BF904230BD064C074D06E0E068F5
:1006D00040F0010394E8070098471034AC42F6D389
:1006E000FFF756FD543C0008743C0008202A04DB48
:1006F000203A00FA02F1002070479140C2F1200335
:1007000020FA03F3194390407047202A04DB203A73
:1007100021FA02F00021704721FA02F3D040C2F121
:1007200020029140084319467047202A06DBCB1768
:10073000203A41FA02F043EAE07306E041FA02F39C
:10074000D040C2F12002914008431946704710B5CD
:10075000141E73F1000408DA401C41F100019218E4
:100760005B411A4301D120F0010010BD2DE9F04D8D
:1007700092469B4611B1B1FA81F202E0B0FA80F2E2
:1007800020329046FFF7B2FF04460F4640EA0A00C7
:1007900041EA0B0153465A46084313D0114653EA27
:1007A000010019D0C8F140025046FFF7AEFF0546E0
:1007B0000E46504659464246FFF798FF084305D07B
:1007C000012004E020463946BDE8F08D00200543B5
:1007D00046EAE0762C4337430A986305E40AA0EB27
:1007E00008000022FD0A44EA47540A3002D50020DE
:1007F0000146E9E7010510196941DDE908450019DD
:100800006941BDE8F04DA2E7C94301607047002986
:10081000816802D041F0010101E021F00101816015
:1008200070470000084B10B5D3F8042307490A406D
:10083000D0E900142143D0E902400443214311438D
:10084000C3F8041310BD000000200140E030FCFF9D
:100850000029816802D041F4807101E021F48071A7
:100860008160704730B542680F4B0C791A400B68B5
:1008700042EA04221343436082680C4B4D791A40CC
:10088000D1E9034323438C6844EA450423431343DB
:100890008360C26A097D22F47002491EC9B242EA2D
:1008A0000151C16230BD0000FFFEFFFCFDF7FFC03B
:1008B00070B5072409290AD9C568A1F10A0606EB13
:1008C0004606B440A543B3401D43C56007E0056933
:1008D00001EB4106B440A543B3401D4305611F230E
:1008E000072A09D2446B521E02EB820293409C43BA
:1008F00091400C43446370BD0D2A09D2046BD21F92
:1009000002EB820293409C4391400C43046370BD10
:10091000C46A0D3A02EB820293409C4391400C431F
:10092000C46270BD816841F0804181607047FEE71C
:1009300038B50020104D114C00902946204600F09B
:100940000DF968B12946204600F034F80C480068DB
:1009500010B1694602F0D8FC0021204600F040F8B2
:100960000098002807D007494FF080500860BFF377
:100970004F8FBFF36F8F38BD008000185860024062
:100980002400002004ED00E0074A904201D207480D
:1009900001E005481038064A8B0001EA020101D542
:1009A000C16070478160704710640240006002407F
:1009B0007D0F7D0F074A904201D2074801E00548AC
:1009C0001038064A8B0001EA020101D5C160704768
:1009D0008160704710640240006002407D0F7D0F0F
:1009E0000029016802D041F0010101E021F001017C
:1009F000016070472DE9F043016821F001010160B9
:100A00000021016041608160C1600161212141617B
:100A10003C493C4A3D251039904202D18D60BDE8E9
:100A2000F083384A4FF474661832904201D18E60D8
:100A3000F5E7344A4FF474173032904201D18F6099
:100A4000EDE7304A4FF0746C4832904202D1C1F861
:100A500008C0E4E72B4B2C4A6033984201D1CA60AE
:100A6000DDE7284C294B7834A04201D1CB60D6E792
:100A7000DFF89080264C08F19008404501D1CC6009
:100A8000CDE7DFF880804FF03D5908F1A8084045D8
:100A900002D1C1F80C90C2E71E49DFF8788008390E
:100AA000404501D10D60BAE71A4D1835A84201D171
:100AB0000E60B4E7174D3035A84201D10F60AEE7A4
:100AC000144D4835A84202D1C1F800C0A7E7114D26
:100AD00010496035091FA84201D10A609FE70D4AFD
:100AE0007832904201D10B6099E70A4A90329042E5
:100AF00001D10C6093E7074AA83290428FD1C1F828
:100B000000908CE7106002403D000020400F002064
:100B100000003D2010640240014600200968C9071A
:100B200000D00120704700000246094B00209A4285
:100B300001D2084A01E0064A103A8B0001D55268FA
:100B400000E01268044B1A400A4200D001207047AE
:100B500010640240006002407D0F7D0F30B5104AE6
:100B60000024904201D20F4B01E00D4B103B0E4A86
:100B7000114205D01E2202EAD12502682A4002E075
:100B8000406900F08002880001D5586800E01868CC
:100B9000064B1840084201D002B10124204630BD66
:100BA00010640240006002403C0F3C0F7D0F7D0F3F
:100BB0000B0607D5436912B143F0800301E023F02F
:100BC00080034361802908D0002A026801F01E01D9
:100BD00001D00A4300E08A430260704730B50368E1
:100BE000124ACC6813400A682243D1E905452C43D8
:100BF0002243CC6922430C6A22434C6A22438C6A0A
:100C000022434C6B22438C6B22431A43026042699D
:100C100022F00703D1E90B2422431A4342610A69F7
:100C200042604A6882608968C16030BD3F801CF0C4
:100C3000704700001CB500210120CDE900010B46E2
:100C4000820207A1094802F04BFD0949012808600A
:100C500004D0BDE81C4007A001F098B91CBD0000FD
:100C6000446562756750726F63000000652A000872
:100C7000280000204465627567207461736B2063EF
:100C80007265617465204661696C656400000000EE
:100C9000F0B50023012403270D6804FA03F2154080
:100CA000954242D1D0F800C05E0007FA06F52CEA62
:100CB000050CC0F800C091F804C0D0F800E00CFAB0
:100CC00006FC4CEA0E0CC0F800C091F804C0BCF160
:100CD000010F02D0BCF1020F1FD1D0F808C02CEADE
:100CE000050CC0F808C091F805C0D0F808E00CFA6F
:100CF00006FC4CEA0E0CC0F808C0D0F804C02CEA80
:100D0000020CC0F804C0426891F806C00CFA03FC5B
:100D10001FFA8CFC42EA0C024260C268AA43C2601D
:100D2000CA79C568B2402A43C2605B1C102BB3D39A
:100D3000F0BD4B07DB0E9A40C90810B500EB8100EF
:100D4000016A0F249C40A1430162016A11430162C0
:100D500010BD090481617047816170471CB5002195
:100D60000320CDE900010B464FF4806206A109483B
:100D700002F0B6FC08490128086004D0BDE81C4018
:100D800006A001F003B91CBD47617468657250721A
:100D90006F630000712A0008280000204465627516
:100DA00067207461736B20637265617465204661AE
:100DB000696C656400000000FEE700001CB50021BE
:100DC0000220CDE900010B46402207A1084802F0AD
:100DD00087FC08490128086004D0BDE81C4006A033
:100DE00001F0D4B81CBD00004C656450726F630004
:100DF000A12A0008280000204C4544207461736B30
:100E000020637265617465204661696C65640000E9
:100E1000FEE7704730B50F22C47801780123FCB19A
:100E2000144C246801F1E02104F4E064C4F5E064AA
:100E3000C4F30724C4F10405E2404478AC4085784B
:100E4000154025432A0181F80024007800F01F0195
:100E50008B404009800000F1E020C0F8003130BD37
:100E600001F01F0083404809800000F1E020C0F835
:100E7000803130BD0CED00E0044A0029116801D03A
:100E8000014300E0814311607047000030380240A8
:100E9000044A0029116801D0014300E08143116038
:100EA0007047000040380240044A0029116801D010
:100EB000014300E081431160704700004438024064
:100EC00070B5204A1168204C11F00C0104D0661056
:100ED000042903D0082903D004601BE0066019E050
:100EE0001849091F0B68C3F380550B6803F03F03D3
:100EF00015B1B6FBF3F301E0B4FBF3F30C6809683A
:100F0000C4F388146343C1F30141491C4900B3FB96
:100F1000F1F1016011680F2303EA11110B4B5C5CC6
:100F20000168E14041601468072505EA94241C5DCE
:100F300021FA04F48460126805EA52329A5CD140C6
:100F4000C16070BD083802400024F4001400002085
:100F50000CB500202749019000900A6842F48032C5
:100F60000A604FF4A0430A6802F400320092019A2A
:100F7000521C0192009A12B9019A9A42F3D10A685E
:100F8000920334D5012000901A484030026842F0A4
:100F9000805202601848026842F4404202601548DC
:100FA000083002680260026842F40042026002688F
:100FB00042F4A0520260031F104A1A600A6842F00D
:100FC00080720A600A689201FCD50D4A40F20571F0
:100FD0001160016821F003010160016841F0020124
:100FE00001600168C1F381010229FAD10CBD0090B2
:100FF0000CBD00000038024000700040085440075B
:10100000003C024010B5502080F31188BFF34F8F91
:10101000BFF36F8F02F0A6FB18B104494FF0805068
:101020000860002080F3118810BD000004ED00E08E
:10103000124810B5016841F4700101601048016860
:1010400041F0010101600E4A00210832116002687E
:101050000C4B1A400260031D0B4A1A60026822F40E
:101060008022026006480C300160FFF771FF0349DF
:101070004FF000608039086010BD000088ED00E08E
:1010800000380240FFFFF6FE1030002410B5084C77
:1010900040F22551204600F026F8002807D02046CF
:1010A00000F0AEF8BDE81040C0B200F055BF10BD72
:1010B000004800400029818902D041F4005101E03C
:1010C00021F4005181817047002A828A01D00A43AD
:1010D00000E08A43828270470246002012880A425A
:1010E00000D00120704730B501F01F020124002517
:1010F000C1F3421304FA02F2012B0FD0022B0FD0DE
:10110000838A4FEA11210088134204FA01F400EAAD
:10111000040001D000B10125284630BD8389F0E7E5
:10112000038AEEE710B5C1F3421301F01F04012159
:10113000A140012B07D0022B07D01430002A0268EF
:1011400005D00A4304E00C30F8E71030F6E78A4394
:10115000026010BD7FB50446008A0D4620F4405160
:10116000E88808432082A08941F20C618843A9885D
:101170002A8911436A8902431143A181A08A20F47C
:101180004071A8890843A0826846FFF799FE1A4873
:10119000844202D01948844201D1039800E00298A9
:1011A000A189090400EBC00101EB0010296801D5F9
:1011B000490000E08900B0FBF1F26420B2FBF0F1DD
:1011C00009010B096FF018056B4302EB8302A38939
:1011D0001D044FF0320306D503EBC202B2FBF0F060
:1011E00000F0070005E003EB0212B2FBF0F000F0A4
:1011F0000F00084320817FBD001001400014014012
:101200008088C0F308007047C1F3080181807047EF
:10121000FEE700007CB5044600201D461646002966
:101220000BD0491ECDE90041044B6A4629463046A1
:1012300000F0D8F8009A002111707CBD131B000843
:1012400002E008C8121F08C1002AFAD1704770478F
:10125000002001E001C1121F002AFBD170470000ED
:101260002DE9FF5F82B00021DDE90430020DDDF8D9
:1012700040B0034318D044F61050A2F2FF3242436C
:101280001514119801281FD0A5EB0B00401C5FEA34
:10129000000A4FF000064E4FDFF83891B046504636
:1012A00015D5CAF1000413E0119801244AA30128BE
:1012B00001D16FEA0B010298119AC0E90031C0E92F
:1012C000024206B0BDE8F09FCBF10000DFE7044624
:1012D0000021404A491842EB0450CDE9001012E0C9
:1012E000E00707D032463B4640464946FFF7DAF86A
:1012F0008046894632463B4610461946FFF7D2F8EB
:1013000006460F466410002CEAD1DDE90401DDE950
:101310000023BAF1000F06DAFFF7C4F842464B4645
:10132000FFF7C0F805E0FFF72FF942464B46FFF7FD
:101330002BF904460E460022284BFFF7ADF903D8DF
:101340004FF0FF30014607E00022254B2046314692
:10135000FFF701F8FFF787F9102409E0002C0ADBFA
:101360000A220023FEF7C6FF039B30321A55641E83
:1013700050EA0102F2D1641C039AC4F1110314442F
:10138000119A012A03D0012208430DD10AE0084333
:1013900004D000204FF0110B119072E7A3EB0B0566
:1013A0006D1E0DE05B4504DD4FF0000205F1010507
:1013B00004E003DA4FF00002A5F10105002AECD0A9
:1013C00002981199C0E90231C0E9004579E70000AF
:1013D000000014400000F03F300000000000F04327
:1013E0000000E03F2DE9FF4F95B09B468946064639
:1013F00000250FE2252877D100242746F84A01214D
:10140000059400E0044316F8013F203B01FA03F085
:101410001042F7D130782A2811D06FF02F0330789E
:10142000A0F13002092A16D8059A44F0020402EB12
:10143000820203EB42021044761C0590EFE759F854
:10144000042B0592002A03DA504244F4005405901C
:1014500044F00204761C30782E2816D116F8010FBD
:1014600044F004042A280DD06FF02F023078A0F148
:101470003003092B09D807EB870302EB4303C71896
:10148000761CF3E759F8047B761C30786C280FD073
:1014900006DC4C2817D068280DD06A2814D104E047
:1014A000742810D07A280FD10DE044F400140AE01B
:1014B00044F4801401E044F440147278824202D172
:1014C00004F58014761C761C307866280BD013DC6B
:1014D000582877D009DC002875D04528F6D0462852
:1014E000F4D047281AD19DE118E0632835D064284C
:1014F00079D0652812D195E1702873D008DC67286F
:10150000F1D069286FD06E280DD06F2806D1B5E0D4
:1015100073282CD0752875D0782874D05A4617991E
:1015200090476D1C75E1C4F30250022809D00328CE
:101530000DD0D9F8001004280DD00D6009F1040970
:1015400067E1D9F80010EA17C1E90052F6E7D9F8C7
:1015500000100D80F2E70D70F0E719F8041B8DF80C
:10156000001000208DF80100EA46012003E059F840
:1015700004AB4FF0FF3061074FF0000102D40DE0E3
:1015800008F101018846B9420FDA8045F8DB1AF804
:1015900008100029F4D108E008F1010188468142D1
:1015A000FADB1AF808100029F6D105985B46A0EB83
:1015B000080721463846179A00F094FA284400EBB1
:1015C000080507E04DE029E10DE01AF8010B5A4645
:1015D00017999047B8F10108F7D25B462146384683
:1015E000179A13E142E00A220092C4F302524FF02C
:1015F000000A022A08D059F804CB032A4FEAEC71FA
:101600000AD00DE029E02AE009F1070121F00702E4
:10161000F2E802C1914609E00FFA8CFC4FEAEC7146
:10162000042A03D14FFA8CFC4FEAEC71002907DA47
:101630000A460021DCF1000C61EB02012D2202E0E0
:10164000220504D52B228DF80420012203E0E207B5
:1016500001D02022F7E7904659E00A2102E010224B
:101660000DE010214FF0000A00910BE010224FF026
:10167000000A44F004040827009203E008224FF017
:10168000000A0092C4F30252022A05D059F804CB92
:101690000021032A08D009E009F1070121F007021F
:1016A000F2E802C1914605E01FFA8CFC042A01D140
:1016B0000CF0FF0C4FF00008220728D5702806D048
:1016C000009B83F0100353EA0A0305D00EE040228A
:1016D0008DF80420012208E05CEA010206D03022E5
:1016E0008DF804208DF8050002229046009B83F0BF
:1016F000080353EA0A030AD15CEA010201D1620736
:1017000005D530228DF804204FF001087F1E58289F
:1017100004D034A003900EA802900DE036A0F9E7A3
:1017200053466046009AFEF7E5FD84460398825CC6
:101730000298401E029002705CEA0100F0D102980B
:1017400006A9081A00F1200A600702D524F48034A3
:1017500000E00127574502DDA7EB0A0000E000206A
:1017600000EB0A01009005984144401A0590E003FF
:1017700006D45B462146179A059800F0B3F9054454
:10178000002706E001A85A46C05D179990476D1CD6
:101790007F1C4745F6DBE0030CD55B462146179AD4
:1017A000059800F09FF9054404E030205A46179947
:1017B00090476D1C0099481E00900029F5DC08E058
:1017C000029802995A460078491C0291179990474D
:1017D0006D1CBAF10001AAF1010AF1DC65E100001B
:1017E00009280100303132333435363738396162F7
:1017F00063646566000000003031323334353637BB
:1018000038394142434445460000000000F058F991
:101810000544761C307800287FF4ECAD19B02846DA
:10182000BDE8F08F620700D4062709F1070222F015
:10183000070CFCE80223E14603F000485FEA080CCD
:1018400002D00FF2702C0DE05FEA045C02D50FF2BB
:10185000682C07E05FEAC47C02D00FF2602C01E044
:10186000AFF2700C4FF0FF3823F00043CDF850C0BA
:1018700065280CD006DC452809D046281DD047280D
:101880003DD13DE0662818D067287ED138E00021A0
:10189000112F01DB112000E0781CCDE9000106A921
:1018A0000EA8FFF7DDFCDDE90F010E9A0391002180
:1018B000009207F1010A04914DE04FF000400097BB
:1018C000CDE9011006A90EA8FFF7CAFCDDE90F0259
:1018D00003920E9B11990022DDF80CA00093049254
:1018E00011B9791C00EB010AB7EB0A0004D4C0F16E
:1018F000FF3007F1010A0490AAEB0700019044E0D1
:10190000012F00DA01270021112F01DD112000E055
:101910003846CDE9000106A90EA8FFF7A1FCDDE9D4
:101920000F010E9A0391002104910092BA462107FB
:101930000CD40399514500DA8A46BAF1010F05DD4E
:10194000009AAAF10101515C302908D0B84202DAAC
:1019500010F1040F06DA0121CDE9011015E0AAF11A
:101960000101E9E7002805DC049901440491AAEB90
:10197000000102E0411C514500DD8A460499401AED
:10198000401C01904FF000400290200704D40198C1
:10199000504501DBCDF8048000208DF84F000298FF
:1019A0000DF14F07B0F1004F25D02B200E9002987B
:1019B0004FF0020800280CDA404202902D200E90D1
:1019C00007E00A210298FEF77FFC3031029007F809
:1019D000011DB8F10001A8F10108F2DC029800280D
:1019E000EFD1791E0E980870307800F0200040F09A
:1019F000450007F8020D12A8C01B00F10708149853
:101A0000007800B1012000EB0A01019801EBE071C0
:101A100005984144401A401E0590E00306D45B46F9
:101A20002146179A059800F05DF80544149800784F
:101A300018B15A46179990476D1CE00324D55B46B0
:101A40002146179A059800F04DF805441CE00498CB
:101A5000002807DBDDE90301884203DD0098405CD4
:101A6000179901E0179930205A469047049805F1DC
:101A70000105401C04900198401E019004D12E20C5
:101A80005A46179990476D1CBAF10001AAF1010A54
:101A9000DDDC05E017F8010B5A46179990476D1CDD
:101AA000B8F10001A8F10108F4DC5B462146179A61
:101AB0000598ABE62D0000002B0000002000000080
:101AC0002DE9F041044600251E461746880404D43B
:101AD00005E039462020B0476D1C641EF9D5284624
:101AE000BDE8F0812DE9F041044600251E469046F0
:101AF000C80301D5302700E02027880404D505E07D
:101B000041463846B0476D1C641EF9D52846BDE8ED
:101B1000F0814A68002A06D00A68531C0B601070D6
:101B20004868401E486070470E220149FEF7A8BB76
:101B3000B00500202DE9F0439DB001210520FFF7FD
:101B40009BF94FF4807801214046FFF7ADF9012160
:101B50008805FFF791F90F20159003208DF85800A4
:101B600000248DF85B4015A94448FFF791F807253C
:101B700015A943481595FFF78BF8179418941994F5
:101B800017A81A94FEF74EFE01263E4F0F948DF8CB
:101B900040608DF84160119413948DF850500FA956
:101BA0003846FEF75FFE032301220A213846FEF77E
:101BB0007FFE032302220B213846FEF779FE032322
:101BC0001A460C213846FEF773FE03230422002137
:101BD0003846FEF76DFE0323052201213846FEF745
:101BE00067FE0323062202213846FEF761FE032327
:101BF00007220D213846FEF75BFE01213846FEF72D
:101C000027FEDFF884904846FEF7F4FE1D4802A93F
:101C10004C30CDE900401D4881E83100B002CDE9EB
:101C20000540400007908000CDE908080AA900019E
:101C300081E851000D94694648460E94FEF7CEFFA8
:101C400013494846FEF7A0FE01214846FEF7C8FEAC
:101C500001213846FEF7DBFD0E481B941B99491CF9
:101C60001B918142FADB02213846FEF7CDFD384652
:101C7000FEF758FE1DB0BDE8F083000000080240EA
:101C8000000002400020014010640240BE05002018
:101C900020000010FFFF0F007FB5164D164E29469D
:101CA0003046FEF741FF0028F9D0144CE088A389A4
:101CB000628921898DE80F00A3886288218810A09D
:101CC00000F088F9A4F10E0220881080608850800E
:101CD000A0889080E088D080208910816089508120
:101CE000A089908104B029463046BDE87040FEF7D7
:101CF0004BBE00002000001010640240BE05002012
:101D0000444D41204275666665723A2025642C2058
:101D100025642C2025642C2025642C2025642C206F
:101D200025642C2025640D0A000000001CB501214B
:101D30000220FFF7A1F8012103208DF804100022F2
:101D40008DF806208DF8050000908DF80710694683
:101D50000148FEF79DFF1CBD0004024010B50121A3
:101D600090B04805FFF788F84FF0006000902048D9
:101D70000190204802904020039000204FF48061A1
:101D80000490CDE90501079089010890CDE909018A
:101D90000321CDE90B01184C0D900E9069462046A9
:101DA000FEF71CFF1549602008704FF0E0214FF44A
:101DB0008040C1F80001012210212046FEF7F8FE04
:101DC0000F4C206858B903220021012001F064F96A
:101DD000206020B100231A46194601F0E5F90448B5
:101DE00001228021001FFFF76FF910B010BD000025
:101DF00004480040B0010020586002400EE400E0BA
:101E000024000020F0B587B001210220FFF734F84C
:101E100001218804FFF73CF802258DF804504FF4A7
:101E200080608DF805500024284F00908DF8064002
:101E300001268DF8076069463846FEF729FF8DF8C0
:101E40000450A8028DF8055000908DF806408DF8DA
:101E5000076069463846FEF71BFF07220A2138460D
:101E6000FEF767FF07220B213846FEF762FF4FF4AB
:101E7000E1300290ADF810400C20154DADF80C404B
:101E8000ADF81200ADF80E40ADF8144002A9284696
:101E9000FFF760F927208DF8180006208DF819004B
:101EA0008DF81A408DF81B6006A8FEF7B3FF0122DB
:101EB00040F225512846FFF735F9FFF74FFF012182
:101EC0002846FFF7F7F807B0F0BD00000004024015
:101ED0000048004070B50D460646002404E0305D21
:101EE00000F03AF8641CA4B2AC42F8D370BD000014
:101EF00070B505464FF480600C46814200D9044617
:101F00001248006818B14FF0FF3101F0F7FA22468D
:101F100029460F48FEF7B4F90E4D00212846FEF77A
:101F20005FFD2846FEF7F8FD0128FAD00948583829
:101F3000C465074941664FF0C0512846FEF724FDAD
:101F40002846BDE870400121FEF74ABD240000206C
:101F5000B00100205860024070B50A4D06464FF6A9
:101F6000FF7480212846FFF7B7F838B1002C08D05D
:101F700031462846BDE87040FFF746B9641EF0D2EE
:101F8000F6E770BD00480040704700000FB44FF402
:101F9000807110B503AB0E48029AFFF73BF900229F
:101FA000FD2801D9FD2001E000280DDD08490D23A1
:101FB0000B54401C0A230B54401C00280A5403DD18
:101FC00081B20348FFF786FF10BC5DF814FB0000E8
:101FD000B00000200FB44FF4007110B503AB0E48F1
:101FE000029AFFF717F90022B0F5FF7F02D340F203
:101FF000FD1001E0002807DD07490D230B54401CAC
:102000000A230B54401C0A5481B20348FFF770FFA7
:1020100010BC5DF814FB0000CC05002010B500F0EA
:10202000AFF8FFF7B1FF00F02DF8BDE8104001A0B8
:10203000FFF7ACBF666F635F6170705F696E697454
:1020400000000000094910B508684FF6FF02104073
:10205000074A10430860FFF769FEFFF7D3FEFFF75A
:1020600069FDBDE8104003A0FFF790BF0CED00E054
:102070000000FA050A666F635F6273705F696E69DC
:102080007400000005489FED040A80ED000A9FEDF2
:10209000040A80ED010A7047500A253D2C000020FB
:1020A00084A4AE3C10B5FEF789FEFEF7C3FDFEF733
:1020B00055FEBDE8104001A0FFF768BF666F635F83
:1020C0007461736B5F696E697400000030B58CB227
:1020D00000EE104A294C87B0F8EE400A9FED260A20
:1020E0000A9D090C30EEC01AD4ED000A21EE201A28
:1020F0008DED001A01EE101A91B2B8EE411A31EED0
:10210000401A21EE201A8DED011A01EE101A110C61
:102110001C22B8EE411A31EE400A20EE200A8DED65
:10212000020A00EE101A99B2F8EE400A94ED010A84
:1021300060EE800ACDED030A00EE901A190CF8EE5D
:10214000600A60EE800ACDED040A00EE901AA9B292
:10215000F8EE600A60EE800ACDED050A00EE901AF6
:102160006946F8EE600A20EE800A8DED060AFEF759
:1021700087F807B030BD000000F0FF442C000020BD
:1021800003210148FEF7E5BD00040240FFF75AFFB6
:10219000FFF744FFFFF786FF00F080FEFEE7000038
:1021A0002DE9F0411E4C0F460546E6682068001DEB
:1021B00000F016FC38B9206890F82C1001208840F7
:1021C000216981432161681C15D1A7B11549226895
:1021D0004868906023688268DA6022688368121D0C
:1021E0005A602268121D8260206841610868401CA4
:1021F0000860BDE8F08120683544B542456021683B
:1022000005D2E06BBDE8F041091D00F06DBCA06B8C
:10221000091D00F069FCA06A8542EAD2A562E8E7E0
:102220005C000020C07000202DE9F041054600F060
:1022300073FC364CA068401CA0602068344F10B17D
:10224000606940B32DE02560A068012829D10026EF
:1022500006EB860007EB800000F038FC761C052EAC
:10226000F6D32B48643000F031FC2948783000F078
:102270002DFC27488C3000F029FC2548A03000F0C8
:1022800025FC2348B43000F021FC21486430A063D1
:102290001430E06305E02068E96AC06A884200D82B
:1022A0002560606A401C60626864E96A01202269F6
:1022B00088401043206101EB810007EB80004068FB
:1022C000A8608168E9608268291D51608160E86AC0
:1022D00000EB800007EB8001696157F82010491C72
:1022E00047F8201000F038FC606900280CD0206806
:1022F000E96AC06A884207D206494FF080500860F8
:10230000BFF34F8FBFF36F8FBDE8F0815C000020FB
:102310000C70002004ED00E010B500F0FDFB0E4C49
:102320002068A0B90D4800F0D1FB0C48143000F033
:10233000CDFB0A48E0601430206100220C210A2005
:1023400000F0AAFE206010B105A100F087FCBDE8F6
:10235000104000F001BC00009C000020D470002060
:10236000546D72510000000030B4026C0B46002A1C
:102370000BD0C1681144C1608468A14201D30168D7
:10238000C16030BC1846FDF77BBF30BC70472DE9FB
:10239000F041856B174604460026026C82B1C7B136
:1023A000E068FDF76DFFE168206C091AE1602268C2
:1023B000914202D2A168081AE060022F16D017E0FD
:1023C0002068A8B9A06801F069FA06460020A0605C
:1023D0000EE06068FDF754FF216C6068084460609F
:1023E000A168884204D32068606001E005B16D1ED9
:1023F0006D1CA5633046BDE8F08110B50446006B46
:1024000000F0BEFB2046BDE8104000F0B9BB000064
:102410000E484FF4D041420706D0C01D0B4920F0B2
:102420000700411AC1F5D041094A00230144C2E91D
:1024300000030839143A21F0070111604B600B606A
:102440000B1AC0E90013936053607047CC0700205B
:1024500048000020144E154CA6F1A0074FF08058FC
:10246000DFF84C9012E000BF00F056FBF068C56842
:10247000281D00F0B5FAA068401EA0606068401EEC
:10248000606000F069FB2846FFF7B7FF606800282E
:10249000EAD138680128F9D9C9F80080BFF34F8F15
:1024A000BFF36F8FF2E70000AC7000205C000020EB
:1024B00004ED00E02DE9F0470D46DDE909841746FB
:1024C000824691009946089EA522206BFDF7EAFE00
:1024D0006FF00301206B01EB8701084420F0070730
:1024E000780707D0502080F31188BFF34F8FBFF3D8
:1024F0006F8FFEE765B100202218295C82F8341046
:10250000295C11B1401C1028F6D3002084F8430048
:10251000052E07D3502080F31188BFF34F8FBFF3F0
:102520006F8FFEE7E662201DE66400F0DAFA04F140
:10253000180000F0D6FA2461C6F105006462A061BB
:102540004A465146384600F035FA2060B8F1000F8F
:1025500001D0C8F80040BDE8F087000030B511494F
:1025600000E011460A688242FBD34B685C18844243
:1025700003D1406818444860084643681C189442D8
:1025800009D1084C143C2468A24209D052681A446C
:1025900042600A6812680260814200D0086030BD63
:1025A0000460F9E74800002070B5002441600B4D3D
:1025B0000061914206D8D11A8269914206D2011D6A
:1025C000286907E09A4203D2994201D3012403E02B
:1025D000011DE86800F088FA204670BD9C000020CC
:1025E00010B5044600F098FAA06B28B15FF0000423
:1025F00000F0B2FA204610BD0124F9E770B5064696
:102600000D480D46C068C068C468201D00F0E8F998
:1026100094F82800410705D52A463146204600F0A7
:10262000B5F803E000F0FE0084F828002046216A97
:10263000BDE87040084700009C0000207FB5374E81
:1026400063E00098002860DB029C606910B1201DE7
:1026500000F0C6F903A800F0BBF8054600980A2868
:1026600053D2DFE800F0520505282E460505282E36
:1026700094F828002A4640F0010084F828000199C7
:10268000A069019B01442046FFF78EFF40B394F8F8
:102690002800410707D50198A1692A460144204630
:1026A00000F074F803E000F0FE0084F82800216ACE
:1026B0002046884729E014F8280F00F0FE0020701B
:1026C00023E094F8280040F0010084F828000198E5
:1026D000A06130B141192B461A462046FFF764FF2E
:1026E00013E0502080F31188BFF34F8FBFF36F8F3B
:1026F000FEE794F82800810703D4204600F040FA52
:1027000003E000F0FE0084F82800002269463068EB
:1027100000F058FE002894D17FBD00009C000020EE
:10272000F8B50D46064600F0F1FB684600F050F89B
:102730000446009810B101F0D3F9F8BD1148ADB1CD
:1027400001690968D9B10025311B2A46006800F0EB
:10275000ADFA01F0C5F90028EFD10B494FF08050D8
:102760000860BFF34F8FBFF36F8FF8BDA642EBD861
:1027700001F0B6F921463046FFF740FFF8BD0125CC
:10278000E2E700009C00002004ED00E070B5164672
:102790000C46054604E0A869296A0444284688478F
:1027A000A8692346011932462846FFF7FDFE002896
:1027B000F1D170BD0548816B096821B1816BC96891
:1027C0000968816270474FF0FF31FAE75C00002032
:1027D0002DE9F041064600F0BFFF0E4C0546A0680B
:1027E000854214D24FF0FF3704E0C06839460068D4
:1027F000FFF704FFE06801680029F6D12169C4E908
:102800000310012030602846A560BDE8F08100205B
:10281000F8E700009C00002008484068401C4FF08A
:10282000500080F3118804D0BFF34F8FBFF36F8F38
:10283000FEE7BFF34F8FBFF36F8FFEE7500000201E
:10284000074CE068016841B1C0680021D0F8000081
:10285000FFF766FFFFF7F2FEF3E701210020F7E73D
:102860009C0000202DE9F041044600F055F994F950
:10287000455004F1240609E0606A48B1304601F091
:10288000C1F808B100F062FA6D1E6DB2002DF3DCE4
:102890004FF0FF3684F8456000F05EF900F03CF937
:1028A00094F9445004F1100709E0206948B1384612
:1028B00001F0A8F808B100F049FA6D1E6DB2002DC4
:1028C000F3DC84F84460BDE8F04100F045B9000055
:1028D00070B50446002600F019FB2F4D286808B992
:1028E000FFF796FD94B304F00700C0F11000C14358
:1028F0008C4202D82118002902DC01F0F1F83DE0F9
:1029000068688142F9D8244814300246146801E00E
:102910002046144662688A4202D22268002AF7D111
:102920002A689442E9D00668226802606068083626
:10293000421A102A0FD96018430708D0502080F39C
:102940001188BFF34F8FBFF36F8FFEE713E0426034
:102950006160FFF703FE61686868401A6860AA68F2
:10296000904200D2A86041F00040606000202060EA
:10297000E868401CE86001F0B3F80EB900F04AF8CE
:10298000700707D0502080F31188BFF34F8FBFF33B
:102990006F8FFEE7304670BD3400002004490868A0
:1029A00018B10868026D521C026508687047000083
:1029B0005C00002010B5031F4FF080741C601B1FCB
:1029C00021F001011960191F044B0B6014390A60D2
:1029D000091F6FF0020244380A6010BD1928000870
:1029E000D0E9013201699A60D0E901235A604A684E
:1029F000824201D182684A60002202610868401E5A
:102A0000086008687047000001488068704700004F
:102A10005C00002001A0FFF7B9FAFEE74170706C7E
:102A200069636174696F6E206D616C6C6F632066A1
:102A300061696C656400000001A0FFF7A7FAFEE77A
:102A40000D0A21212120537461636B204F7665723A
:102A5000666C6F7720696E202573202121210D0A75
:102A6000000000004FF47A74204600F041F9FBE7C3
:102A70008CB04FF47A7400BFFFF70EF901A8FFF78E
:102A800053F8BDF81000ADF8000001A890E80E0062
:102A900005A8FFF71BFB204600F02AF9ECE7000031
:102AA000094C4FF4FA756E0003212046FEF754F9E5
:102AB000284600F01DF903212046FEF74AF930466A
:102AC00000F016F9F0E700000004024000F10801F0
:102AD0004FF0FF32C0E90112C160016100210160C5
:102AE000704700210161704730B50B685A1C02D055
:102AF00000F1080202E0026904E0224654682568F9
:102B00009D42FAD953684B6099608A6051600861B0
:102B10000168491C016030BD502080F31188BFF36B
:102B20004F8FBFF36F8F0A494868401C48600128E7
:102B30000CD10848006810F0FF0F07D0502080F338
:102B40001188BFF34F8FBFF36F8FFEE77047000010
:102B50005000002004ED00E00849486828B1401EFC
:102B6000486001D180F311887047502080F31188AC
:102B7000BFF34F8FBFF36F8FFEE7000050000020C0
:102B800070B500282AD0A0F108046068002807DB8F
:102B9000502080F31188BFF34F8FBFF36F8FFEE794
:102BA000216839B1502080F31188BFF34F8FBFF3F4
:102BB0006F8FFEE720F00040606000F0A7F9084D3D
:102BC00060686968084468602046FFF7C7FC2869A8
:102BD000401C2861BDE8704000F082BF70BD00005D
:102BE000340000204FF0E02000210161816105499F
:102BF0004FF47A720968B1FBF2F1491E4161072175
:102C0000016170470000002010B5FDF723FB11495A
:102C100010280ED300F1E02090F8F0030A789042DB
:102C200007D2502080F31188BFF34F8FBFF36F8F0F
:102C3000FEE709480068896800F4E060884207D927
:102C4000502080F31188BFF34F8FBFF36F8FFEE7E3
:102C500010BD0000500000200CED00E070B5002217
:102C600060B100291ED0104C002300BF04EBC30547
:102C70006E6886420AD104EBC3020FE0502080F355
:102C80001188BFF34F8FBFF36F8FFEE71AB954F867
:102C9000336006B92A465B1C082BE7D3002A01D013
:102CA000C2E9001070BD0000CC6F002070B5154661
:102CB0000E460446FFF730FF94F944100020491CEB
:102CC00001D184F8440094F94510491C01D184F8DD
:102CD0004500FFF741FFA06B28B92A46314604F1B1
:102CE000240000F051F82046BDE87040FFF7BABD5F
:102CF00010B5020014D00F48406B38B1502080F35B
:102D00001188BFF34F8FBFF36F8FFEE700F0FEF81F
:102D100000211046FFF744FA00F0E2FE002807D138
:102D200005494FF080500860BFF34F8FBFF36F8F9E
:102D300010BD00005C00002004ED00E002490A6ABA
:102D40000260C968416070475C00002001490120B1
:102D5000C86170475C00002010B50C4650B10949AD
:102D600009681831FFF7C0FE2046BDE81040012178
:102D7000FFF716BA502080F31188BFF34F8FBFF3CF
:102D80006F8FFEE75C000020F0B40C46D0B1114913
:102D900043680D68EB619D680E6835620D689E683A
:102DA000183575600D6818359D600968886201687E
:102DB000491C01600AB14FF0FF342046F0BC1146B7
:102DC000FFF7EEB9502080F31188BFF34F8FBFF3A8
:102DD0006F8FFEE75C00002070B5040058D0226DB4
:102DE000A2B1E06C884200D30146E06A88424FD02D
:102DF000012A4DD1274D2A6894420FD1502080F3EB
:102E00001188BFF34F8FBFF36F8FFEE7502080F321
:102E10001188BFF34F8FBFF36F8FFEE7E162A269A6
:102E2000002A02DBC1F10501A1611B4E00EB80000D
:102E3000616906EB800081422AD1201DFFF7D0FD99
:102E4000012130B994F82C002A6901FA00F082437C
:102E50002A61E06A2A6981401143296100EB800000
:102E600006EB80004068A0608168E1608268211DF7
:102E700051608160E06A00EB800006EB80006061D9
:102E8000E06A00EB800056F82010491C46F820103C
:102E900070BD00005C0000200C7000207CB517485D
:102EA0000025CDE900502B46802215A1164800F0E0
:102EB00017FC124C2C3C012803D100F0A7FE01287E
:102EC00002D0401C11D00EE0502080F31188BFF3D7
:102ED0004F8FBFF36F8F4FF0FF30A0620120606112
:102EE000E56000F05FF8206B7CBD502080F3118816
:102EF000BFF34F8FBFF36F8FFEE700008800002005
:102F000049444C4500000000552400080248416B2C
:102F1000491C4163704700005C00002010B51F4C45
:102F2000606B10B10120E06110BD0020E0612068FD
:102F30004FF0A531006B02688A4208D142688A428C
:102F400005D182688A4202D1C068884204D02168D3
:102F500020683431FFF770FD20691149B0FA80F024
:102F6000C0F11F0000EB800051F820206AB101EB96
:102F7000800000F10802416849684160914201D136
:102F800049684160C868206010BD502080F31188F6
:102F9000BFF34F8FBFF36F8FFEE700005C00002090
:102FA0000C7000201CB537480168374A914207D1A0
:102FB000502080F31188BFF34F8FBFF36F8FFEE770
:102FC00000683149491E884207D1502080F311889A
:102FD000BFF34F8FBFF36F8FFEE72C490878019046
:102FE000FF20087008788DF800009DF800009DF81B
:102FF000002000F0F000904207D0502080F31188AC
:10300000BFF34F8FBFF36F8FFEE79DF80000204C9A
:1030100000F0500020700720A06005E09DF800201F
:1030200052008DF80020401E9DF800201206F5D4B5
:10303000A060032807D0502080F31188BFF34F8F82
:10304000BFF36F8FFEE74FF44070A06001980870E7
:103050000C482030016841F470010160016841F0C2
:1030600070410160FFF7BEFD00206060FDF7BAF817
:103070000848016841F040410160FDF79FF80020D9
:103080001CBD000000ED00E071C20F4100E400E053
:103090005000002034EF00E02DE9F04117460E46C5
:1030A000050020D04FF0FF30B0FBF5F0B0421AD34E
:1030B00005FB06F010F1510F15D85030FFF708FC52
:1030C00004000CD004F150005EB12060C4E90F563A
:1030D0002046012100F010F8204684F84C70BDE82D
:1030E000F0812460F2E7502080F31188BFF34F8F06
:1030F000BFF36F8FFEE700002DE9F0410F4604009B
:103100004FF001062DD0E06B98B3B51EB5FBF0F182
:10311000206C81423ED3FFF7FFFCD4E90F202168E9
:1031200002FB0011A1600021A163216861600A46D1
:10313000D4E90F01401E00FB01212046E16000F8A8
:10314000445F457004F11000A7B1FFF7BFFC04F124
:103150002400FFF7BBFC00BFFFF7FEFC3046BDE8D4
:10316000F081502080F31188BFF34F8FBFF36F8F32
:10317000FEE70FE021690029EED000F043FC0028B3
:10318000EAD008494FF080500860BFF34F8FBFF37B
:103190006F8FE1E7502080F31188BFF34F8FBFF3AB
:1031A0006F8FFEE704ED00E02DE9FF4782B01D467A
:1031B0008A464FF00008040003D0BAF1000F08D08F
:1031C00011E0502080F31188BFF34F8FBFF36F8F52
:1031D000FEE7206C38B1502080F31188BFF34F8F89
:1031E000BFF36F8FFEE7022D0AD1E06B012807D0F5
:1031F000502080F31188BFF34F8FBFF36F8FFEE72E
:1032000000F09CFA3F4F4FF000094FF0805648B94C
:10321000049838B1502080F31188BFF34F8FBFF36B
:103220006F8FFEE7FFF778FCA06BE16B884207D356
:10323000022D05D00498D0B1B8F1000F1AD01EE0CD
:103240002A4651462046FFF7A2F8616A19B104F1F7
:10325000240000F0D7FB20B13E60BFF34F8FBFF3D7
:103260006F8FFFF779FC012006B0BDE8F087FFF70C
:1032700073FC22E06846FFF761FD4FF00108FFF79D
:103280006BFCFFF743FEFFF747FC94F94400401C3A
:1032900001D184F8449094F94500401C01D184F890
:1032A0004590FFF759FC04A9684600F0DBF930B1FE
:1032B0002046FFF7D7FA00F013FC0020D4E7FFF711
:1032C0002BFCA06BE16B884213D1FFF745FC04F1A6
:1032D00010000499FFF740FD2046FFF7C3FA00F005
:1032E000FFFB00289ED13E60BFF34F8FBFF36F8F6F
:1032F00098E7FFF731FC2046FFF7B4FA00F0F0FB47
:1033000090E7000004ED00E02DE9F0410F460400D5
:1033100009D0206C78B1502080F31188BFF34F8F13
:10332000BFF36F8FFEE7502080F31188BFF34F8FFC
:10333000BFF36F8FFEE7206848B9A06838B150200E
:1033400080F31188BFF34F8FBFF36F8FFEE7FFF756
:103350005BFC5020EFF3118680F31188BFF34F8F91
:10336000BFF36F8FA06BE16B814226D994F9455072
:10337000401CA063681C0AD0FFF746FB854204D2BC
:103380007F2D12D06D1C84F84550012016E0606A34
:103390000028FAD004F1240000F034FB0028F4D017
:1033A000002FF2D001203860EFE7502080F3118821
:1033B000BFF34F8FBFF36F8FFEE7002086F31188B6
:1033C000BDE8F0812DE9F747002683B08A46040066
:1033D00003D0BAF1000F08D011E0502080F311881B
:1033E000BFF34F8FBFF36F8FFEE7206C38B15020D3
:1033F00080F31188BFF34F8FBFF36F8FFEE700F0AC
:103400009DF9DFF8F4804FF000094FF0805748B97C
:10341000059838B1502080F31188BFF34F8FBFF368
:103420006F8FFEE7FFF778FBA56BC5B151462046CD
:10343000FEF79AFF6D1EA563206950B104F11000DC
:1034400000F0E0FA28B1C8F80070BFF34F8FBFF367
:103450006F8FFFF781FB012006B0BDE8F08705986C
:1034600008B11EB106E0FFF777FB27E06846FFF7DB
:1034700065FC0126FFF770FBFFF748FDFFF74CFBEB
:1034800094F94400401C01D184F8449094F945001B
:10349000401C01D184F84590FFF75EFB05A9684602
:1034A00000F0E0F8002820460AD0FFF7DBF900F032
:1034B00017FB2046FFF794F80028B3D00020CBE795
:1034C000FFF78EF890B104F124000599FFF744FC52
:1034D0002046FFF7C7F900F003FB0028A2D1C8F887
:1034E0000070BFF34F8FBFF36F8F9BE72046FFF74E
:1034F000B9F900F0F5FA95E704ED00E02DE9F343A2
:10350000002683B00400354609D0206C78B15020E5
:1035100080F31188BFF34F8FBFF36F8FFEE750200A
:1035200080F31188BFF34F8FBFF36F8FFEE700F07A
:1035300005F9DFF82C814FF000094FF0805748B9AA
:10354000049838B1502080F31188BFF34F8FBFF338
:103550006F8FFEE7FFF7E0FAA06BC8B1401EA063D3
:10356000206810B9FFF71AFAA060206950B104F181
:10357000100000F047FA28B1C8F80070BFF34F8F71
:10358000BFF36F8FFFF7E8FA012005B0BDE8F083C5
:10359000049808B11EB106E0FFF7DEFA5EE0684667
:1035A000FFF7CCFB0126FFF7D7FAFFF7AFFCFFF7D9
:1035B000B3FA94F94400401C01D184F8449094F982
:1035C0004500401C01D184F84590FFF7C5FA04A9D5
:1035D000684600F047F80028204612D0FFF742F96D
:1035E00000F07EFA2046FEF7FBFF0028B2D075B34C
:1035F000FFF792FA606A58B3206B0068C0F10501CA
:1036000028E0FEF7EDFFE0B1206838B9FFF784FA53
:10361000A06800F09FF90546FFF79EFA04F1240028
:103620000499FFF799FB2046FFF71CF900F058FAC0
:1036300000288FD1C8F80070BFF34F8FBFF36F8F92
:1036400088E72046FFF70EF900F04AFA82E705E026
:10365000FFE70021A068FFF7BFFB9DE7002094E78C
:1036600004ED00E02DE9F0410C46050014D0DCB17A
:10367000FFF752FA194EF2686B682068D11A471C9E
:103680001AD02F68D6F820C00026674516D093427E
:1036900014D8012526601BE0502080F31188BFF369
:1036A0004F8FBFF36F8FFEE7502080F31188BFF379
:1036B0004F8FBFF36F8FFEE7002509E0884205D9E1
:1036C000401A20602846FFF739FBF5E70125266000
:1036D000FFF742FA2846BDE8F08100005C000020B8
:1036E0002DE9FF5F8346DDE90E87994616468A4637
:1036F0009000FFF7EDF805001DD05C20FFF7E8F81B
:10370000040015D05C21FCF7D4FD25630021CDE930
:103710000241CDE900874B46324651465846FEF7F6
:10372000C9FE2046FEF780FD012004B0BDE8F09FF1
:103730002846FFF725FA4FF0FF30F6E705484169C4
:1037400019B1406B18B1002070470120704702206A
:10375000704700005C0000200148C068704700000E
:103760005C0000202DE9F0414A4C0026606B28B136
:10377000A069401CA0613046BDE8F081E5686D1C81
:10378000E56013D1A06B006838B1502080F3118838
:10379000BFF34F8FBFF36F8FFEE7A06BE16BA163A9
:1037A000E063206A401C2062FFF704F8A16A3A48EF
:1037B0008D420FD34FF0000EA16B096839B1A16B98
:1037C000C968C9684A68954212D2A26202E04FF005
:1037D000FF31A1622168C96A01EB810150F8210023
:1037E000012800D90126E0690028C4D00126C2E7DB
:1037F000D1E902724B69BA60D1E902277A605F6849
:103800000A1D974201D1CF685F60C1F814E01F68BC
:103810007F1E1F60D1F828C0BCF1000F15D0D1E980
:1038200007379F60D1E907377B60DCF8047001F14E
:1038300018039F4202D10B6ACCF80430C1F828E08B
:10384000DCF800305B1ECCF80030CB6A0127D4F8DE
:1038500010C09F4047EA0C07276103EB830300EB8E
:1038600083035B688B609F68CF609F687A609A6013
:10387000CA6A02EB820200EB82034B6150F82230ED
:103880005B1C40F82230C96A2268D26A914293D9FF
:10389000012691E75C0000200C70002070B5040048
:1038A0004FF000014FD0294D2868844207D05020A6
:1038B00080F31188BFF34F8FBFF36F8FFEE7206D4A
:1038C00038B1401E2065E36CE26A9A423BD040B1B9
:1038D00039E0502080F31188BFF34F8FBFF36F8F13
:1038E000FEE7201DFFF77CF8012130B994F82C0089
:1038F0002A6901FA00F082432A61E06CE062C0F1BB
:103900000500A061E06A2A698140114329611049DC
:1039100000EB800001EB80004068A0608268E260FC
:103920008368221D5A608260E06A00EB800001EB30
:1039300080006061E06A00EB800051F82020521C9A
:1039400041F820200121084670BD00005C000020E5
:103950000C70002070B504004FF0000047D0274DD8
:10396000E16A2A68D26A914242D2A069002804DB47
:103970002868C06AC0F10500A061214E01EB8101F9
:10398000606906EB810188422DD1201DFFF728F8E0
:10399000012130B994F82C002A6901FA00F0824321
:1039A0002A612868C06AE0622A698140114329615E
:1039B00000EB800006EB80004068A0608168E16059
:1039C0008268211D51608160E06A00EB800006EB97
:1039D00080006061E06A00EB800056F82010491C0E
:1039E00046F8201002E02868C06AE062012070BD3D
:1039F000E16C2A68D26A9142F8D370BD5C00002065
:103A00000C70002070B5C068C06850B3D0E90732B0
:103A1000816A9A60D0E907235A604A6800F1180366
:103A20009A4201D1026A4A60002585620A68521EE4
:103A30000A6029494A6B0124DAB1284D6A68C261DB
:103A40009668066296687360936085622A68521C65
:103A50002A60C06A0A68D26A90423AD90120CC61D1
:103A600070BD502080F31188BFF34F8FBFF36F8F6D
:103A7000FEE7D0E902634269B360D0E902367360C1
:103A80005668031D9E4201D1C6685660456115689F
:103A90006D1E1560C26A0E6904FA02F535430D61A8
:103AA0000E4D02EB82028C3D05EB82025268826071
:103AB0009668C660966873609360C26A02EB820281
:103AC00005EB8203436155F822305B1C45F8223038
:103AD000BFE7002070BD00005C000020987000204F
:103AE0002DE9F041464D00242746686B38B1FFF7B9
:103AF00013F8686B401E6863686B40B17AE0502031
:103B000080F31188BFF34F8FBFF36F8FFEE7A86874
:103B10003C4B00264FF00108F0BB6BE0D868C4684E
:103B2000D4E90721A06A9160D4E907125160426884
:103B300004F118018A4201D1216A4160A66201683C
:103B4000491E0160D4E9022160699160D4E9021242
:103B500051604268211D8A4201D1E268426066617B
:103B60000268521E0260E26AD5F810C008FA02F03C
:103B700040EA0C00286102EB8200224A8C3A02EBF8
:103B800080004068A060D0F808C0C4F80CC0D0F82D
:103B900008C0CCF8041000E012E08160E06A00EB9D
:103BA000800002EB8001616152F82010491C42F84C
:103BB0002010E06A2968C96A884201D3C5F81C80D0
:103BC00018680028AAD10CB1FEF7F4FDAC693CB12D
:103BD000FFF7C8FD08B1C5F81C80641EF8D1AE61BE
:103BE000E86938B10849012738070860BFF34F8FEB
:103BF000BFF36F8FFEF7B0FF3846BDE8F0810000DD
:103C00005C0000209870002004ED00E01CB5FEF779
:103C100083FB0C48006860B10A490220091DCDE908
:103C20000001C201002308A10948FFF759FD00283F
:103C300007D1502080F31188BFF34F8FBFF36F8FF0
:103C4000FEE71CBD9C000020546D7220537663007B
:103C500041280008743C000800000020B00000006B
:103C600040120008243D0008B000002050740000FD
:103C700050120008007A030A000000000000000053
:103C80000102030406070809000000000102030402
:103C900001020304060708090000000000000000FC
:103CA0000000000000000000000000000000000014
:103CB0000000000000000000000000000000000004
:103CC0000000000000000000AAAAAAAA000000004C
:103CD00000000000000000000000000000000000E4
:103CE00000000000000000000000000000000000D4
:103CF00000000000000000000000000000000000C4
:103D000004000000000000000000000000000000AF
:103D100000000000000000000000000000000000A3
:043D2000000000009F
:040000050800018965
:00000001FF
