:020000040800F2
:10000000987500205D0200087F1000082510000888
:100010007D100008F10A000809180008000000001F
:100020000000000000000000000000009D0100082A
:100030003D0E000800000000F901000889120008C8
:1000400077020008770200087702000877020008AC
:10005000770200087702000877020008770200089C
:10006000770200087702000877020008770200088C
:100070007702000877020008F50A000877020008F6
:1000800077020008770200080509000877020008D7
:10009000770200087702000877020008770200085C
:1000A00011130008511300087702000877020008B6
:1000B000770200087702000877020008770200083C
:1000C000770200087702000877020008770200082C
:1000D00077020008770200087702000885160008FA
:1000E000770200087702000877020008770200080C
:1000F00077020008770200087702000877020008FC
:1001000077020008770200087702000877020008EB
:1001100077020008770200087702000877020008DB
:100120004D0B0008770200087702000877020008EC
:1001300077020008770200087702000877020008BB
:1001400077020008770200087702000877020008AB
:10015000770200087702000877020008770200089B
:10016000770200087702000877020008770200088B
:10017000770200087702000877020008770200087B
:100180007702000877020008DFF80CD000F01CFBB3
:100190000048004705350008987500202C4B196869
:1001A0000868B0E8F04F80F30988BFF36F8F4FF015
:1001B000000080F3118870470000000008480068C4
:1001C000006880F308884FF0000080F3148862B65E
:1001D00061B6BFF34F8FBFF36F8F00DF00BF00BF6B
:1001E00008ED00E0DFF80C00016841F470010160E7
:1001F000704700BF88ED00E0EFF30980BFF36F8F19
:10020000134B1A681EF0100F08BF20ED108A20E96A
:10021000F04F106009B44FF0500080F31188BFF325
:100220004F8FBFF36F8F04F037F84FF0000080F36B
:10023000118809BC19680868B0E8F04F1EF0100F6B
:1002400008BFB0EC108A80F30988BFF36F8F704746
:100250007C000020EFF305807047000006488047CF
:1002600006480047FEE7FEE7FEE7FEE7FEE7FEE79B
:10027000FEE7FEE7FEE7FEE7B51200088901000889
:1002800040EA01039B0703D009E008C9121F08C018
:10029000042AFAD203E011F8013B00F8013B521E98
:1002A000F9D27047D2B201E000F8012B491EFBD20F
:1002B00070470022F6E710B513460A460446194671
:1002C000FFF7F0FF204610BD0EB5C10F80EAE070C9
:1002D0000844CA07002140F233438DE80E000A4665
:1002E0000B4600F083F803B000BD00F0004230F090
:1002F00000400AD0C10D01F56071C0F3160042EA5A
:100300000151C20840071143704700200146704761
:1003100030B5041E71F1000404DB4FF0004440428C
:1003200064EB0101141E73F1000405DB1C464FF061
:100330000043524263EB0403994208BF904230BD30
:1003400030B50B46014600202022012409E021FAA5
:1003500002F59D4205D303FA02F5491B04FA02F5A2
:100360002844151EA2F10102F1DC30BD2DE9F05F39
:100370000546002092469B46884606468146402414
:100380001BE0284641464746224600F03EFA5346C7
:100390005A46C01A914110D311461846224600F021
:1003A00025FA2D1A67EB01084F462246012000214D
:1003B00000F01CFA17EB00094E41201EA4F10104C5
:1003C000DFDC484631462A464346BDE8F09F10B57B
:1003D000141E73F1000408DA401C41F10001921868
:1003E0005B411A4301D120F0010010BD2DE9F04D11
:1003F00092469B4611B1B1FA81F202E0B0FA80F266
:100400002032904600F0F2F904460F4640EA0A0016
:1004100041EA0B0153465A46084313D0114653EAAA
:10042000010019D0C8F14002504600F0EEF905462F
:100430000E4650465946424600F0D8F9084305D0CA
:10044000012004E020463946BDE8F08D0020054338
:1004500046EAE0762C4337430A986305E40AA0EBAA
:1004600008000022FD0A44EA47540A3002D5002061
:100470000146E9E7010510196941DDE90845001960
:100480006941BDE8F04DA2E72DE9FE4F804681EAC3
:100490000300C00F0C46009021F0004123F00045FE
:1004A000B8EB0200A94105D24046214690461C46C1
:1004B0000B46024623F00040104347D0270DC7F3F8
:1004C0000A00C3F30A510290401A019040286BDAE7
:1004D000C3F3130040F4801B0098924620B1002320
:1004E000D2EB030A63EB0B0B01985946C0F14002B3
:1004F000504600F07BF906460D4650465946019A93
:1005000000F093F910EB08006141002487EA1152D2
:1005100084EAE7731A4340D0009A62B3019A012A31
:100520004FEA075215DC001B61EB02014FF000425D
:1005300002EA0752CDE90042001C41F58011324623
:100540002B46FFF753FF03B0BDE8F08F404621462E
:10055000F9E7001B61EB0201001C41F58013001854
:100560005B412018A2F5001747EB030140EAD57064
:10057000B6196D4111E06D084FEA360645EAC075BF
:100580004FEA0752001B61EB0201001C41F580118C
:1005900049084FEA30000019514132462B4603B05A
:1005A000BDE8F04FFFF713BF009801224000002381
:1005B000D0EB020263EBE073009821464FEAE0744F
:1005C000B8EB000061EB0401E9E783F000435BE76F
:1005D00081F0004158E72DE9FE4F81EA030404F061
:1005E000004421F0004100944FF0000B23F0004341
:1005F00050EA01045ED052EA03045BD0C3F30A540C
:10060000C1F30A552C44A4F2F3340194A0FB025424
:10061000C1F3130141F48011C3F3130343F48013B6
:1006200001FB024400FB034E840A970A44EA81540A
:1006300047EA8357A4FB076802958D0A05FB0785E7
:100640004FEA932C04FB0C542705029D4FEA0658F1
:1006500047EA1637B5EB08056EEB070C870E920ECE
:1006600047EA811742EA8312A7FB0201B6EB0B01AE
:1006700064EB00042B0D43EA0C335E1844EB1C5072
:10068000DA465146E7FB0201C5F313044FEA0B3388
:1006900043EA14534FEA0432019C43EA0603A4F1EF
:1006A0000C040294009CCDE900B4FFF79FFE03B058
:1006B000BDE8F08F00200146F9E72DE9F04D81EA11
:1006C000030404F0004B21F0004514464FF0000AEB
:1006D00023F0004150EA050220D054EA01021DD067
:1006E000C5F30A570246C5F31303C1F31300C1F360
:1006F0000A5640F4801543F48013A7EB0608101B3C
:10070000D64608F2FD3873EB050002D308F1010864
:1007100001E092185B41B8F1000F03DA00200146B6
:10072000BDE8F08D00204FF48011064684460EE0AF
:10073000171B73EB050705D3121B63EB0503064379
:100740004CEA010C49084FEA300092185B4150EA2C
:100750000107EDD152EA030012D082EA040083EAD5
:100760000501084305D0101BAB4106D2012200232E
:1007700006E000224FF0004302E06FF00102531048
:100780001AEB06004CEB085110EB0A0041EB0B0191
:10079000BDE8F04DFFF71BBEC1F30A52C1F31301D0
:1007A00040F2FF3341F480119A4202DA0020014600
:1007B000704740F233439A42A2F2334202DC524283
:1007C00000F023B800F012B8064C074D06E0E068D0
:1007D00040F0010394E8070098471034AC42F6D388
:1007E000FFF7D6FC84500008A4500008202A04DB40
:1007F000203A00FA02F1002070479140C2F1200334
:1008000020FA03F3194390407047202A04DB203A72
:1008100021FA02F00021704721FA02F3D040C2F120
:1008200020029140084319467047202A06DBCB1767
:10083000203A41FA02F043EAE07306E041FA02F39B
:10084000D040C2F1200291400843194670476FEA38
:100850001121016070470029816802D041F0010137
:1008600001E021F00101816070470000084B10B5E4
:10087000D3F8042307490A40D0E900142143D0E902
:100880000240044321431143C3F8041310BD000088
:1008900000200140E030FCFF0029816802D041F4D3
:1008A000807101E021F4807181607047826822F4D8
:1008B00070220A4382607047826822F440120A4321
:1008C00082607047C06C80B2704702460020126898
:1008D0000A4200D00120704730B50246002053681C
:1008E0000C0A01258D4011682B40214202D0002BBB
:1008F00000D0012030BD08B50844283000900068C1
:1009000080B208BD70B5284D40F207442146284604
:10091000FFF7E2FF002845D021462846FFF797FF62
:1009200014212846FFF7E7FF204C18212080284695
:10093000FFF7E1FF60801C212846FFF7DCFFA08065
:10094000012001F05BFE1A4904F12000B1F90020FA
:10095000D0ED000A00EE102AB8EEC00A70EEC00A10
:100960009FED140A60EE800AC0ED000AB1F9022082
:1009700090ED011A00EE902AF8EEE00A71EE600A9E
:1009800060EE800AC0ED010AB1F9041090ED021A80
:1009900000EE901AF8EEE00A71EE600A20EE800A8E
:1009A00080ED020A70BD000000200140D405002047
:1009B00038000020FFFF243D01238B4041680AB12D
:1009C000194300E0994341607047000030B5426828
:1009D0000F4B0C791A400B6842EA04221343436020
:1009E00082680C4B4D791A40D1E9034323438C684C
:1009F00044EA4504234313438360C26A097D22F419
:100A00007002491EC9B242EA0151C16230BD000004
:100A1000FFFEFFFCFDF7FFC070B5072409290AD9C6
:100A2000C568A1F10A0606EB4606B440A543B340EB
:100A30001D43C56007E0056901EB4106B440A543CD
:100A4000B3401D430561836BC3F30154121B921C19
:100A500002EB82041F22A2409343A1400B43836315
:100A600070BD826B491E22F4401242EA015181633B
:100A7000704770B5072409290AD9C568A1F10A068B
:100A800006EB4606B440A543B3401D43C56007E0EE
:100A9000056901EB4106B440A543B3401D43056120
:100AA0001F23072A09D2446B521E02EB8202934095
:100AB0009C4391400C43446370BD0D2A09D2046BE2
:100AC000D21F02EB820293409C4391400C4304638B
:100AD00070BDC46A0D3A02EB820293409C43914080
:100AE0000C43C46270BD816841F0804181607047F1
:100AF000FEE7000038B50020104D114C009029464B
:100B0000204600F031F968B12946204600F072F81D
:100B10000C48006810B1694603F0B4FD002120467E
:100B200000F07EF80098002807D007494FF0805069
:100B30000860BFF34F8FBFF36F8F38BD0080001880
:100B4000586002402400002004ED00E02DE9F0414F
:100B5000DFF86080184F4146384600F005F9174C21
:100B6000174EA4F16C0568B14146384600F042F8D2
:100B70002088E88060882881A0886881E088A88132
:100B800001203070DFF83C803846414600F0ECF838
:100B900000280DD04146384600F02CF82089E88026
:100BA00060892881A0896881E089A881022030704D
:100BB000BDE8F081104000101064024040060020A3
:100BC0002800002020800010074A904201D20748E8
:100BD00001E005481038064A8B0001EA020101D500
:100BE000C16070478160704710640240006002403D
:100BF0007D0F7D0F074A904201D2074801E005486A
:100C00001038064A8B0001EA020101D5C160704725
:100C10008160704710640240006002407D0F7D0FCC
:100C20000029016802D041F0010101E021F0010139
:100C3000016070472DE9F043016821F00101016076
:100C40000021016041608160C16001612121416139
:100C50003C493C4A3D251039904202D18D60BDE8A7
:100C6000F083384A4FF474661832904201D18E6096
:100C7000F5E7344A4FF474173032904201D18F6057
:100C8000EDE7304A4FF0746C4832904202D1C1F81F
:100C900008C0E4E72B4B2C4A6033984201D1CA606C
:100CA000DDE7284C294B7834A04201D1CB60D6E750
:100CB000DFF89080264C08F19008404501D1CC60C7
:100CC000CDE7DFF880804FF03D5908F1A808404596
:100CD00002D1C1F80C90C2E71E49DFF878800839CC
:100CE000404501D10D60BAE71A4D1835A84201D12F
:100CF0000E60B4E7174D3035A84201D10F60AEE762
:100D0000144D4835A84202D1C1F800C0A7E7114DE3
:100D100010496035091FA84201D10A609FE70D4ABA
:100D20007832904201D10B6099E70A4A90329042A2
:100D300001D10C6093E7074AA83290428FD1C1F8E5
:100D400000908CE7106002403D000020400F002022
:100D500000003D2010640240014600200968C907D8
:100D600000D001207047000030B5104A00249042A6
:100D700001D20F4B01E00D4B103B0E4A114205D042
:100D80001E2202EAD12502682A4002E0406900F0F2
:100D90008002880001D5586800E01868064B1840AA
:100DA000084201D002B10124204630BD1064024047
:100DB000006002403C0F3C0F7D0F7D0F0B0607D5F6
:100DC000436912B143F0800301E023F080034361E3
:100DD000802908D0002A026801F01E0101D00A43D0
:100DE00000E08A430260704730B50368124ACC685D
:100DF00013400A682243D1E905452C432243CC69BC
:100E000022430C6A22434C6A22438C6A22434C6B75
:100E100022438C6B22431A430260426922F007038B
:100E2000D1E90B2422431A4342610A6942604A68AD
:100E300082608968C16030BD3F801CF0704700004F
:100E40001CB500210120CDE900010B46820207A15B
:100E5000094803F003FE09490128086004D0BDE8F1
:100E60001C4007A002F01EB91CBD0000446562755D
:100E70006750726F63000000DD3D000848000020ED
:100E80004465627567207461736B20637265617479
:100E900065204661696C6564000000001CB5002196
:100EA0000420CDE900010B46020207A1094803F026
:100EB000D5FD09490128086004D0BDE81C4007A001
:100EC00002F0F0B81CBD0000464F43436F6E7472D1
:100ED0006F6C0000E93D000848000020464F4320A9
:100EE000436F6E74726F6C207461736B20637265F4
:100EF000617465204661696C65640000F0B500238B
:100F0000012403270D6804FA03F21540954242D1EB
:100F1000D0F800C05E0007FA06F52CEA050CC0F810
:100F200000C091F804C0D0F800E00CFA06FC4CEACE
:100F30000E0CC0F800C091F804C0BCF1010F02D043
:100F4000BCF1020F1FD1D0F808C02CEA050CC0F884
:100F500008C091F805C0D0F808E00CFA06FC4CEA8D
:100F60000E0CC0F808C0D0F804C02CEA020CC0F87F
:100F700004C0426891F806C00CFA03FC1FFA8CFC0E
:100F800042EA0C024260C268AA43C260CA79C568DC
:100F9000B2402A43C2605B1C102BB3D3F0BD4B0799
:100FA000DB0E9A40C90810B500EB8100016A0F24DE
:100FB0009C40A1430162016A1143016210BD090412
:100FC00081617047816170471CB500210320CDE924
:100FD00000010B464FF4806206A1094803F03EFD74
:100FE00008490128086004D0BDE81C4006A002F0B2
:100FF00059B81CBD47617468657250726F63000018
:10100000073E00084800002044656275672074614F
:10101000736B20637265617465204661696C6564F9
:1010200000000000FEE700001CB500210220CDE911
:1010300000010B46402207A1084803F00FFD0849B4
:101040000128086004D0BDE81C4006A002F02AB8C0
:101050001CBD00004C656450726F63001D3E0008AB
:10106000480000204C4544207461736B2063726516
:10107000617465204661696C65640000FEE7704735
:1010800000F01F02012191404009800000F1E020A2
:10109000C0F800117047000030B50F22C478017805
:1010A0000123FCB1144C246801F1E02104F4E06454
:1010B000C4F5E064C4F30724C4F10405E2404478B5
:1010C000AC408578154025432A0181F8002400783A
:1010D00000F01F018B404009800000F1E020C0F8C3
:1010E000003130BD01F01F0083404809800000F14D
:1010F000E020C0F8803130BD0CED00E0044A00294A
:10110000116801D0014300E0814311607047000085
:1011100030380240044A0029116801D0014300E040
:10112000814311607047000040380240044A0029A2
:10113000116801D0014300E0814311607047000055
:101140004438024070B5204A1168204C11F00C015F
:1011500004D06610042903D0082903D004601BE0E2
:10116000066019E01849091F0B68C3F380550B6826
:1011700003F03F0315B1B6FBF3F301E0B4FBF3F367
:101180000C680968C4F388146343C1F30141491C26
:101190004900B3FBF1F1016011680F2303EA11115B
:1011A0000B4B5C5C0168E14041601468072505EA6F
:1011B00094241C5D21FA04F48460126805EA52321A
:1011C0009A5CD140C16070BD083802400024F40030
:1011D000140000200CB500202749019000900A68F7
:1011E00042F480320A604FF4A0430A6802F40032ED
:1011F0000092019A521C0192009A12B9019A9A42E5
:10120000F3D10A68920334D5012000901A48403087
:10121000026842F0805202601848026842F440427C
:1012200002601548083002680260026842F4004219
:101230000260026842F4A0520260031F104A1A6062
:101240000A6842F080720A600A689201FCD50D4A71
:1012500040F205711160016821F00301016001682D
:1012600041F0020101600168C1F381010229FAD154
:101270000CBD00900CBD0000003802400070004022
:1012800008544007003C024010B5502080F31188FC
:10129000BFF34F8FBFF36F8F03F06CFC18B104499D
:1012A0004FF080500860002080F3118810BD0000CE
:1012B00004ED00E0124810B5016841F470010160CE
:1012C0001048016841F0010101600E4A0021083216
:1012D000116002680C4B1A400260031D0B4A1A6031
:1012E000026822F48022026006480C300160FFF799
:1012F00071FF03494FF000608039086010BD0000A5
:1013000088ED00E000380240FFFFF6FE10300024B8
:1013100010B5094C8021204600F055F800280AD06D
:101320008021204600F037F801F080FCBDE8104035
:1013300002A001F0B7BE10BD0000014050574D2083
:101340004661756C74204572726F72210000000056
:1013500010B5074C0121204600F035F8002805D0D3
:101360002046BDE81040012100F015B810BD000076
:101370000000014010B50A884B88CC881A438B883E
:1013800023431A430B891A434B8989891A430A4319
:10139000A0F8442010BDC94301827047002901888C
:1013A00002D041F0010101E021F00101018070470C
:1013B000002930F8441F02D041F4004101E0C1F39C
:1013C0000E010180704702460020138A92890B4269
:1013D00002EA010202D0002A00D001207047002A50
:1013E000828901D00A4300E08A438281704700006D
:1013F00030B5028C22F001020284028C8388048BB7
:1014000022F0020224F073050C882C438D891543C9
:101410004A882A430C4DA84202D00C4DA8420DD157
:1014200022F00805CA8923F440732A4322F00405F8
:101430008A882A430D8A1D434B8A2B438380048369
:1014400089684163028430BD00000140000401400E
:10145000028B22F008020A430283704770B5028CA7
:1014600022F010020284028C8488038B0D8823F4FE
:10147000E6464FF6FF7303EA052535438E8922F0D1
:10148000200203EA061616434A8803EA0212324390
:10149000104EB04202D0104EB04215D122F080065C
:1014A000CA8924F4406403EA0212324322F040065F
:1014B0008A8803EA021232430E8A03EA860626432A
:1014C0004C8A03EA840434438480058389688163F9
:1014D000028470BD0000014000040140028B4FF601
:1014E000FF7322F4006203EA012111430183704774
:1014F00070B5028C22F480720284028C8488838B03
:101500000D8823F073031D4322F400738E894FF678
:10151000FF7202EA06261E434B8802EA0323334386
:10152000104EB04202D0104EB04215D123F40066E6
:10153000CB8924F4405402EA0323334323F4806626
:101540008B8802EA032333430E8A02EA06162643F7
:101550004C8A02EA04143443848085838968C16319
:10156000038470BD0000014000040140828B22F022
:1015700008020A438283704770B5028C22F48052BD
:101580000284048C8288838B0D8823F4E6464FF610
:10159000FF7303EA0525354324F400568C8903EADA
:1015A000043434434E8803EA06362643084CA042EE
:1015B00002D0084CA04205D122F480440A8A03EAF2
:1015C000821222438280858389680164068470BD0B
:1015D0000000014000040140828B4FF6FF7322F4AB
:1015E000006203EA0121114381837047828822F05F
:1015F0007002828082880A4382807047416370470C
:1016000081637047C163704730B50288164B174C31
:1016100098420DD0A0420BD0B0F1804F08D0144DAD
:10162000A84205D0134DA84202D0134DA84203D1C1
:1016300022F070054A882A43104DA84206D0104D6A
:10164000A84203D022F440750A892A4302804A68DE
:10165000C2620A880285984201D0A04201D1897AEB
:1016600001860121818230BD00000140000401405B
:101670000004004000080040000C00400010004042
:101680000014004010B5084C40F22551204600F0EF
:1016900026F8002807D0204600F0AEF8BDE810403C
:1016A000C0B201F0E5BC10BD0048004000298189AE
:1016B00002D041F4005101E021F4005181817047D2
:1016C000002A828A01D00A4300E08A43828270475E
:1016D0000246002012880A4200D00120704730B52F
:1016E00001F01F0201240025C1F3421304FA02F2A3
:1016F000012B0FD0022B0FD0838A4FEA11210088D3
:10170000134204FA01F400EA040001D000B10125FB
:10171000284630BD8389F0E7038AEEE710B5C1F3B0
:10172000421301F01F040121A140012B07D0022B1D
:1017300007D01430002A026805D00A4304E00C30B8
:10174000F8E71030F6E78A43026010BD7FB5044623
:10175000008A0D4620F44051E88808432082A08981
:1017600041F20C618843A9882A8911436A8902439E
:101770001143A181A08A20F44071A8890843A08266
:101780006846FFF7DFFC1A48844202D019488442B9
:1017900001D1039800E00298A189090400EBC0017F
:1017A00001EB0010296801D5490000E08900B0FB79
:1017B000F1F26420B2FBF0F109010B096FF018059A
:1017C0006B4302EB8302A3891D044FF0320306D55D
:1017D00003EBC202B2FBF0F000F0070005E003EB00
:1017E0000212B2FBF0F000F00F00084320817FBD31
:1017F00000100140001401408088C0F308007047C9
:10180000C1F3080181807047FEE700007CB5044603
:1018100000201D46164600290BD0491ECDE9004187
:10182000044B6A462946304600F046FB009A0021E8
:1018300011707CBDE72500084100080218BF042094
:101840000A0E18BF40F001004FF07F4232EA01015A
:1018500008BF40F00200012808BF052070470000C3
:1018600010EE101A08B5444A6846B2EB410F28D969
:101870004FF0E640B0EB410F94BF00204FF0FF3037
:1018800000900098002861DB60EE000A10F0010F64
:1018900045D010F0020FDFED391A9FED391A00EE36
:1018A000E11ADFED381A40EE811A21EEA01AF0EEAF
:1018B000400A40EE010A08BFF1EE600AB0EE600A8D
:1018C00008BD314B21F0004293423CD911F0004F4A
:1018D000DFED2E0A20EE201ADFED2D0A19BF31EEC2
:1018E000601A71EE200A31EE201A71EE600ABDEE28
:1018F000E01A11EE100A9FED271A00F0030000EE27
:10190000C10A9FED251A009000EEC10A9FED231A2F
:1019100000EEC10A9FED221A00EEC10AB1E79FED69
:10192000211A9FED210A10F0020F00EE810A9FEDAF
:101930001F1A00EE801AB7EE000A00EE810A18BFE7
:10194000B1EE400A08BD00F035F99AE710EE100A32
:101950004000B0F17F4F3CBFB7EE000A08BD07D191
:101960004FF0010000F0E0F9BDE8084000F012B9C6
:10197000BDE8084000F00BB9B61F927E336D4C39BC
:10198000DA82083CA0AA2ABE490E494683F9223FC2
:101990000000004B0000C93F00A0FD390020A23329
:1019A0001A61342CB93AB2BACA9F2A3DDDFFFFBE94
:1019B0002DED020B019820F0004001909DED000BF1
:1019C00002B0704700B510EE101A2DED028B81B0F9
:1019D000524A6846B2EB410F2ED94FF0E640B0EBC9
:1019E000410F94BF00204FF0FF3000900098B0EE00
:1019F000408A00286ADB10F0010F4BD068EE080A1D
:101A00009FED471A9FED470A00EE810A9FED461AA7
:101A100010F0020F00EE801AB7EE000A00EE810A05
:101A200002BF01B0BDEC028B00BD00BF01B0B1EE42
:101A3000400ABDEC028B00BD3C4B21F000429342BA
:101A400041D911F0004FDFED3A0A20EE201ADFED08
:101A5000390A19BF31EE601A71EE200A31EE201AF0
:101A600071EE600ABDEEE01A11EE100A9FED321A17
:101A700000F0030000EEC10A9FED301A009000EE66
:101A8000C10A9FED2F1A00EEC10A9FED2E1A00EE3B
:101A9000C10AABE728EE080A9FED2B1ADFED2B0AEF
:101AA00010F0020F40EE410A9FED291A00EE201AB5
:101AB00061EE000AB0EE480A08EE200AB6D101B085
:101AC000BDEC028B00BD00F075F88FE718EE100A30
:101AD0004000B0F17F4F0DD218EE100AFFF7ACFEB8
:101AE000042808BF00F05EF8B0EE480A01B0BDEC73
:101AF000028B00BD09D1012000F016F901B0BDEC48
:101B0000028B5DF804EB00F045B801B0B0EE480A76
:101B1000BDEC028B5DF804EB00F039B8B61F927E85
:101B2000B93AB2BACA9F2A3DDDFFFFBE490E494607
:101B300083F9223F0000004B0000C93F00A0FD399F
:101B40000020A2331A61342C336D4C39DA82083C00
:101B5000A0AA2ABE10B52DED028BB1EEC08A18EEF8
:101B6000100A20F00040C0F1FF40C00F0AD010EE74
:101B7000100A20F00040C0F1FF40C00F04BF012058
:101B800000F0D2F8B0EE480ABDEC028B10BD30EE8A
:101B9000000A7047DFED020A80EEA00A70470000DD
:101BA000000000009FED020A20EE000A70470000CE
:101BB000000000102DE9F0014FF07F42B2EB410F21
:101BC0009FBF4FF0FF310160BDE8F00170474FF05B
:101BD000004242EA0123C1F3C752783A551112F08C
:101BE0001F0C434CCCF120067C44C1F3C752A2F138
:101BF00078024FEA621204EB820254F8254008BFD3
:101C0000D2E9015612D0556804FA0CF425FA06F709
:101C10003C43976805FA0CF527FA06F8D26807FAEC
:101C20000CFCF24045EA08054CEA0206A4FB034C12
:101C3000A5FB0352A6FB03631D449D4234BF01264E
:101C400000261319334416B1934202D903E093429C
:101C500001D2012200E00022624402F1200C92062F
:101C6000DC0C42EA443200EE102A5B03DFED210A6D
:101C7000F8EEC01A00EE103A4FEA9C1C11F0004F2B
:101C8000B8EE400AC0F800C020EE201A00EE105A4C
:101C9000DFED190AB8EE400A20EE200A71EE810A43
:101CA00070EE800A10EE902A02F500626FF30B02CC
:101CB00000EE902A70EEE11A31EEC11ADFED101A33
:101CC00030EE411A9FED0D0A20EE800A01EE210A46
:101CD0009FED0C1A00EE810A04BFBDE8F0017047C9
:101CE000CCF180510160BDE8F001B1EE400A7047CF
:101CF00078340000000000360000802C22AAFD2964
:101D0000DB0FC92F0000C92F02E008C8121F08C14D
:101D1000002AFAD170477047002001E001C1121F6C
:101D2000002AFBD17047000001490860704700009D
:101D3000D00000202DE9FF5F82B00021DDE90430F2
:101D4000020DDDF840B0034318D044F61050A2F263
:101D5000FF3242431514119801281FD0A5EB0B0048
:101D6000401C5FEA000A4FF000064E4FDFF8389142
:101D7000B046504615D5CAF1000413E0119801246D
:101D80004AA3012801D16FEA0B010298119AC0E918
:101D90000031C0E9024206B0BDE8F09FCBF100007F
:101DA000DFE704460021404A491842EB0450CDE9E0
:101DB000001012E0E00707D032463B464046494655
:101DC000FEF709FC8046894632463B4610461946D6
:101DD000FEF701FC06460F466410002CEAD1DDE94F
:101DE0000401DDE90023BAF1000F06DAFEF7F3FB88
:101DF00042464B46FEF7EFFB05E0FEF75EFC42462F
:101E00004B46FEF75AFC04460E460022284BFEF7CE
:101E10007FFA03D84FF0FF30014607E00022254B40
:101E200020463146FEF730FBFEF7B6FC102409E0F1
:101E3000002C0ADB0A220023FEF798FA039B3032BB
:101E40001A55641E50EA0102F2D1641C039AC4F1CF
:101E500011031444119A012A03D0012208430DD121
:101E60000AE0084304D000204FF0110B119072E7F4
:101E7000A3EB0B056D1E0DE05B4504DD4FF000028A
:101E800005F1010504E003DA4FF00002A5F10105B8
:101E9000002AECD002981199C0E90231C0E900454E
:101EA00079E70000000014400000F03F300000001F
:101EB0000000F0430000E03F2DE9FF4F95B09B4646
:101EC0008946064600250FE2252877D100242746BB
:101ED000F84A0121059400E0044316F8013F203B35
:101EE00001FA03F01042F7D130782A2811D06FF0B0
:101EF0002F033078A0F13002092A16D8059A44F051
:101F0000020402EB820203EB42021044761C0590AD
:101F1000EFE759F8042B0592002A03DA504244F403
:101F20000054059044F00204761C30782E2816D117
:101F300016F8010F44F004042A280DD06FF02F0288
:101F40003078A0F13003092B09D807EB870302EBA7
:101F50004303C718761CF3E759F8047B761C3078E6
:101F60006C280FD006DC4C2817D068280DD06A28C2
:101F700014D104E0742810D07A280FD10DE044F475
:101F800000140AE044F4801401E044F44014727830
:101F9000824202D104F58014761C761C30786628C3
:101FA0000BD013DC582877D009DC002875D04528E1
:101FB000F6D04628F4D047281AD19DE118E06328CE
:101FC00035D0642879D0652812D195E1702873D076
:101FD00008DC6728F1D069286FD06E280DD06F28F3
:101FE00006D1B5E073282CD0752875D0782874D028
:101FF0005A46179990476D1C75E1C4F302500228A8
:1020000009D003280DD0D9F8001004280DD00D6098
:1020100009F1040967E1D9F80010EA17C1E9005293
:10202000F6E7D9F800100D80F2E70D70F0E719F827
:10203000041B8DF8001000208DF80100EA460120F5
:1020400003E059F804AB4FF0FF3061074FF0000197
:1020500002D40DE008F101018846B9420FDA80454B
:10206000F8DB1AF808100029F4D108E008F10101A2
:1020700088468142FADB1AF808100029F6D1059843
:102080005B46A0EB080721463846179A00F094FA01
:10209000284400EB080507E04DE029E10DE01AF8BF
:1020A000010B5A4617999047B8F10108F7D25B46E1
:1020B00021463846179A13E142E00A220092C4F3FF
:1020C00002524FF0000A022A08D059F804CB032A22
:1020D0004FEAEC710AD00DE029E02AE009F107018E
:1020E00021F00702F2E802C1914609E00FFA8CFCE8
:1020F0004FEAEC71042A03D14FFA8CFC4FEAEC71E1
:10210000002907DA0A460021DCF1000C61EB02012C
:102110002D2202E0220504D52B228DF80420012275
:1021200003E0E20701D02022F7E7904659E00A21B8
:1021300002E010220DE010214FF0000A00910BE0A8
:1021400010224FF0000A44F004040827009203E034
:1021500008224FF0000A0092C4F30252022A05D06E
:1021600059F804CB0021032A08D009E009F107013E
:1021700021F00702F2E802C1914605E01FFA8CFC4B
:10218000042A01D10CF0FF0C4FF00008220728D5DB
:10219000702806D0009B83F0100353EA0A0305D091
:1021A0000EE040228DF80420012208E05CEA0102E2
:1021B00006D030228DF804208DF8050002229046CA
:1021C000009B83F0080353EA0A030AD15CEA010288
:1021D00001D1620705D530228DF804204FF00108A7
:1021E0007F1E582804D034A003900EA802900DE062
:1021F00036A0F9E753466046009AFEF7B7F88446E2
:102200000398825C0298401E029002705CEA010012
:10221000F0D1029806A9081A00F1200A600702D539
:1022200024F4803400E00127574502DDA7EB0A00C3
:1022300000E0002000EB0A01009005984144401A9C
:102240000590E00306D45B462146179A059800F0F6
:10225000B3F90544002706E001A85A46C05D179966
:1022600090476D1C7F1C4745F6DBE0030CD55B46B1
:102270002146179A059800F09FF9054404E03020A4
:102280005A46179990476D1C0099481E00900029E6
:10229000F5DC08E0029802995A460078491C029140
:1022A000179990476D1CBAF10001AAF1010AF1DCFF
:1022B00065E100000928010030313233343536370A
:1022C0003839616263646566000000003031323382
:1022D0003435363738394142434445460000000022
:1022E00000F058F90544761C307800287FF4ECADF6
:1022F00019B02846BDE8F08F620700D4062709F11F
:10230000070222F0070CFCE80223E14603F0004834
:102310005FEA080C02D00FF2702C0DE05FEA045C5B
:1023200002D50FF2682C07E05FEAC47C02D00FF2FE
:10233000602C01E0AFF2700C4FF0FF3823F0004347
:10234000CDF850C065280CD006DC452809D04628B9
:102350001DD047283DD13DE0662818D067287ED1A2
:1023600038E00021112F01DB112000E0781CCDE9BD
:10237000000106A90EA8FFF7DDFCDDE90F010E9AAA
:1023800003910021009207F1010A04914DE04FF002
:1023900000400097CDE9011006A90EA8FFF7CAFC7E
:1023A000DDE90F0203920E9B11990022DDF80CA0CB
:1023B0000093049211B9791C00EB010AB7EB0A00F3
:1023C00004D4C0F1FF3007F1010A0490AAEB070022
:1023D000019044E0012F00DA01270021112F01DDD7
:1023E000112000E03846CDE9000106A90EA8FFF74C
:1023F000A1FCDDE90F010E9A0391002104910092E6
:10240000BA4621070CD40399514500DA8A46BAF13D
:10241000010F05DD009AAAF10101515C302908D0B5
:10242000B84202DA10F1040F06DA0121CDE90110F9
:1024300015E0AAF10101E9E7002805DC049901444F
:102440000491AAEB000102E0411C514500DD8A46DF
:102450000499401A401C01904FF000400290200760
:1024600004D40198504501DBCDF8048000208DF89C
:102470004F0002980DF14F07B0F1004F25D02B20EF
:102480000E9002984FF0020800280CDA40420290A9
:102490002D200E9007E00A210298FDF751FF303100
:1024A000029007F8011DB8F10001A8F10108F2DC63
:1024B00002980028EFD1791E0E980870307800F04D
:1024C000200040F0450007F8020D12A8C01B00F1E3
:1024D00007081498007800B1012000EB0A01019868
:1024E00001EBE07105984144401A401E0590E0035D
:1024F00006D45B462146179A059800F05DF805441E
:102500001498007818B15A46179990476D1CE0034B
:1025100024D55B462146179A059800F04DF80544EE
:102520001CE00498002807DBDDE90301884203DD95
:102530000098405C179901E0179930205A4690475F
:10254000049805F10105401C04900198401E01907B
:1025500004D12E205A46179990476D1CBAF10001FC
:10256000AAF1010ADDDC05E017F8010B5A461799BC
:1025700090476D1CB8F10001A8F10108F4DC5B463E
:102580002146179A0598ABE62D0000002B000000AD
:10259000200000002DE9F041044600251E461746A4
:1025A000880404D405E039462020B0476D1C641E21
:1025B000F9D52846BDE8F0812DE9F0410446002513
:1025C0001E469046C80301D5302700E02027880426
:1025D00004D505E041463846B0476D1C641EF9D568
:1025E0002846BDE8F0814A68002A06D00A68531CD4
:1025F0000B6010704868401E486070472DE9F04F2E
:102600006F49012819D0002865D16E48002591F83E
:1026100003C0B0F90670B0F90860B0F90A90B0F9DB
:102620000C802C462A462B468A4600F12C0B00F1E2
:102630003C0EBCF1000F50D065E062488C78B0F9D8
:102640000030B0F90220B0F90400A4B900EE103A4D
:1026500000EE902A01EE100AB8EEC00AF8EEE00A89
:10266000B8EEC11A641CE4B2042CEFD301240D1D92
:1026700085EC030A8C7000EE103AF8EEC00A9FED6C
:10268000520A60EE801AD1ED010A9FED501A40EE19
:10269000811A00EE902AF8EEE00AC1ED011A91EDE0
:1026A000022A60EE800A42EE010A02EE100A454854
:1026B000B8EEC22AC1ED020A203022EE000A91EDE6
:1026C000032A02EE010A81ED030AC0ED001AC0EDF3
:1026D000010A80ED020ABDE8F08FDFF8E8C00020B3
:1026E0000CF14C0C37494BF820704EF820605C31EF
:1026F0004CF8209041F82080401CC0B20428F1D34F
:1027000001208AF803009AF801104BF821704EF866
:1027100021602C4E4C3606F1100746F8219047F800
:1027200021800020D846F14658F820C0654459F869
:1027300020C0644456F820C0624457F820C0401CB2
:10274000C0B263440428EFD3E81705EB9070801003
:1027500000EE100A1A48E5171030F8EEC00A90EDA6
:10276000020A184804EB957460EE800A1030A41039
:10277000C0ED000A00EE904AD41702EB9472F8EE16
:10278000E00A921060EE800AC0ED010A00EE902A85
:10279000DA1703EB9272F8EEE00A9210491C01F08E
:1027A000030160EE800AC0ED020A00EE902AF8EE06
:1027B000E00A20EE800A80ED030A8AF801108AE719
:1027C00028000020D4050020CDCCCC3E9A99193F9A
:1027D0002DE9F0470026DFF800A135462DED028BEC
:1027E00034464FF47A7937460221D0465046FEF7F8
:1027F0006CF80028F8D04046FEF764F80644022141
:102800004046FEF762F80028F9D04046FEF75AF835
:10281000054402214046FEF758F80028F9D040460A
:10282000FEF750F87F1CBFB2DFF8B0809FED2C8B15
:1028300004444F45D8D3A6F5FA10FDF745FD41EC09
:10284000100BFFF7B5F853EC182B51EC100BFDF7FC
:102850005FFD2AD2A5F5FA10FDF736FD41EC100B0D
:10286000FFF7A6F853EC182B51EC100BFDF750FDB9
:102870001BD2A4F5FA10FDF727FD41EC100BFFF772
:1028800097F853EC182B51EC100BFDF741FD0CD2CF
:102890004FF40061A8F80010A8F80210A8F804107E
:1028A00023462A46314610A010E0484696FBF0F138
:1028B00095FBF9F294FBF9F009B2A8F8001012B2F6
:1028C00003B2A8F80220A8F8043012A0BDEC028BD5
:1028D000BDE8F04700F0E6BB0020014038000020D2
:1028E000000000000088B3400D0A63616C69625FFC
:1028F00063757272656E745F6F6666736574206669
:1029000061696C6564203A20256420256420256473
:10291000000000000D0A63616C69625F637572728A
:10292000656E745F6F666673657420737563636547
:102930007373203A2025642025642025640000005C
:10294000014890EC040A7047E40500202DE9F041AD
:102950009EB000F0E9F8FFF73BFF6D4E00213046D6
:10296000FDF779FF01210520FEF7C8FB4FF48078C1
:1029700001214046FEF7DAFB01218805FEF7BEFB88
:102980000F20169003208DF85C0000248DF85F4026
:1029900016A96048FEF7B2FA0720169016A95E48FD
:1029A000FEF7ACFA4FF470604FF48037CDE91A406F
:1029B000CDE9184718A8FDF759FF012510948DF8A7
:1029C000445004208DF84550129414948DF854000E
:1029D000B06840F40070B06010A93046FDF7F6FF13
:1029E0000623012200213046FEF743F80623022287
:1029F00001213046FEF73DF806230322022130462E
:102A0000FEF737F8062304220D213046FEF731F891
:102A100003213046FEF725F801231A460A213046E5
:102A2000FDF7FAFF012302220B213046FDF7F4FFE8
:102A3000012303220C213046FDF7EEFF39463046D4
:102A4000FDF734FF29053046FDF736FF012240F23D
:102A500007413046FDF7B0FF12208DF83C008DF89D
:102A60003D408DF83E408DF83F500FA8FEF714FB17
:102A70002A4F3846FEF7DEF825480AA94C30CDE942
:102A800000402748CDE902040820CDE90404C00134
:102A90000690400007908000CDE90808000181E819
:102AA00031000D94694638460E94FEF79DF90122D7
:102AB00018213846FEF782F938208DF83C000220B4
:102AC0008DF83D008DF83E408DF83F500FA8FEF781
:102AD000E3FA14493846FEF777F801213046FDF74E
:102AE000DBFE01213046FDF7B6FE42F210701C9469
:102AF0001C99491C1C918142FADB01213846FEF7E2
:102B00008FF83046FDF7EFFF1EB0BDE8F081000002
:102B10000020014000080240000002401064024012
:102B2000400600202000001030B58DB001210420A7
:102B3000FEF7E4FA01210802FEF7F8FA0720032560
:102B40000A908DF82C5000248DF82F400AA92248B5
:102B5000FEF7D4F94FF48030CDE906404FF47060B1
:102B6000CDE9084006A8FDF781FE009401208DF80C
:102B700014508DF80400194D8DF80500029404944A
:102B800069462846FDF722FF062301220A2128462E
:102B9000FDF76FFF062302220B212846FDF769FF90
:102BA000062303220C212846FDF763FF0021284657
:102BB000FDF757FF01212846FDF74DFE42F2107048
:102BC0000C940C99491C0C918142FADB2846FDF7C4
:102BD0008AFF0DB030BD0000000802400020014017
:102BE00010B5054C2078002805D00020FFF706FD21
:102BF00000202070012010BD280000201CB50121FC
:102C00000220FEF77BFA012103208DF80410002238
:102C10008DF806208DF8050000908DF807106946A4
:102C20000148FEF76BF91CBD0004024010B5094CC9
:102C300000212046FEF7BCFB00212046FEF7DEFC0B
:102C400000212046FEF7DCFC2046BDE810400021B4
:102C5000FEF7D8BC000001402DE9F04794B00EA863
:102C6000FEF770FA7B4911987B4D0968B0EB510F64
:102C700000D24000286001210320FEF73FFA012125
:102C80000846FEF753FA4FF4E060022605908DF8EF
:102C9000186003208DF819000024DFF8C0818DF83A
:102CA0001A408DF81B4005A94046FEF727F94FF45E
:102CB00060406B4F059005A93846FEF71FF94FF4A9
:102CC00080598DF81840CDF814908DF81B6005A937
:102CD0003846FEF713F901220C213846FEF75FF95A
:102CE000012208214046FEF75AF9012209214046F7
:102CF000FEF755F901220A214046FEF750F901225C
:102D00000D213846FEF74BF901220E213846FEF719
:102D100046F901220F213846FEF741F9ADF82C4063
:102D20002020ADF82E00296844F62068B1FBF8F0A9
:102D3000401EF701DFF82CA10C90ADF834708DF82F
:102D400036400BA95046FEF75FFC6020ADF800004E
:102D500004200126ADF80400ADF80C40ADF8104099
:102D6000ADF802600294ADF80E40ADF8124069462D
:102D70005046FEF73DFB69465046FEF76FFB69463D
:102D80005046FEF7B5FB08215046FEF761FB0821CF
:102D90005046FEF7A3FB08215046FEF7E7FBF00282
:102DA000ADF81C004010ADF81E00ADF8207028688A
:102DB0002D49ADF82490B0FBF1F0ADF8220070037E
:102DC000ADF826004000ADF8280007A95046FEF7F0
:102DD000D1FA70215046FEF709FC7020ADF80000D2
:102DE000ADF80240ADF804402968ADF80C40B1FBE5
:102DF000F8F033380290ADF81040ADF80E40ADF861
:102E0000124069465046FEF7B7FB08215046FEF7D0
:102E1000E3FB012211465046FEF7E1FA19208DF836
:102E200048008DF849608DF84A408DF84B6012A833
:102E3000FEF732F9012280215046FEF7D0FA012137
:102E40005046FEF7B5FA01215046FEF7A7FA14B036
:102E5000BDE8F08700000020440000200000024090
:102E6000000402400000014080841E0010B50121D2
:102E700090B04805FEF742F94FF0006000901E4800
:102E800001901E4802904020039000204FF4806182
:102E90000490CDE90501079089010890CDE9090169
:102EA0000321CDE90B01164C0D900E90694620468A
:102EB000FDF79AFF1349602008700E20FEF7E0F836
:102EC000012210212046FDF779FF0F4C206858B9E8
:102ED00003220021012001F09DFA206020B100238F
:102EE0001A46194601F01EFB034801228021001FEB
:102EF000FEF7E6FB10B010BD04480040D4010020EE
:102F0000586002400EE400E024000020F0B587B0D5
:102F100001210220FEF7F2F801218804FEF7FAF8F9
:102F200002258DF804504FF480608DF80550002480
:102F30002B4F00908DF8064001268DF807606946FA
:102F40003846FDF7DBFF8DF80450A8028DF80550D8
:102F500000908DF806408DF8076069463846FDF709
:102F6000CDFF07220A213846FEF719F807220B2168
:102F70003846FEF714F84FF4E1300290ADF81040F7
:102F80000C20184DADF80C40ADF81200ADF80E4015
:102F9000ADF8144002A92846FEF7D8FB27208DF88B
:102FA000180005208DF819008DF81A408DF81B6067
:102FB00006A8FEF771F80C49502008702720FEF78C
:102FC0005FF8012240F225512846FEF7A7FBFFF7E4
:102FD0004DFF01212846FEF769FB07B0F0BD000058
:102FE000000402400048004027E400E070B50D46B0
:102FF0000646002404E0305D00F03AF8641CA4B2F8
:10300000AC42F8D370BD000070B505464FF4806047
:103010000C46814200D904461248006818B14FF0AE
:10302000FF3101F029FC224629460F48FDF728F917
:103030000E4D00212846FDF7F3FD2846FDF78CFED6
:103040000128FAD009485838C465074941664FF04D
:10305000C0512846FDF7B8FD2846BDE87040012163
:10306000FDF7DEBD24000020D4010020586002409E
:1030700070B50A4D06464FF6FF7480212846FEF7CC
:1030800027FB38B1002C08D031462846BDE87040F7
:10309000FEF7B6BB641EF0D2F6E770BD00480040F4
:1030A000704700000FB44FF4807110B503AB0E48A9
:1030B000029AFEF7ABFB0022FD2801D9FD2001E0BA
:1030C00000280DDD08490D230B54401C0A230B5426
:1030D000401C00280A5403DD81B20348FFF786FF35
:1030E00010BC5DF814FB0000D40000200FB44FF4B6
:1030F000007110B503AB0E48029AFEF787FB002261
:10310000B0F5FF7F02D340F2FD1001E0002807DD9B
:1031100007490D230B54401C0A230B54401C0A542E
:1031200081B20348FFF770FF10BC5DF814FB00008C
:103130005006002010B500F0DFF9FFF7B1FF00F0F6
:103140004DF800F037F8BDE8104001A0FFF7AABF26
:10315000666F635F6170705F696E697420636F6D25
:10316000706C6574650000000A4910B508684FF678
:10317000FF021040084A10430860FFF73FFDFFF7C9
:10318000C5FEFFF7E3FBFFF767FDBDE8104003A0B6
:10319000FFF788BF0CED00E00000FA05666F635F83
:1031A0006273705F696E697420636F6D706C6574B3
:1031B0006500000008489FED070A80ED000A80EDD9
:1031C000010A80ED020A80ED030A80ED040A80ED19
:1031D000050A7047000000005008002070470000FA
:1031E0002DE9F0432DED068B8DB001F0BDFC7D4D3A
:1031F0002968411A00EE101AB8EE400A9FED7A1ABB
:103200002860C0EE010AF5EEC00AF1EE10FA04D90A
:1032100010EE900A7549884201DDDFED750A754CA4
:1032200094ED050A9FED74AA20EE0A1A9FED732A09
:103230007349C1EE021AB1EE0C1A21EE811A84ED27
:10324000031A84ED040A95ED010A01EE200A85EDCA
:10325000010A01E030EE4A0A10EE100A8842F9DA5B
:1032600085ED010A02E000BF30EE0A0AB5EEC00AA1
:10327000F1EE10FAF8D385ED010A84ED020ADFEDD4
:1032800061AAB7EE000AC4ED00AA84ED010AFEF7B8
:1032900061FCDFED5D0AB4EEE00AF1EE10FA14DD38
:1032A000B5EEC00AF1EE10FA0FDD94ED001A21EE32
:1032B000201AC1EE001AC4ED001A94ED011A61EE55
:1032C000200A80EE801A84ED011A94ED000A0BA901
:1032D0008DED060A94ED010A06A88DED070A94ED1E
:1032E000020A00F0E1F808A90BA800F0BDF89DED76
:1032F000081A9FED460AB6EE008A4FF07E51C1EEE5
:10330000000AF0EE488A9DED091AB0EE489AF0EEF8
:10331000489A40EE888AC1EE000A9DED0A1AF5EE41
:10332000C08A00EE889AC1EE000A40EE889AF1EE5B
:1033300010FA02D2F0EE6A8A05E018EE900A88428E
:1033400001DDF7EE008AB5EEC09AF1EE10FA02D276
:10335000B0EE6A9A05E019EE100A884201DDB7EE78
:10336000009AF5EEC09AF1EE10FA02D2F0EE6A9AE7
:1033700005E019EE900A884201DDF7EE009A244834
:10338000D5ED010A016844F62060B1FBF0F280EE51
:103390008A0AB1FBF0F2B1FBF0F010EE100AFCF774
:1033A000A4FF8046894619EE900AFCF79EFF064668
:1033B0000F4619EE100AFCF798FF04460D4618EE6A
:1033C000900AFCF792FF8DE8F00341EC100B11A07E
:1033D00053EC102BFFF78AFE0DB0BDEC068BBDE859
:1033E000F08300004C00002000007A44CDCCCC3D9E
:1033F00017B7D13850080020DB0FC94000007042D9
:10340000DB0FC94000000000A470FD3F3333534080
:1034100044000020252E34662C252E34662C252EC3
:1034200034662C252E346600014880ED050A70476D
:103430005008002010B5FDF7F7FDFDF701FDFDF781
:10344000C3FDFDF72BFDBDE8104001A0FFF72ABE2C
:10345000666F635F7461736B5F696E697420636F1D
:103460006D706C657465000090ED000A81ED000AD6
:10347000D0ED000ABEEE000AD0ED011A20EE801A4F
:10348000DFED080A01EEA01A81ED011A90ED001A95
:1034900021EE000A90ED011A01EE600A81ED020AA8
:1034A00070470000D7B35D3F70B50D462DED028B20
:1034B000F0EE408A0446FEF785FAF0EE400AB0EEE0
:1034C000680AB0EE608AFEF7CBF9D4ED000A94EDFD
:1034D000011A60EE800A41EE480AC5ED000AD4EDFB
:1034E000000A94ED011A60EE880A41EE000AC5ED6B
:1034F000010ABDEC028B70BD03210148FDF75FBDE1
:1035000000040240FFF730FEFFF714FEFFF792FFC2
:1035100000F082FEFEE700002DE9F0411E4C0F4650
:103520000546E6682068001D00F016FC38B92068E2
:1035300090F82C1001208840216981432161681C8A
:1035400015D1A7B115492268486890602368826840
:10355000DA6022688368121D5A602268121D826038
:10356000206841610868401C0860BDE8F08120685F
:103570003544B5424560216805D2E06BBDE8F041B5
:10358000091D00F06FBCA06B091D00F06BFCA06A68
:103590008542EAD2A562E8E77C0000205C71002049
:1035A0002DE9F041054600F075FC364CA068401C42
:1035B000A0602068344F10B1606940B32DE02560F1
:1035C000A068012829D1002606EB860007EB8000C1
:1035D00000F03AFC761C052EF6D32B48643000F040
:1035E00033FC2948783000F02FFC27488C3000F05D
:1035F0002BFC2548A03000F027FC2348B43000F015
:1036000023FC21486430A0631430E06305E02068A7
:10361000E96AC06A884200D82560606A401C60621E
:103620006864E96A0120226988401043206101EB47
:10363000810007EB80004068A8608168E9608268CB
:10364000291D51608160E86A00EB800007EB800172
:10365000696157F82010491C47F8201000F03AFC27
:10366000606900280CD02068E96AC06A884207D2E5
:1036700006494FF080500860BFF34F8FBFF36F8F44
:10368000BDE8F0817C000020A870002004ED00E07F
:1036900010B500F0FFFB0E4C2068A0B90D4800F0FB
:1036A000D3FB0C48143000F0CFFB0A48E060143024
:1036B000206100220C210A2000F0ACFE206010B135
:1036C00005A100F089FCBDE8104000F003BC00003B
:1036D000BC00002070710020546D72510000000089
:1036E00030B4026C0B46002A0BD0C1681144C16093
:1036F0008468A14201D30168C16030BC1846FCF760
:10370000BFBD30BC70472DE9F041856B17460446BC
:103710000026026C82B1C7B1E068FCF7B1FDE16838
:10372000206C091AE1602268914202D2A168081A4D
:10373000E060022F16D017E02068A8B9A06801F059
:10374000B5FA06460020A0600EE06068FCF798FD20
:10375000216C606808446060A168884204D32068D6
:10376000606001E005B16D1E6D1CA5633046BDE8CB
:10377000F08110B50446006B00F0C0FB2046BDE8A8
:10378000104000F0BBBB00000E484FF4D041420790
:1037900006D0C01D0B4920F00700411AC1F5D041E9
:1037A000094A00230144C2E900030839143A21F010
:1037B000070111604B600B600B1AC0E900139360A6
:1037C000536070476808002068000020144E154CB4
:1037D000A6F1A0074FF08058DFF84C9012E000BF30
:1037E00000F058FBF068C568281D00F0B5FAA06825
:1037F000401EA0606068401E606000F06BFB2846C1
:10380000FFF7B7FF60680028EAD138680128F9D9C6
:10381000C9F80080BFF34F8FBFF36F8FF2E700004E
:10382000487100207C00002004ED00E02DE9F04705
:103830000D46DDE909841746824691009946089EA7
:10384000A522206BFCF72EFD6FF00301206B01EB2E
:103850008701084420F00707780707D0502080F33D
:103860001188BFF34F8FBFF36F8FFEE765B1002064
:103870002218295C82F83410295C11B1401C1028F0
:10388000F6D3002084F84300052E07D3502080F3A0
:103890001188BFF34F8FBFF36F8FFEE7E662201DE5
:1038A000E66400F0DCFA04F1180000F0D8FA2461B4
:1038B000C6F105006462A0614A465146384600F0F0
:1038C00035FA2060B8F1000F01D0C8F80040BDE81B
:1038D000F087000030B5114900E011460A688242C5
:1038E000FBD34B685C18844203D14068184448609D
:1038F000084643681C18944209D1084C143C2468BB
:10390000A24209D052681A4442600A6812680260F2
:10391000814200D0086030BD0460F9E768000020F3
:1039200070B5002441600B4D0061914206D8D11A58
:103930008269914206D2011D286907E09A4203D2AA
:10394000994201D3012403E0011DE86800F08AFADE
:10395000204670BDBC00002010B5044600F09AFA65
:10396000A06B28B15FF0000400F0B4FA204610BD4F
:103970000124F9E770B506460D480D46C068C068D9
:10398000C468201D00F0E8F994F82800410705D527
:103990002A463146204600F0B5F803E000F0FE006C
:1039A00084F828002046216ABDE8704008470000DE
:1039B000BC0000207FB5374E63E00098002860DB34
:1039C000029C606910B1201D00F0C6F903A800F048
:1039D000BBF8054600980A2853D2DFE800F05205EC
:1039E00005282E460505282E94F828002A4640F082
:1039F000010084F828000199A069019B0144204638
:103A0000FFF78EFF40B394F82800410707D50198CF
:103A1000A1692A460144204600F074F803E000F052
:103A2000FE0084F82800216A2046884729E014F81F
:103A3000280F00F0FE00207023E094F8280040F0EA
:103A4000010084F828000198A06130B141192B468B
:103A50001A462046FFF764FF13E0502080F31188D8
:103A6000BFF34F8FBFF36F8FFEE794F828008107F5
:103A700003D4204600F042FA03E000F0FE0084F890
:103A8000280000226946306800F05AFE002894D1D0
:103A90007FBD0000BC000020F8B50D46064600F0D2
:103AA000F3FB684600F050F80446009810B101F0AE
:103AB0001FFAF8BD1148ADB101690968D9B10025F7
:103AC000311B2A46006800F0AFFA01F011FA002815
:103AD000EFD10B494FF080500860BFF34F8FBFF319
:103AE0006F8FF8BDA642EBD801F002FA21463046AE
:103AF000FFF740FFF8BD0125E2E70000BC00002011
:103B000004ED00E070B516460C46054604E0A869D1
:103B1000296A044428468847A86923460119324681
:103B20002846FFF7FDFE0028F1D170BD0548816BE6
:103B3000096821B1816BC9680968816270474FF0DB
:103B4000FF31FAE77C0000202DE9F041064601F044
:103B50000BF80E4C0546A068854214D24FF0FF3793
:103B600004E0C06839460068FFF704FFE0680168B8
:103B70000029F6D12169C4E90310012030602846EC
:103B8000A560BDE8F0810020F8E70000BC0000203F
:103B900008484068401C4FF0500080F3118804D062
:103BA000BFF34F8FBFF36F8FFEE7BFF34F8FBFF3AE
:103BB0006F8FFEE770000020074CE068016841B19C
:103BC000C0680021D0F80000FFF766FFFFF7F2FEA3
:103BD000F3E701210020F7E7BC0000202DE9F041C8
:103BE000044600F057F994F9455004F1240609E021
:103BF000606A48B1304601F00DF908B100F064FA8E
:103C00006D1E6DB2002DF3DC4FF0FF3684F8456079
:103C100000F060F900F03EF994F9445004F1100707
:103C200009E0206948B1384601F0F4F808B100F025
:103C30004BFA6D1E6DB2002DF3DC84F84460BDE8D4
:103C4000F04100F047B9000070B50446002600F0CE
:103C50001BFB2F4D286808B9FFF796FD94B304F0BD
:103C60000700C0F11000C1438C4202D8211800297E
:103C700002DC01F03DF93DE068688142F9D8244852
:103C800014300246146801E02046144662688A42F5
:103C900002D22268002AF7D12A689442E9D0066845
:103CA0002268026060680836421A102A0FD960182C
:103CB000430708D0502080F31188BFF34F8FBFF324
:103CC0006F8FFEE713E042606160FFF703FE6168FB
:103CD0006868401A6860AA68904200D2A86041F003
:103CE0000040606000202060E868401CE86001F04F
:103CF000FFF80EB900F04AF8700707D0502080F3A3
:103D00001188BFF34F8FBFF36F8FFEE7304670BD52
:103D1000540000200449086818B10868026D521C5C
:103D200002650868704700007C00002010B5031F82
:103D30004FF080741C601B1F21F001011960191FD6
:103D4000044B0B6014390A60091F6FF002024438FB
:103D50000A6010BD913B0008D0E9013201699A6008
:103D6000D0E901235A604A68824201D182684A60E0
:103D7000002202610868401E086008687047000061
:103D800001488068704700007C00002001A0FFF718
:103D900089F9FEE74170706C69636174696F6E2028
:103DA0006D616C6C6F63206661696C656400000016
:103DB00001A0FFF777F9FEE70D0A212121205374B6
:103DC00061636B204F766572666C6F7720696E2039
:103DD0002573202121210D0A000000004FF47A7480
:103DE000204600F043F9FBE708B500F0BDFEB2EE57
:103DF000040A0090FFF718FBFFF7F2F9012168466B
:103E000000F05AFEF8E74FF47A74FEF7E9FE08B1C5
:103E1000FEF796FD204600F029F9F6E7094C4FF42D
:103E2000FA756E0003212046FDF7CCF8284600F015
:103E30001DF903212046FDF7C2F8304600F016F9BF
:103E4000F0E700000004024000F108014FF0FF32EB
:103E5000C0E90112C16001610021016070470021C9
:103E60000161704730B50B685A1C02D000F108029E
:103E700002E0026904E02246546825689D42FAD9AE
:103E800053684B6099608A60516008610168491C01
:103E9000016030BD502080F31188BFF34F8FBFF316
:103EA0006F8F0A494868401C486001280CD10848B7
:103EB000006810F0FF0F07D0502080F31188BFF387
:103EC0004F8FBFF36F8FFEE7704700007000002038
:103ED00004ED00E00849486828B1401E486001D15F
:103EE00080F311887047502080F31188BFF34F8F03
:103EF000BFF36F8FFEE700007000002070B5002850
:103F00002AD0A0F108046068002807DB502080F365
:103F10001188BFF34F8FBFF36F8FFEE7216839B170
:103F2000502080F31188BFF34F8FBFF36F8FFEE7F0
:103F300020F00040606000F0A7F9084D60686968F3
:103F4000084468602046FFF7C5FC2869401C2861CA
:103F5000BDE8704000F0CCBF70BD000054000020F0
:103F60004FF0E02000210161816105494FF47A7230
:103F70000968B1FBF2F1491E4161072101617047F7
:103F80000000002010B5FCF765F9114910280ED388
:103F900000F1E02090F8F0030A78904207D2502018
:103FA00080F31188BFF34F8FBFF36F8FFEE709488F
:103FB0000068896800F4E060884207D9502080F3E7
:103FC0001188BFF34F8FBFF36F8FFEE710BD000066
:103FD000700000200CED00E070B5002260B10029F7
:103FE0001ED0104C002300BF04EBC3056E68864250
:103FF0000AD104EBC3020FE0502080F31188BFF315
:104000004F8FBFF36F8FFEE71AB954F8336006B9CC
:104010002A465B1C082BE7D3002A01D0C2E9001016
:1040200070BD00006870002070B515460E4604464D
:10403000FFF730FF94F944100020491C01D184F8A7
:10404000440094F94510491C01D184F84500FFF75C
:1040500041FFA06B28B92A46314604F1240000F044
:1040600051F82046BDE87040FFF7B8BD10B502001A
:1040700014D00F48406B38B1502080F31188BFF343
:104080004F8FBFF36F8FFEE700F0FEF80021104660
:10409000FFF742FA00F02CFF002807D105494FF046
:1040A00080500860BFF34F8FBFF36F8F10BD0000CB
:1040B0007C00002004ED00E002490A6A0260C96841
:1040C000416070477C00002001490120C8617047B1
:1040D0007C00002010B50C4650B109490968183120
:1040E000FFF7C0FE2046BDE810400121FFF714BADB
:1040F000502080F31188BFF34F8FBFF36F8FFEE71F
:104100007C000020F0B40C46D0B1114943680D6822
:10411000EB619D680E6835620D689E6818357560A4
:104120000D6818359D60096888620168491C016046
:104130000AB14FF0FF342046F0BC1146FFF7ECB94E
:10414000502080F31188BFF34F8FBFF36F8FFEE7CE
:104150007C00002070B5040058D0226DA2B1E06C44
:10416000884200D30146E06A88424FD0012A4DD1EF
:10417000274D2A6894420FD1502080F31188BFF355
:104180004F8FBFF36F8FFEE7502080F31188BFF38E
:104190004F8FBFF36F8FFEE7E162A269002A02DB57
:1041A000C1F10501A1611B4E00EB8000616906EBC6
:1041B000800081422AD1201DFFF7CEFD012130B9B8
:1041C00094F82C002A6901FA00F082432A61E06A1F
:1041D0002A6981401143296100EB800006EB8000D1
:1041E0004068A0608168E1608268211D5160816043
:1041F000E06A00EB800006EB80006061E06A00EBA3
:10420000800056F82010491C46F8201070BD0000B0
:104210007C000020A87000207CB517480025CDE95F
:1042200000502B46802215A1164800F017FC124CB6
:104230002C3C012803D100F0F1FE012802D0401CE3
:1042400011D00EE0502080F31188BFF34F8FBFF3E1
:104250006F8F4FF0FF30A06201206061E56000F0D9
:104260005FF8206B7CBD502080F31188BFF34F8F27
:10427000BFF36F8FFEE70000A800002049444C45C3
:1042800000000000CD3700080248416B491C416323
:10429000704700007C00002010B51F4C606B10B10F
:1042A0000120E06110BD0020E06120684FF0A531E1
:1042B000006B02688A4208D142688A4205D182684E
:1042C0008A4202D1C068884204D021682068343113
:1042D000FFF76EFD20691149B0FA80F0C0F11F00B0
:1042E00000EB800051F820206AB101EB800000F162
:1042F0000802416849684160914201D149684160C2
:10430000C868206010BD502080F31188BFF34F8F24
:10431000BFF36F8FFEE700007C000020A870002034
:104320001CB537480168374A914207D1502080F3C5
:104330001188BFF34F8FBFF36F8FFEE700683149DD
:10434000491E884207D1502080F31188BFF34F8F58
:10435000BFF36F8FFEE72C4908780190FF200870AB
:1043600008788DF800009DF800009DF8002000F00E
:10437000F000904207D0502080F31188BFF34F8F98
:10438000BFF36F8FFEE79DF80000204C00F0500057
:1043900020700720A06005E09DF8002052008DF8F5
:1043A0000020401E9DF800201206F5D4A0600328CE
:1043B00007D0502080F31188BFF34F8FBFF36F8F6A
:1043C000FEE74FF44070A060019808700C48203060
:1043D000016841F470010160016841F070410160C1
:1043E000FFF7BEFD00206060FBF7FCFE0848016897
:1043F00041F040410160FBF7E1FE00201CBD0000E0
:1044000000ED00E071C20F4100E400E07000002008
:1044100034EF00E02DE9F04117460E46050020D0AC
:104420004FF0FF30B0FBF5F0B0421AD305FB06F0B9
:1044300010F1510F15D85030FFF706FC04000CD0D6
:1044400004F150005EB12060C4E90F5620460121FE
:1044500000F010F8204684F84C70BDE8F08124602C
:10446000F2E7502080F31188BFF34F8FBFF36F8FB7
:10447000FEE700002DE9F0410F4604004FF0010671
:104480002DD0E06B98B3B51EB5FBF0F1206C8142E6
:104490003ED3FFF7FFFCD4E90F20216802FB001197
:1044A000A1600021A163216861600A46D4E90F017F
:1044B000401E00FB01212046E16000F8445F45708A
:1044C00004F11000A7B1FFF7BFFC04F12400FFF7CF
:1044D000BBFC00BFFFF7FEFC3046BDE8F08150207A
:1044E00080F31188BFF34F8FBFF36F8FFEE70FE0AC
:1044F00021690029EED000F08DFC0028EAD008499F
:104500004FF080500860BFF34F8FBFF36F8FE1E72C
:10451000502080F31188BFF34F8FBFF36F8FFEE7FA
:1045200004ED00E02DE9FF4782B01D468A464FF0BA
:104530000008040003D0BAF1000F08D011E05020A9
:1045400080F31188BFF34F8FBFF36F8FFEE7206CAE
:1045500038B1502080F31188BFF34F8FBFF36F8FB6
:10456000FEE7022D0AD1E06B012807D0502080F32E
:104570001188BFF34F8FBFF36F8FFEE700F0E6FAAD
:104580003F4F4FF000094FF0805648B9049838B1BA
:10459000502080F31188BFF34F8FBFF36F8FFEE77A
:1045A000FFF778FCA06BE16B884207D3022D05D0A2
:1045B0000498D0B1B8F1000F1AD01EE02A46514637
:1045C0002046FFF7A0F8616A19B104F1240000F059
:1045D00021FC20B13E60BFF34F8FBFF36F8FFFF719
:1045E00079FC012006B0BDE8F087FFF773FC22E0FC
:1045F0006846FFF761FD4FF00108FFF76BFCFFF71E
:1046000043FEFFF747FC94F94400401C01D184F8B5
:10461000449094F94500401C01D184F84590FFF77F
:1046200059FC04A9684600F0DBF930B12046FFF7D9
:10463000D5FA00F05DFC0020D4E7FFF72BFCA06B5F
:10464000E16B884213D1FFF745FC04F11000049997
:10465000FFF740FD2046FFF7C1FA00F049FC0028B3
:104660009ED13E60BFF34F8FBFF36F8F98E7FFF788
:1046700031FC2046FFF7B2FA00F03AFC90E7000068
:1046800004ED00E02DE9F0410F46040009D0206C54
:1046900078B1502080F31188BFF34F8FBFF36F8F35
:1046A000FEE7502080F31188BFF34F8FBFF36F8F69
:1046B000FEE7206848B9A06838B1502080F311881F
:1046C000BFF34F8FBFF36F8FFEE7FFF75BFC502008
:1046D000EFF3118680F31188BFF34F8FBFF36F8F15
:1046E000A06BE16B814226D994F94550401CA06330
:1046F000681C0AD0FFF744FB854204D27F2D12D0FC
:104700006D1C84F84550012016E0606A0028FAD03C
:1047100004F1240000F07EFB0028F4D0002FF2D03A
:1047200001203860EFE7502080F31188BFF34F8FEE
:10473000BFF36F8FFEE7002086F31188BDE8F0819C
:104740002DE9F747002683B08A46040003D0BAF16A
:10475000000F08D011E0502080F31188BFF34F8F75
:10476000BFF36F8FFEE7206C38B1502080F31188C3
:10477000BFF34F8FBFF36F8FFEE700F0E7F9DFF86D
:10478000F4804FF000094FF0805748B9059838B1D0
:10479000502080F31188BFF34F8FBFF36F8FFEE778
:1047A000FFF778FBA56BC5B151462046FEF798FF91
:1047B0006D1EA563206950B104F1100000F02AFBC2
:1047C00028B1C8F80070BFF34F8FBFF36F8FFFF7AA
:1047D00081FB012006B0BDE8F087059808B11EB145
:1047E00006E0FFF777FB27E06846FFF765FC012648
:1047F000FFF770FBFFF748FDFFF74CFB94F944000F
:10480000401C01D184F8449094F94500401C01D12A
:1048100084F84590FFF75EFB05A9684600F0E0F8D4
:10482000002820460AD0FFF7D9F900F061FB2046A6
:10483000FFF792F80028B3D00020CBE7FFF78CF801
:1048400090B104F124000599FFF744FC2046FFF7DE
:10485000C5F900F04DFB0028A2D1C8F80070BFF3E5
:104860004F8FBFF36F8F9BE72046FFF7B7F900F03C
:104870003FFB95E704ED00E02DE9F343002683B00C
:104880000400354609D0206C78B1502080F311889F
:10489000BFF34F8FBFF36F8FFEE7502080F3118877
:1048A000BFF34F8FBFF36F8FFEE700F04FF9DFF8D4
:1048B0002C814FF000094FF0805748B9049838B167
:1048C000502080F31188BFF34F8FBFF36F8FFEE747
:1048D000FFF7E0FAA06BC8B1401EA063206810B9D2
:1048E000FFF718FAA060206950B104F1100000F041
:1048F00091FA28B1C8F80070BFF34F8FBFF36F8FE4
:10490000FFF7E8FA012005B0BDE8F083049808B18C
:104910001EB106E0FFF7DEFA5EE06846FFF7CCFB6B
:104920000126FFF7D7FAFFF7AFFCFFF7B3FA94F9C8
:104930004400401C01D184F8449094F94500401C87
:1049400001D184F84590FFF7C5FA04A9684600F044
:1049500047F80028204612D0FFF740F900F0C8FAC7
:104960002046FEF7F9FF0028B2D075B3FFF792FAA0
:10497000606A58B3206B0068C0F1050128E0FEF7BB
:10498000EBFFE0B1206838B9FFF784FAA06800F0C7
:10499000E9F90546FFF79EFA04F124000499FFF7B0
:1049A00099FB2046FFF71AF900F0A2FA00288FD1F0
:1049B000C8F80070BFF34F8FBFF36F8F88E72046B2
:1049C000FFF70CF900F094FA82E705E0FFE7002119
:1049D000A068FFF7BFFB9DE7002094E704ED00E02F
:1049E0002DE9F0410C46050014D0DCB1FFF752FA76
:1049F000194EF2686B682068D11A471C1AD02F68CC
:104A0000D6F820C00026674516D0934214D8012559
:104A100026601BE0502080F31188BFF34F8FBFF357
:104A20006F8FFEE7502080F31188BFF34F8FBFF3E5
:104A30006F8FFEE7002509E0884205D9401A206003
:104A40002846FFF739FBF5E701252660FFF742FA14
:104A50002846BDE8F08100007C0000202DE9FF5FC2
:104A60008346DDE90E87994616468A469000FFF791
:104A7000EBF805001DD05C20FFF7E6F8040015D028
:104A80005C21FBF716FC25630021CDE90241CDE94D
:104A900000874B46324651465846FEF7C7FE204631
:104AA000FEF77EFD012004B0BDE8F09F2846FFF729
:104AB00025FA4FF0FF30F6E770B50E4605004FF0CF
:104AC00000040BD096B11F4A506BB8B1502080F350
:104AD0001188BFF34F8FBFF36F8FFEE7502080F335
:104AE0001188BFF34F8FBFF36F8FFEE7502080F325
:104AF0001188BFF34F8FBFF36F8FFEE7FFF7C4FB43
:104B0000D2682B689919934204D98B420BD99142F0
:104B100002D808E08B42FAD9881A296001240021C2
:104B2000FEF7FAFC00E0296000F0E2F938B9064926
:104B30004FF080500860BFF34F8FBFF36F8F204658
:104B400070BD00007C00002004ED00E005484169D4
:104B500019B1406B18B10020704701207047022046
:104B6000704700007C0000200148C06870470000CA
:104B70007C0000202DE9F0414A4C0026606B28B1F2
:104B8000A069401CA0613046BDE8F081E5686D1C5D
:104B9000E56013D1A06B006838B1502080F3118814
:104BA000BFF34F8FBFF36F8FFEE7A06BE16BA16385
:104BB000E063206A401C2062FEF7B8FFA16A3A4811
:104BC0008D420FD34FF0000EA16B096839B1A16B74
:104BD000C968C9684A68954212D2A26202E04FF0E1
:104BE000FF31A1622168C96A01EB810150F82100FF
:104BF000012800D90126E0690028C4D00126C2E7B7
:104C0000D1E902724B69BA60D1E902277A605F6824
:104C10000A1D974201D1CF685F60C1F814E01F6898
:104C20007F1E1F60D1F828C0BCF1000F15D0D1E95C
:104C300007379F60D1E907377B60DCF8047001F12A
:104C400018039F4202D10B6ACCF80430C1F828E067
:104C5000DCF800305B1ECCF80030CB6A0127D4F8BA
:104C600010C09F4047EA0C07276103EB830300EB6A
:104C700083035B688B609F68CF609F687A609A60EF
:104C8000CA6A02EB820200EB82034B6150F82230C9
:104C90005B1C40F82230C96A2268D26A914293D9DB
:104CA000012691E77C000020A870002070B5040068
:104CB0004FF000014FD0294D2868844207D0502082
:104CC00080F31188BFF34F8FBFF36F8FFEE7206D26
:104CD00038B1401E2065E36CE26A9A423BD040B195
:104CE00039E0502080F31188BFF34F8FBFF36F8FEF
:104CF000FEE7201DFFF730F8012130B994F82C00B1
:104D00002A6901FA00F082432A61E06CE062C0F196
:104D10000500A061E06A2A698140114329611049B8
:104D200000EB800001EB80004068A0608268E260D8
:104D30008368221D5A608260E06A00EB800001EB0C
:104D400080006061E06A00EB800051F82020521C76
:104D500041F820200121084670BD00007C000020A1
:104D6000A870002070B504004FF0000047D0274D18
:104D7000E16A2A68D26A914242D2A069002804DB23
:104D80002868C06AC0F10500A061214E01EB8101D5
:104D9000606906EB810188422DD1201DFEF7DCFF02
:104DA000012130B994F82C002A6901FA00F08243FD
:104DB0002A612868C06AE0622A698140114329613A
:104DC00000EB800006EB80004068A0608168E16035
:104DD0008268211D51608160E06A00EB800006EB73
:104DE00080006061E06A00EB800056F82010491CEA
:104DF00046F8201002E02868C06AE062012070BD19
:104E0000E16C2A68D26A9142F8D370BD7C00002020
:104E1000A870002070B5C068C06850B3D0E90732F0
:104E2000816A9A60D0E907235A604A6800F1180342
:104E30009A4201D1026A4A60002585620A68521EC0
:104E40000A6029494A6B0124DAB1284D6A68C261B7
:104E50009668066296687360936085622A68521C41
:104E60002A60C06A0A68D26A90423AD90120CC61AD
:104E700070BD502080F31188BFF34F8FBFF36F8F49
:104E8000FEE7D0E902634269B360D0E9023673609D
:104E90005668031D9E4201D1C6685660456115687B
:104EA0006D1E1560C26A0E6904FA02F535430D6184
:104EB0000E4D02EB82028C3D05EB8202526882604D
:104EC0009668C660966873609360C26A02EB82025D
:104ED00005EB8203436155F822305B1C45F8223014
:104EE000BFE7002070BD00007C000020347100206E
:104EF0002DE9F041464D00242746686B38B1FEF796
:104F0000C9FF686B401E6863686B40B17AE050204F
:104F100080F31188BFF34F8FBFF36F8FFEE7A86850
:104F20003C4B00264FF00108F0BB6BE0D868C4682A
:104F3000D4E90721A06A9160D4E907125160426860
:104F400004F118018A4201D1216A4160A662016818
:104F5000491E0160D4E9022160699160D4E902121E
:104F600051604268211D8A4201D1E2684260666157
:104F70000268521E0260E26AD5F810C008FA02F018
:104F800040EA0C00286102EB8200224A8C3A02EBD4
:104F900080004068A060D0F808C0C4F80CC0D0F809
:104FA00008C0CCF8041000E012E08160E06A00EB79
:104FB000800002EB8001616152F82010491C42F828
:104FC0002010E06A2968C96A884201D3C5F81C80AC
:104FD00018680028AAD10CB1FEF7A8FDAC693CB155
:104FE000FFF7C8FD08B1C5F81C80641EF8D1AE619A
:104FF000E86938B10849012738070860BFF34F8FC7
:10500000BFF36F8FFEF766FF3846BDE8F081000002
:105010007C0000203471002004ED00E01CB5FEF798
:1050200037FB0C48006860B10A490220091DCDE930
:105030000001C201002308A10948FFF70FFD002865
:1050400007D1502080F31188BFF34F8FBFF36F8FCC
:10505000FEE71CBDBC000020546D72205376630037
:10506000B93B0008000000006E83F9A22915444EE8
:10507000D15727FCC0DD34F5999562DB4190433C64
:10508000AB6351FEA450000800000020D4000000D3
:10509000081D000878510008D4000020C4740000E6
:1050A000181D0008007A030A00000000000000003C
:1050B00001020304060708090000000001020304BE
:1050C00001020304060708090000000000000000B8
:1050D00000000000000000000000000000000000D0
:1050E000000000009999AE3C0000000000000000A4
:1050F00000000000000000000000000000000000B0
:10510000000000000000000000000000000000009F
:105110000000000000000000AAAAAAAA00000000E7
:10512000000000000000000000000000000000007F
:10513000000000000000000000000000000000006F
:10514000000000000000000000000000000000005F
:10515000040000000000000000000000000000004B
:10516000000000000000000000000000000000003F
:08517000000000000000000037
:040000050800018965
:00000001FF
