:020000040800F2
:10000000387900205D020008FF120008A5120008E0
:10001000FD120008830D00086D19000800000000A3
:100020000000000000000000000000009D0100082A
:10003000BD10000800000000F9010008F1140008DC
:1000400077020008770200087702000877020008AC
:10005000770200087702000877020008770200089C
:10006000770200087702000877020008770200088C
:100070007702000877020008850D00087702000863
:1000800077020008770200087D0B0008770200085D
:10009000770200087702000877020008770200085C
:1000A000770200087702000877020008770200084C
:1000B0007915000877020008770200087702000827
:1000C000770200087702000877020008770200082C
:1000D000770200087702000877020008770200081C
:1000E000770200087702000877020008770200080C
:1000F00077020008770200087702000877020008FC
:1001000077020008770200087702000877020008EB
:1001100077020008770200087702000877020008DB
:10012000DD0D00087702000877020008770200085A
:1001300077020008770200087702000877020008BB
:1001400077020008770200087702000877020008AB
:10015000770200087702000877020008770200089B
:10016000770200087702000877020008770200088B
:10017000770200087702000877020008770200087B
:100180007702000877020008DFF80CD000F0C4FB0B
:1001900000480047D9350008387900202C4B1968F1
:1001A0000868B0E8F04F80F30988BFF36F8F4FF015
:1001B000000080F3118870470000000008480068C4
:1001C000006880F308884FF0000080F3148862B65E
:1001D00061B6BFF34F8FBFF36F8F00DF00BF00BF6B
:1001E00008ED00E0DFF80C00016841F470010160E7
:1001F000704700BF88ED00E0EFF30980BFF36F8F19
:10020000134B1A681EF0100F08BF20ED108A20E96A
:10021000F04F106009B44FF0500080F31188BFF325
:100220004F8FBFF36F8F04F0F9F94FF0000080F3A8
:10023000118809BC19680868B0E8F04F1EF0100F6B
:1002400008BFB0EC108A80F30988BFF36F8F704746
:1002500074000020EFF305807047000006488047D7
:1002600006480047FEE7FEE7FEE7FEE7FEE7FEE79B
:10027000FEE7FEE7FEE7FEE71D150008890100081E
:100280005FEA930C26D000BF90ED000AD1ED000A82
:1002900090ED012A91ED011A60EE201A90ED020A0C
:1002A00022EE012AD1ED020A90ED031AC2ED001AE6
:1002B000D1ED031A20EE200A82ED012A61EE210A17
:1002C00082ED020A1030C2ED030A10311032BCF187
:1002D000010CD9D113F0030308BF7047B3F1004FED
:1002E0002CD2002BD8BF7047001F091F121F13F01C
:1002F000010F0AD090ED010AD1ED010A001D091D80
:1003000020EE200A82ED010A121D5B0808BF70472B
:1003100090ED010AD1ED010A20EE200A82ED010ADA
:1003200090ED020AD1ED020A0830083120EE200AD1
:1003300082ED020A08325B1EEAD17047B0EC010A76
:100340005B1EF1EC010A20EE200AA2EC010AF5D1B5
:1003500070470000DFED3C0A20EE200AFDEEC00AE7
:10036000B5EEC00A10EE902AF1EE10FA38BF521E18
:1003700000EE902ADFF8D8C0B0EE084AF8EEE00AA6
:1003800030EE600ADFED310A60EE200ABCEEE00AD2
:1003900010EE102AC2F3080200EE102A02F18003C8
:1003A0000CEB8202B8EE400AC3F308030CEB8303A4
:1003B00030EEC00AD2ED000A93ED002A93ED011A47
:1003C000F1EE601AD2ED010A71EE422AF1EE603AC6
:1003D000DFED200A31EEA31A21EE203AB0EE001A2A
:1003E00041EE213A01EE623A62EE842A43EEE02ABF
:1003F00040EE032A60EE222A41EEA02A00EE222AD5
:1004000081ED002AD3ED001A93ED013AD2ED002AD6
:1004100092ED012A71EE833A01EE213A32EE622A20
:1004200063EEA03A41EE423A22EE042A03EE602A3D
:1004300000EE232A20EE021A01EEA01A40EE012A55
:10044000C0ED002A70470000610B363B00000044FD
:10045000D0510008DB0F493C40EA01039B0703D061
:1004600009E008C9121F08C0042AFAD203E011F8F3
:10047000013B00F8013B521EF9D27047D2B201E0B5
:1004800000F8012B491EFBD270470022F6E710B599
:1004900013460A4604461946FFF7F0FF204610BDF2
:1004A00000F0004230F000400AD0C10D01F560714B
:1004B000C0F3160042EA0151C208400711437047D9
:1004C00000200146704730B50B460146002020222F
:1004D000012409E021FA02F59D4205D303FA02F551
:1004E000491B04FA02F52844151EA2F10102F1DCB1
:1004F00030BD2DE9F05F0546002092469B468846B8
:100500000646814640241BE028464146474622468F
:1005100000F023FA53465A46C01A914110D31146AF
:100520001846224600F00AFA2D1A67EB01084F46DA
:1005300022460120002100F001FA17EB00094E418C
:10054000201EA4F10104DFDC484631462A4643461A
:10055000BDE8F09FF0B400F0004221F0004120F02F
:100560000040CE0DC30DC1F3160141F40001C0F3EC
:1005700016004C42154640F40000761E09E010EBD0
:10058000440002D582F0004240428842F7D8400041
:100590005B1EB342F9DA18B1F0BC002100F008BAD2
:1005A0002846F0BC70472DE9FE4F804681EA0300E3
:1005B000C00F0C46009021F0004123F00045B8EB3D
:1005C0000200A94105D24046214690461C460B46F2
:1005D000024623F00040104347D0270DC7F30A001E
:1005E000C3F30A510290401A019040286BDAC3F31A
:1005F000130040F4801B0098924620B10023D2EBF8
:10060000030A63EB0B0B01985946C0F140025046B8
:1006100000F094F906460D4650465946019A00F0FE
:10062000ACF910EB08006141002487EA115284EA1A
:10063000E7731A4340D0009A62B3019A012A4FEA45
:10064000075215DC001B61EB02014FF0004202EA89
:100650000752CDE90042001C41F5801132462B467D
:1006600000F0E3F903B0BDE8F08F40462146F9E71A
:10067000001B61EB0201001C41F5801300185B4177
:100680002018A2F5001747EB030140EAD570B61910
:100690006D4111E06D084FEA360645EAC0754FEA34
:1006A0000752001B61EB0201001C41F58011490853
:1006B0004FEA30000019514132462B4603B0BDE8E5
:1006C000F04F00F0A3B90098012240000023D0EBC6
:1006D000020263EBE073009821464FEAE074B8EB46
:1006E000000061EB0401E9E783F000435BE781F080
:1006F000004158E72DE9FE4F81EA030404F000446D
:1007000021F0004100944FF0000B23F0004350EA29
:1007100001045ED052EA03045BD0C3F30A54C1F370
:100720000A552C44A4F2F3340194A0FB0254C1F303
:10073000130141F48011C3F3130343F4801301FB4D
:10074000024400FB034E840A970A44EA815447EAB4
:100750008357A4FB076802958D0A05FB07854FEABE
:10076000932C04FB0C542705029D4FEA065847EAD8
:100770001637B5EB08056EEB070C870E920E47EAAD
:10078000811742EA8312A7FB0201B6EB0B0164EB6F
:1007900000042B0D43EA0C335E1844EB1C50DA4680
:1007A0005146E7FB0201C5F313044FEA0B3343EA5A
:1007B00014534FEA0432019C43EA0603A4F10C04EB
:1007C0000294009CCDE900B400F02FF903B0BDE81D
:1007D000F08F00200146F9E72DE9F04D81EA03048E
:1007E00004F0004B21F0004514464FF0000A23F0BE
:1007F000004150EA050220D054EA01021DD0C5F3A1
:100800000A570246C5F31303C1F31300C1F30A5696
:1008100040F4801543F48013A7EB0608101BD6465E
:1008200008F2FD3873EB050002D308F1010801E07E
:1008300092185B41B8F1000F03DA00200146BDE8D1
:10084000F08D00204FF48011064684460EE0171B01
:1008500073EB050705D3121B63EB050306434CEA54
:10086000010C49084FEA300092185B4150EA010739
:10087000EDD152EA030012D082EA040083EA0501B6
:10088000084305D0101BAB4106D20122002306E02D
:1008900000224FF0004302E06FF0010253101AEB08
:1008A00006004CEB085110EB0A0041EB0B01BDE8D0
:1008B000F04D00F0ABB8C1F30A52C1F3130140F29E
:1008C000FF3341F480119A4202DA0020014670475A
:1008D00040F233439A42A2F2334202DC524200F029
:1008E0003CB800F02BB8000030B5041E71F10004D4
:1008F00004DB4FF00044404264EB0101141E73F12D
:10090000000405DB1C464FF00043524263EB040336
:10091000994208BF904230BD064C074D06E0E068A2
:1009200040F0010394E8070098471034AC42F6D336
:10093000FFF72EFCF4590008145A0008202A04DBA3
:10094000203A00FA02F1002070479140C2F12003E2
:1009500020FA03F3194390407047202A04DB203A21
:1009600021FA02F00021704721FA02F3D040C2F1CF
:1009700020029140084319467047202A06DBCB1716
:10098000203A41FA02F043EAE07306E041FA02F34A
:10099000D040C2F120029140084319467047002917
:1009A000A8BF7047401C490008BF20F001007047F5
:1009B00010B4B0FA80FC00FA0CF050EA010404BF55
:1009C00010BC704749B1CCF1200421FA04F411FAAB
:1009D0000CF118BF012121430843A3EB0C01CB1DEF
:1009E0004FEA00614FEA102042BF002010BC704760
:1009F00000EBC35010440029A4BF10BC7047401C3A
:100A0000490008BF20F0010010BC704710B5141E4B
:100A100073F1000408DA401C41F1000192185B41B7
:100A20001A4301D120F0010010BD2DE9F04D92468E
:100A30009B4611B1B1FA81F202E0B0FA80F22032A5
:100A40009046FFF77BFF04460F4640EA0A0041EA62
:100A50000B0153465A46084313D0114653EA01008E
:100A600019D0C8F140025046FFF777FF05460E4601
:100A7000504659464246FFF761FF084305D0012022
:100A800004E020463946BDE8F08D0020054346EAE3
:100A9000E0762C4337430A986305E40AA0EB08008C
:100AA0000022FD0A44EA47540A3002D500200146DC
:100AB000E9E7010510196941DDE9084500196941B7
:100AC000BDE8F04DA2E7C943016070476FEA11210C
:100AD000016070470029816802D041F0010101E006
:100AE00021F0010181607047084B10B5D3F8042351
:100AF00007490A40D0E900142143D0E902400443E9
:100B000021431143C3F8041310BD0000002001402D
:100B1000E030FCFF0029816802D041F4807101E0DF
:100B200021F4807181607047826822F470220A4348
:100B300082607047826822F440120A4382607047E4
:100B40000246002012680A4200D00120704730B5EA
:100B50000246002053680C0A01258D4011682B4085
:100B6000214202D0002B00D0012030BD08B508443E
:100B700028300090006880B208BD000070B52D4C90
:100B800040F2074529462046FFF7E1FF002850D0F4
:100B900029462046FFF79AFF14212046FFF7E6FF7B
:100BA000254D182128802046FFF7E0FF68801C2192
:100BB0002046FFF7DBFF01B22048A980B5F90030DD
:100BC000B0F9002005F12004D21A00EE102AB8EE88
:100BD000C00A84ED000AB0F90220B5F90230D21A39
:100BE00000EE102A22460123B8EEC00A84ED010A65
:100BF000B0F90400401A00EE100A10491046B8EE91
:100C0000C00A091F84ED020AFFF73AFB0B490123D2
:100C1000221D091F201DFFF733FB084904F10802BC
:100C200001231046091FFFF72BFBBDE8704002F0BF
:100C300053BB70BD00200140CC09002030000020D3
:100C400001238B4041680AB1194300E09943416098
:100C50007047000030B542680F4B0C791A400B68A2
:100C600042EA04221343436082680C4B4D791A40D8
:100C7000D1E9034323438C6844EA450423431343E7
:100C80008360C26A097D22F47002491EC9B242EA39
:100C90000151C16230BD0000FFFEFFFCFDF7FFC047
:100CA00070B5072409290AD9C568A1F10A0606EB1F
:100CB0004606B440A543B3401D43C56007E005693F
:100CC00001EB4106B440A543B3401D430561836B6E
:100CD000C3F30154121B921C02EB82041F22A24098
:100CE0009343A1400B43836370BD826B491E22F482
:100CF000401242EA01518163704770B50724092907
:100D00000AD9C568A1F10A0606EB4606B440A54318
:100D1000B3401D43C56007E0056901EB4106B440DF
:100D2000A543B3401D4305611F23072A09D2446B25
:100D3000521E02EB820293409C4391400C43446359
:100D400070BD0D2A09D2046BD21F02EB82029340C0
:100D50009C4391400C43046370BDC46A0D3A02EB9E
:100D6000820293409C4391400C43C46270BD8168F1
:100D700041F0804181607047816841F48001816069
:100D80007047FEE738B50020104D114C0090294601
:100D9000204600F029F968B12946204600F072F893
:100DA0000C48006810B1694603F02EFE0021204671
:100DB00000F07EF80098002807D007494FF08050D7
:100DC0000860BFF34F8FBFF36F8F38BD00800018EE
:100DD000586002402400002004ED00E02DE9F041BD
:100DE000DFF86080184F4146384600F0FDF8174C98
:100DF000174EA4F12C0568B14146384600F042F880
:100E00002088E88060882881A0886881E088A8819F
:100E100001203070DFF83C803846414600F0E4F8AD
:100E200000280DD04146384600F02CF82089E88093
:100E300060892881A0896881E089A88102203070BA
:100E4000BDE8F0811040001010640240F809002055
:100E50002800002020800010074A904201D2074855
:100E600001E005481038064A8B0001EA020101D56D
:100E7000C1607047816070471064024000600240AA
:100E80007D0F7D0F074A904201D2074801E00548D7
:100E90001038064A8B0001EA020101D5C160704793
:100EA0008160704710640240006002407D0F7D0F3A
:100EB0000029016802D041F0010101E021F00101A7
:100EC000016070472DE9F043016821F001010160E4
:100ED0000021016041608160C160016121214161A7
:100EE0003C493C4A3D251039904202D18D60BDE815
:100EF000F083384A4FF474661832904201D18E6004
:100F0000F5E7344A4FF474173032904201D18F60C4
:100F1000EDE7304A4FF0746C4832904202D1C1F88C
:100F200008C0E4E72B4B2C4A6033984201D1CA60D9
:100F3000DDE7284C294B7834A04201D1CB60D6E7BD
:100F4000DFF89080264C08F19008404501D1CC6034
:100F5000CDE7DFF880804FF03D5908F1A808404503
:100F600002D1C1F80C90C2E71E49DFF87880083939
:100F7000404501D10D60BAE71A4D1835A84201D19C
:100F80000E60B4E7174D3035A84201D10F60AEE7CF
:100F9000144D4835A84202D1C1F800C0A7E7114D51
:100FA00010496035091FA84201D10A609FE70D4A28
:100FB0007832904201D10B6099E70A4A9032904210
:100FC00001D10C6093E7074AA83290428FD1C1F853
:100FD00000908CE7106002403D000020400F002090
:100FE00000003D201064024030B5104A00249042B9
:100FF00001D20F4B01E00D4B103B0E4A114205D0C0
:101000001E2202EAD12502682A4002E0406900F06F
:101010008002880001D5586800E01868064B184027
:10102000084201D002B10124204630BD10640240C4
:10103000006002403C0F3C0F7D0F7D0F0B0607D573
:10104000436912B143F0800301E023F08003436160
:10105000802908D0002A026801F01E0101D00A434D
:1010600000E08A430260704730B50368124ACC68DA
:1010700013400A682243D1E905452C432243CC6939
:1010800022430C6A22434C6A22438C6A22434C6BF3
:1010900022438C6B22431A430260426922F0070309
:1010A000D1E90B2422431A4342610A6942604A682B
:1010B00082608968C16030BD3F801CF070470000CD
:1010C0001CB500210120CDE900010B46820207A1D9
:1010D000094803F0D1FD09490128086004D0BDE8A2
:1010E0001C4007A001F0B4BF1CBD00004465627540
:1010F0006750726F630000005941000844000020EF
:101100004465627567207461736B206372656174F6
:1011100065204661696C6564000000001CB5002113
:101120000420CDE900010B46020207A1094803F0A3
:10113000A3FD09490128086004D0BDE81C4007A0B0
:1011400001F086BF1CBD0000464F43436F6E7472B2
:101150006F6C00006541000844000020464F4320AA
:10116000436F6E74726F6C207461736B2063726571
:10117000617465204661696C65640000F0B5002308
:10118000012403270D6804FA03F21540954242D169
:10119000D0F800C05E0007FA06F52CEA050CC0F88E
:1011A00000C091F804C0D0F800E00CFA06FC4CEA4C
:1011B0000E0CC0F800C091F804C0BCF1010F02D0C1
:1011C000BCF1020F1FD1D0F808C02CEA050CC0F802
:1011D00008C091F805C0D0F808E00CFA06FC4CEA0B
:1011E0000E0CC0F808C0D0F804C02CEA020CC0F8FD
:1011F00004C0426891F806C00CFA03FC1FFA8CFC8C
:1012000042EA0C024260C268AA43C260CA79C56859
:10121000B2402A43C2605B1C102BB3D3F0BD4B0716
:10122000DB0E9A40C90810B500EB8100016A0F245B
:101230009C40A1430162016A1143016210BD09048F
:1012400081617047816170471CB500210320CDE9A1
:1012500000010B464FF4806206A1094803F00CFD23
:1012600008490128086004D0BDE81C4006A001F030
:10127000EFBE1CBD47617468657250726F630000F9
:101280003D42000844000020446562756720746197
:10129000736B20637265617465204661696C656477
:1012A00000000000FEE700001CB500210220CDE98F
:1012B00000010B46402207A1084803F0DDFC084965
:1012C0000128086004D0BDE81C4006A001F0C0BEA3
:1012D0001CBD00004C656450726F630065420008DD
:1012E000440000204C4544207461736B2063726598
:1012F000617465204661696C65640000FEE77047B3
:1013000030B50F22C47801780123FCB1144C246855
:1013100001F1E02104F4E064C4F5E064C4F30724BF
:10132000C4F10405E2404478AC408578154025437B
:101330002A0181F80024007800F01F018B40400949
:10134000800000F1E020C0F8003130BD01F01F0046
:1013500083404809800000F1E020C0F8803130BDB2
:101360000CED00E0044A0029116801D0014300E0BF
:10137000814311607047000030380240044A002960
:10138000116801D0014300E0814311607047000003
:1013900040380240044A0029116801D0014300E0AE
:1013A00081431160704700004438024070B5204A04
:1013B0001168204C11F00C0104D06610042903D0F0
:1013C000082903D004601BE0066019E01849091FD2
:1013D0000B68C3F380550B6803F03F0315B1B6FBF0
:1013E000F3F301E0B4FBF3F30C680968C4F3881469
:1013F0006343C1F30141491C4900B3FBF1F10160B2
:1014000011680F2303EA11110B4B5C5C0168E1408A
:1014100041601468072505EA94241C5D21FA04F450
:101420008460126805EA52329A5CD140C16070BD96
:10143000083802400024F400140000200CB50020FD
:101440002749019000900A6842F480320A604FF404
:10145000A0430A6802F400320092019A521C0192E1
:10146000009A12B9019A9A42F3D10A68920334D5CC
:10147000012000901A484030026842F08052026019
:101480001848026842F44042026015480830026879
:101490000260026842F400420260026842F4A05214
:1014A0000260031F104A1A600A6842F080720A60E4
:1014B0000A689201FCD50D4A40F20571116001687D
:1014C00021F003010160016841F00201016001683F
:1014D000C1F381010229FAD10CBD00900CBD0000BE
:1014E000003802400070004008544007003C0240B1
:1014F00010B5502080F31188BFF34F8FBFF36F8F6B
:1015000003F046FC18B104494FF0805008600020F9
:1015100080F3118810BD000004ED00E0124810B502
:10152000016841F4700101601048016841F0010157
:1015300001600E4A00210832116002680C4B1A400B
:101540000260031D0B4A1A60026822F480220260C6
:1015500006480C300160FFF771FF03494FF000604F
:101560008039086010BD000088ED00E000380240BE
:10157000FFFFF6FE1030002410B501218C07204635
:1015800000F021F8002805D02046BDE810400121D8
:1015900000F001B810BDC9430182704700290188DD
:1015A00002D041F0010101E021F00101018070470A
:1015B000002930F8441F02D041F4004101E0C1F39A
:1015C0000E010180704702460020138A92890B4267
:1015D00002EA010202D0002A00D001207047002A4E
:1015E000828901D00A4300E08A438281704700006B
:1015F00030B5028C22F001020284028C8388048BB5
:1016000022F0020224F073050C882C438D891543C7
:101610004A882A430C4DA84202D00C4DA8420DD155
:1016200022F00805CA8923F440732A4322F00405F6
:101630008A882A430D8A1D434B8A2B438380048367
:1016400089684163028430BD00000140000401400C
:10165000028B22F008020A430283704770B5028CA5
:1016600022F010020284028C8488038B0D8823F4FC
:10167000E6464FF6FF7303EA052535438E8922F0CF
:10168000200203EA061616434A8803EA021232438E
:10169000104EB04202D0104EB04215D122F080065A
:1016A000CA8924F4406403EA0212324322F040065D
:1016B0008A8803EA021232430E8A03EA8606264328
:1016C0004C8A03EA840434438480058389688163F7
:1016D000028470BD0000014000040140028B4FF6FF
:1016E000FF7322F4006203EA012111430183704772
:1016F00070B5028C22F480720284028C8488838B01
:101700000D8823F073031D4322F400738E894FF676
:10171000FF7202EA06261E434B8802EA0323334384
:10172000104EB04202D0104EB04215D123F40066E4
:10173000CB8924F4405402EA0323334323F4806624
:101740008B8802EA032333430E8A02EA06162643F5
:101750004C8A02EA04143443848085838968C16317
:10176000038470BD0000014000040140828B22F020
:1017700008020A438283704770B5028C22F48052BB
:101780000284048C8288838B0D8823F4E6464FF60E
:10179000FF7303EA0525354324F400568C8903EAD8
:1017A000043434434E8803EA06362643084CA042EC
:1017B00002D0084CA04205D122F480440A8A03EAF0
:1017C000821222438280858389680164068470BD09
:1017D0000000014000040140828B4FF6FF7322F4A9
:1017E000006203EA0121114381837047828822F05D
:1017F0007002828082880A4382807047416370470A
:1018000081637047C163704730B50288164B174C2F
:1018100098420DD0A0420BD0B0F1804F08D0144DAB
:10182000A84205D0134DA84202D0134DA84203D1BF
:1018300022F070054A882A43104DA84206D0104D68
:10184000A84203D022F440750A892A4302804A68DC
:10185000C2620A880285984201D0A04201D1897AE9
:1018600001860121818230BD000001400004014059
:101870000004004000080040000C00400010004040
:10188000001400400029818902D041F4005101E098
:1018900021F4005181817047002A828A01D00A43D5
:1018A00000E08A43828270470246002012880A4282
:1018B00000D00120704700007FB50446008A0D4625
:1018C00020F44051E88808432082A08941F20C614D
:1018D0008843A9882A8911436A8902431143A18157
:1018E000A08A20F44071A8890843A0826846FFF7C7
:1018F0005DFD1A48844202D01948844201D1039800
:1019000000E00298A189090400EBC00101EB00107E
:10191000296801D5490000E08900B0FBF1F264209C
:10192000B2FBF0F109010B096FF018056B4302EBF4
:101930008302A3891D044FF0320306D503EBC202D4
:10194000B2FBF0F000F0070005E003EB0212B2FB7F
:10195000F0F000F00F00084320817FBD001001402F
:1019600000140140C1F3080181807047FEE70000C8
:101970007CB5044600201D46164600290BD0491EA2
:10198000CDE90041044B6A462946304600F0E2FAB0
:10199000009A002111707CBD8326000841000802D6
:1019A00018BF04200A0E18BF40F001004FF07F421C
:1019B00032EA010108BF40F00200012808BF0520FB
:1019C000704710B52DED028BF0EE408A18EE900AAC
:1019D000B0EE608A20F00040C0F1FF40C00F07D198
:1019E00018EE100A20F00040C0F1FF40C00F2BD0CD
:1019F00018EE101A18EE900AFEF7ACFD00EE100A71
:101A000010EE100A6FEAD05010F0FF0F04BFBDECCB
:101A1000028B10BD18EE900A00F0004110EE100A83
:101A200000F00040814204BFBDEC028B10BD18EEF7
:101A3000101A10EE100ABDEC028B61F31E0000EECE
:101A4000900A30EE600A10BD18EE900A4FF07F4108
:101A5000B1EB400F1CBF18EE100A5FEA4000C7D17F
:101A6000012000F0AFF9BDEC028BBDE8104000F0A2
:101A7000DFB810B52DED028BB1EEC08A18EE100A5A
:101A800020F00040C0F1FF40C00F0AD010EE100A55
:101A900020F00040C0F1FF40C00F04BF012000F063
:101AA00091F9B0EE480ABDEC028B10BD00B510EE06
:101AB000101A2DED028B81B04D4A6846B2EB410FF2
:101AC0003CD94FF0E640B0EB410F94BF00204FF0FF
:101AD000FF3000900098B0EE408A00285FDB28EECF
:101AE000080ADFED440A9FED441A00EE201ADFEDEC
:101AF000430A40EE010A9FED421A00EE201ADFED84
:101B0000410A10F0010F40EE010A9FED3F1A00EE6E
:101B1000201A61EE000AB0EE480A08EE200A02BF61
:101B200001B0BDEC028B00BDBFEE001A01B0C1EEEA
:101B3000000ABDEC028BB0EE600A00BD334B21F011
:101B40000042934228D911F0004FDFED310A20EE18
:101B5000201ADFED300A19BF31EE601A71EE200A4B
:101B600031EE201A71EE600ABDEEE01A11EE100A95
:101B70009FED291A00F0030000EEC10A9FED271A1D
:101B8000009000EEC10A9FED261A00EEC10A9FEDFB
:101B9000251A00EEC10A9DE700F05AF89AE718EE00
:101BA000100A4000B0F17F4F0DD218EE100AFFF777
:101BB000F5FE042808BF00F043F8B0EE480A01B073
:101BC000BDEC028B00BD09D1012000F0FBF801B093
:101BD000BDEC028B5DF804EB00F02AB801B0B0EE6A
:101BE000480ABDEC028B5DF804EB00F01DB8000064
:101BF000B61F927EBBE9223C0C6D063B8A76CE3C3A
:101C0000ACB5593D35A1083E29AAAA3E490E494620
:101C100083F9223F0000004B0000C93F00A0FD39BE
:101C20000020A2331A61342C30EE000A7047000005
:101C3000DFED020A80EEA00A7047000000000000FD
:101C40009FED020A20EE000A70470000000000101D
:101C50002DE9F0014FF07F42B2EB410F9FBF4FF0F3
:101C6000FF310160BDE8F00170474FF0004242EAE9
:101C70000123C1F3C752783A551112F01F0C434C9F
:101C8000CCF120067C44C1F3C752A2F178024FEA9E
:101C9000621204EB820254F8254008BFD2E90156D3
:101CA00012D0556804FA0CF425FA06F73C439768FD
:101CB00005FA0CF527FA06F8D26807FA0CFCF24090
:101CC00045EA08054CEA0206A4FB034CA5FB0352B7
:101CD000A6FB03631D449D4234BF01260026131951
:101CE000334416B1934202D903E0934201D2012258
:101CF00000E00022624402F1200C9206DC0C42EA71
:101D0000443200EE102A5B03DFED210AF8EEC01A20
:101D100000EE103A4FEA9C1C11F0004FB8EE400A5A
:101D2000C0F800C020EE201A00EE105ADFED190AAC
:101D3000B8EE400A20EE200A71EE810A70EE800AA9
:101D400010EE902A02F500626FF30B0200EE902A6B
:101D500070EEE11A31EEC11ADFED101A30EE411AC1
:101D60009FED0D0A20EE800A01EE210A9FED0C1A6C
:101D700000EE810A04BFBDE8F0017047CCF180514C
:101D80000160BDE8F001B1EE400A70474C3D000033
:101D9000000000360000802C22AAFD29DB0FC92F8D
:101DA0000000C92F02E008C8121F08C1002AFAD19A
:101DB00070477047002001E001C1121F002AFBD1CB
:101DC000704700000149086070470000C80000200B
:101DD0002DE9FF5F82B00021DDE90430020DDDF85E
:101DE00040B0034318D044F61050A2F2FF324243F1
:101DF0001514119801281FD0A5EB0B00401C5FEAB9
:101E0000000A4FF000064E4FDFF83891B0465046BA
:101E100015D5CAF1000413E0119801244AA3012842
:101E200001D16FEA0B010298119AC0E90031C0E9B3
:101E3000024206B0BDE8F09FCBF10000DFE70446A8
:101E40000021404A491842EB0450CDE9001012E04D
:101E5000E00707D032463B4640464946FEF74AFC7B
:101E60008046894632463B4610461946FEF742FCFC
:101E700006460F466410002CEAD1DDE90401DDE9D5
:101E80000023BAF1000F06DAFEF734FC42464B4657
:101E9000FEF730FC05E0FEF79FFC42464B46FEF79E
:101EA0009BFC04460E460022284BFEF71DFD03D87E
:101EB0004FF0FF30014607E00022254B2046314617
:101EC000FEF771FBFEF7F7FC102409E0002C0ADB9B
:101ED0000A220023FEF70DFB039B30321A55641EC5
:101EE00050EA0102F2D1641C039AC4F111031444B4
:101EF000119A012A03D0012208430DD10AE00843B8
:101F000004D000204FF0110B119072E7A3EB0B05EA
:101F10006D1E0DE05B4504DD4FF0000205F101058B
:101F200004E003DA4FF00002A5F10105002AECD02D
:101F300002981199C0E90231C0E9004579E7000033
:101F4000000014400000F03F300000000000F043AB
:101F50000000E03F2DE9FF4F95B09B4689460646BD
:101F600000250FE2252877D100242746F84A0121D1
:101F7000059400E0044316F8013F203B01FA03F00A
:101F80001042F7D130782A2811D06FF02F03307823
:101F9000A0F13002092A16D8059A44F0020402EB97
:101FA000820203EB42021044761C0590EFE759F8D9
:101FB000042B0592002A03DA504244F400540590A1
:101FC00044F00204761C30782E2816D116F8010F42
:101FD00044F004042A280DD06FF02F023078A0F1CD
:101FE0003003092B09D807EB870302EB4303C7181B
:101FF000761CF3E759F8047B761C30786C280FD0F8
:1020000006DC4C2817D068280DD06A2814D104E0CB
:10201000742810D07A280FD10DE044F400140AE09F
:1020200044F4801401E044F440147278824202D1F6
:1020300004F58014761C761C307866280BD013DCEF
:10204000582877D009DC002875D04528F6D04628D6
:10205000F4D047281AD19DE118E0632835D06428D0
:1020600079D0652812D195E1702873D008DC6728F3
:10207000F1D069286FD06E280DD06F2806D1B5E059
:1020800073282CD0752875D0782874D05A461799A3
:1020900090476D1C75E1C4F30250022809D0032853
:1020A0000DD0D9F8001004280DD00D6009F10409F5
:1020B00067E1D9F80010EA17C1E90052F6E7D9F84C
:1020C00000100D80F2E70D70F0E719F8041B8DF891
:1020D000001000208DF80100EA46012003E059F8C5
:1020E00004AB4FF0FF3061074FF0000102D40DE068
:1020F00008F101018846B9420FDA8045F8DB1AF889
:1021000008100029F4D108E008F101018846814255
:10211000FADB1AF808100029F6D105985B46A0EB07
:10212000080721463846179A00F094FA284400EB35
:10213000080507E04DE029E10DE01AF8010B5A46C9
:1021400017999047B8F10108F7D25B462146384607
:10215000179A13E142E00A220092C4F302524FF0B0
:10216000000A022A08D059F804CB032A4FEAEC717E
:102170000AD00DE029E02AE009F1070121F0070269
:10218000F2E802C1914609E00FFA8CFC4FEAEC71CB
:10219000042A03D14FFA8CFC4FEAEC71002907DACC
:1021A0000A460021DCF1000C61EB02012D2202E065
:1021B000220504D52B228DF80420012203E0E2073A
:1021C00001D02022F7E7904659E00A2102E01022D0
:1021D0000DE010214FF0000A00910BE010224FF0AB
:1021E000000A44F004040827009203E008224FF09C
:1021F000000A0092C4F30252022A05D059F804CB17
:102200000021032A08D009E009F1070121F00702A3
:10221000F2E802C1914605E01FFA8CFC042A01D1C4
:102220000CF0FF0C4FF00008220728D5702806D0CC
:10223000009B83F0100353EA0A0305D00EE040220E
:102240008DF80420012208E05CEA010206D0302269
:102250008DF804208DF8050002229046009B83F043
:10226000080353EA0A030AD15CEA010201D16207BA
:1022700005D530228DF804204FF001087F1E582824
:1022800004D034A003900EA802900DE036A0F9E728
:1022900053466046009AFEF72CF984460398825C08
:1022A0000298401E029002705CEA0100F0D1029890
:1022B00006A9081A00F1200A600702D524F4803428
:1022C00000E00127574502DDA7EB0A0000E00020EF
:1022D00000EB0A01009005984144401A0590E00384
:1022E00006D45B462146179A059800F0B3F90544D9
:1022F000002706E001A85A46C05D179990476D1C5B
:102300007F1C4745F6DBE0030CD55B462146179A58
:10231000059800F09FF9054404E030205A461799CB
:1023200090476D1C0099481E00900029F5DC08E0DC
:10233000029802995A460078491C029117999047D1
:102340006D1CBAF10001AAF1010AF1DC65E100009F
:10235000092801003031323334353637383961627B
:10236000636465660000000030313233343536373F
:1023700038394142434445460000000000F058F916
:102380000544761C307800287FF4ECAD19B028465F
:10239000BDE8F08F620700D4062709F1070222F09A
:1023A000070CFCE80223E14603F000485FEA080C52
:1023B00002D00FF2702C0DE05FEA045C02D50FF240
:1023C000682C07E05FEAC47C02D00FF2602C01E0C9
:1023D000AFF2700C4FF0FF3823F00043CDF850C03F
:1023E00065280CD006DC452809D046281DD0472892
:1023F0003DD13DE0662818D067287ED138E0002125
:10240000112F01DB112000E0781CCDE9000106A9A5
:102410000EA8FFF7DDFCDDE90F010E9A0391002104
:10242000009207F1010A04914DE04FF0004000973F
:10243000CDE9011006A90EA8FFF7CAFCDDE90F02DD
:1024400003920E9B11990022DDF80CA000930492D8
:1024500011B9791C00EB010AB7EB0A0004D4C0F1F2
:10246000FF3007F1010A0490AAEB0700019044E055
:10247000012F00DA01270021112F01DD112000E0DA
:102480003846CDE9000106A90EA8FFF7A1FCDDE959
:102490000F010E9A0391002104910092BA46210780
:1024A0000CD40399514500DA8A46BAF1010F05DDD3
:1024B000009AAAF10101515C302908D0B84202DA31
:1024C00010F1040F06DA0121CDE9011015E0AAF19F
:1024D0000101E9E7002805DC049901440491AAEB15
:1024E000000102E0411C514500DD8A460499401A72
:1024F000401C01904FF000400290200704D4019846
:10250000504501DBCDF8048000208DF84F00029883
:102510000DF14F07B0F1004F25D02B200E900298FF
:102520004FF0020800280CDA404202902D200E9055
:1025300007E00A210298FDF7C6FF3031029007F844
:10254000011DB8F10001A8F10108F2DC0298002891
:10255000EFD1791E0E980870307800F0200040F01E
:10256000450007F8020D12A8C01B00F107081498D7
:10257000007800B1012000EB0A01019801EBE07145
:1025800005984144401A401E0590E00306D45B467E
:102590002146179A059800F05DF8054414980078D4
:1025A00018B15A46179990476D1CE00324D55B4635
:1025B0002146179A059800F04DF805441CE0049850
:1025C000002807DBDDE90301884203DD0098405C59
:1025D000179901E0179930205A469047049805F161
:1025E0000105401C04900198401E019004D12E204A
:1025F0005A46179990476D1CBAF10001AAF1010AD9
:10260000DDDC05E017F8010B5A46179990476D1C61
:10261000B8F10001A8F10108F4DC5B462146179AE5
:102620000598ABE62D0000002B0000002000000004
:102630002DE9F041044600251E461746880404D4BF
:1026400005E039462020B0476D1C641EF9D52846A8
:10265000BDE8F0812DE9F041044600251E46904674
:10266000C80301D5302700E02027880404D505E001
:1026700041463846B0476D1C641EF9D52846BDE872
:10268000F0814A68002A06D00A68531C0B6010705B
:102690004868401E4860704710B52DED028B9FEDD5
:1026A000088AF0EE480AFFF78CF9B5EEC00AF1EEA1
:1026B00010FA01D230EE080ABDEC028B10BD00000A
:1026C000DB0FC940DFED090A02E000BF30EE200A4F
:1026D000B5EEC00AF1EE10FAF8D3054910EE100A73
:1026E000884202DB30EE600AF8E770470000B4432E
:1026F0000000B443DFED090A094901E030EE200A89
:1027000010EE100A8842F9D8064900BF10EE100AF0
:10271000884202DB30EE600AF8E77047DB0FC94001
:10272000DB0F49C0DB0F494020EE212A00EE812A51
:1027300060EEA10A40EE410A80ED002AC1ED000AD8
:10274000704700002DE9F84F00273E463D464FF404
:102750007A7900F0F9F92D480090411E009101D3DB
:102760000846FAE7DFF8A88040F2074A00225146FF
:1027700044464046FEF764FAA06820F44010A0608A
:1027800000244046FEF7F8FA04214046FEF7D8F947
:102790000028F9D004214046FEF795F9142140465F
:1027A000FEF7E4F9074418214046FEF7DFF9064436
:1027B0001C214046FEF7DAF9641C05444C45E0D381
:1027C0004846B7FBF0F1B6FBF9F2B5FBF9F0114C56
:1027D00089B292B2218083B26280A3800EA000F001
:1027E00037FC4FF4803144464046FEF79DF94FF4E4
:1027F00080112046FEF79EF9012251462046FEF741
:102800001FFABDE8F84F00F091B90000404B4C00B2
:10281000002001403000002025642C2025642C205D
:1028200025640000014890EC040A7047DC09002090
:102830002DE9F0419EB001210520FEF793FD4FF4F4
:10284000807801214046FEF7A5FD01218805FEF7AD
:1028500089FD0F20169003208DF85C0000248DF870
:102860005F4016A96148FEF789FC0720169016A95B
:102870005F48FEF783FC4FF470604FF48037CDE97A
:102880001A40CDE9184718A8FEF72EF901258DF852
:1028900040500F948DF8414028071394CDE911075B
:1028A000544E04208DF85000B06840F40070B060C1
:1028B0000FA93046FEF7CEF903230122002130464E
:1028C000FEF71BFA0323022201213046FEF715FA18
:1028D00003231A4602213046FEF70FFA032304228F
:1028E0000D213046FEF709FA03213046FEF7FDF9C7
:1028F000022301220A213046FEF7D2F902231A46AA
:102900000B213046FEF7CCF9022303220C2130467E
:10291000FEF7C6F939463046FEF706F92905304676
:10292000FEF708F9012240F207413046FEF788F928
:1029300012208DF854008DF855508DF856408DF8C2
:10294000575015A8FEF7DCFC2B4F3846FEF7BAFAB5
:1029500028480AA94C30CDE900402848CDE90204B6
:102960000820CDE90404C0010690400007908000D3
:10297000CDE90808000181E831000D946946384628
:102980000E94FEF771FB012218213846FEF756FB24
:1029900038208DF8540002208DF855008DF85640EF
:1029A0008DF8575015A8FEF7ABFC15493846FEF7D1
:1029B00053FA01213046FEF7ADF801213046FEF70B
:1029C00089F84FF47A711C941C98401C1C90884222
:1029D000FADB01213846FEF76BFA3046FEF7C7F9FD
:1029E000FFF7B0FE1EB0BDE8F08100000008024015
:1029F000000002400020014010640240F80900205D
:102A0000200000107FB5244C2078002841D02348B6
:102A1000224A0123B0F90610103200EE101AB8EE67
:102A2000C00A8DED000AB0F9081000EE101AB8EED9
:102A3000C00A8DED010AB0F90A1000EE101A04F177
:102A400018010D46B8EEC00A8DED020AB0F90C006F
:102A500000EE100A6846B8EEC00A8DED030AFDF7D5
:102A60000FFC0E4A01231432294601A8FDF708FC89
:102A70000A4A01231832294602A8FDF701FC074A39
:102A800001231C32294603A8FDF7FAFB0020207021
:102A9000012004B070BD000028000020CC090020F7
:102AA0001CB501210220FEF75DFC012103208DF8F9
:102AB000041000228DF806208DF8050000908DF896
:102AC000071069460148FEF759FB1CBD000402408F
:102AD0001CB501210420FEF745FC4FF4E070009086
:102AE00000208DF804008DF8060003208DF8050005
:102AF00001208DF8070069460148FEF73FFB1CBD29
:102B00000008024070B50C46074D0146164628469F
:102B1000FEF774FE21462846FEF772FE314628462F
:102B2000BDE87040FEF76EBE0000014010B5054CD8
:102B300001212046FEF732FD2046BDE8104001216C
:102B4000FEF736BD0000014010B5054C00212046BF
:102B5000FEF724FD2046BDE810400021FEF728BD09
:102B60000000014070B58EB00AA8FEF71FFC0121DD
:102B70000320FEF7F7FB01210846FEF70BFC4FF49C
:102B8000E060059002208DF8180003208DF81900F0
:102B90000024494D8DF81A408DF81B4005A92846A0
:102BA000FEF7ECFA4FF46040444E059005A930461C
:102BB000FEF7E4FA012208212846FEF730FB012245
:102BC00009212846FEF72BFB01220A212846FEF7A1
:102BD00026FB01220D213046FEF721FB01220E21AA
:102BE0003046FEF71CFB01220F213046FEF717FB93
:102BF000ADF81C402020ADF81E0041F2670008909F
:102C0000A815ADF824002E4D8DF8264007A92846BA
:102C1000FEF7FAFD6020ADF800000120ADF80200DB
:102C20000420ADF80400ADF80C40ADF8104002945B
:102C3000ADF80E40ADF8124069462846FEF7D8FCC4
:102C400069462846FEF70AFD69462846FEF750FD0C
:102C500008212846FEF7FCFC08212846FEF73EFD29
:102C600008212846FEF782FD70212846FEF7BEFDAA
:102C70007020ADF8000041F253000290ADF80C4016
:102C8000ADF81040ADF80240ADF80440ADF80E408C
:102C9000ADF8124069462846FEF76EFD0821284629
:102CA000FEF79AFD01212846FEF782FC0121284605
:102CB000FEF774FC0EB070BD00000240000402403C
:102CC000000001407FB501210846FEF757FB532065
:102CD000ADF8000040F2E730002401904FF080454D
:102CE000ADF80240ADF8084069462846FEF78CFD75
:102CF00001212846FEF74FFC012211462846FEF727
:102D00006EFC1C208DF80C0002208DF80D008DF853
:102D10000E4001208DF80F0003A8FEF7F1FA012103
:102D20002846FEF73BFC7FBD10B5012190B0480559
:102D3000FEF718FB4FF0006000901F4801901F48FD
:102D400002904020039000204FF480610490CDE970
:102D5000050107900890099003210A90CDE90B0125
:102D6000174C0D900E9069462046FEF77DF91549E7
:102D7000802008704FF0E021C001C1F8000101225D
:102D800010212046FEF75AF90F4C206858B903224B
:102D90000021012001F000FD206020B100231A462F
:102DA000194601F081FD044801228021001FFEF731
:102DB00073FD10B010BD000004480040CC0100209D
:102DC000586002400EE400E024000020F0B587B017
:102DD00001210220FEF7C6FA01218804FEF7CEFA8F
:102DE00002258DF804504FF480608DF805500024C2
:102DF000234F00908DF8064001268DF80760694644
:102E00003846FEF7BBF9A8028DF8045000908DF803
:102E100005508DF8076069463846FEF7AFF907227E
:102E20000A213846FEF7FBF907220B213846FEF748
:102E3000F6F914480290ADF810400C20124DADF890
:102E40000C40ADF81200ADF80E40ADF8144002A9E8
:102E50002846FEF731FD27208DF8180005208DF853
:102E600019008DF81A408DF81B6006A8FEF748FA85
:102E7000FFF75AFF01212846FEF704FD07B0F0BD19
:102E80000004024080841E000048004070B50D46DA
:102E90000646002404E0305D00F006F8641CA4B28D
:102EA000AC42F8D370BD000070B50A4D06464FF62F
:102EB000FF7480212846FEF7F7FC38B1002C08D0BB
:102EC00031462846BDE87040FEF74CBD641EF0D286
:102ED000F6E770BD00480040F0EE400A90ED010AB0
:102EE00090ED051AD0ED001A90ED062A20EE010AA9
:102EF000D0ED082A01EEA00AD0ED021A01EE820AF6
:102F000090ED032AD0ED071A02EE610A90ED042A33
:102F100080ED061AC0ED050AC0ED081A02EE620A3D
:102F200080ED070A7047000010B59FED2E1A044689
:102F30002DED048BF0EE008A80ED090A20EE010AE7
:102F4000B7EE001AC0ED0A0A81EE208AF6EE000AFA
:102F500088EE889A20EE080A20EE200AFEF7A6FDE9
:102F600029EE000ADFED200A20EE802AF1EE000AA9
:102F700020EE001AB0EE600A42EE480A02EE080A9D
:102F800061EE081A21EE281A21EE883A01EE880A2D
:102F900021EE081A41EE880AC3EE002A21EE083A13
:102FA000C3EE003AC4ED002AC4ED013AC4ED022A92
:102FB000F2EE002A51EE082A82EE801A84ED031AFE
:102FC00080EE801A9FED090A84ED041A84ED060A4A
:102FD00084ED050A84ED080A84ED070ABDEC048B34
:102FE00010BD0000DB0FC940F304354000000000B5
:102FF00070B515462DED028B0446DFED138A9FED6B
:10300000138AB0EE080AFEF734FDB7EE001AC1EEDF
:10301000000A94ED000A94ED011A20EE280A01EE50
:10302000480A94ED021A01EE480A85ED020A94ED71
:10303000010A94ED021A20EE200A00EEC10A85ED85
:10304000030ABDEC028B70BDABAA2A3FABAAAA3E15
:103050000FB44FF4807110B503AB0E48029AFEF71F
:1030600087FC0022FD2801D9FD2001E000280DDDAC
:1030700008490D230B54401C0A230B54401C002804
:103080000A5403DD81B20348FFF700FF10BC5DF86E
:1030900014FB0000CC000020DFED060AB7EE000AAA
:1030A000C0ED000AC0ED010A80ED020AC0ED030A7E
:1030B000704700000000000070B5564D04462DED2D
:1030C000068BF0EE428AB0EE619AF0EE419A2878D3
:1030D000B0EE608AB0EE40AA40B9DFED4F0AB2EE22
:1030E000040A4E48FFF720FF012028709FED4C0A8C
:1030F000D4ED002A09EEC0AA09EE408AF0EE620A79
:103100009FED480A49EEC02AC4ED052A94ED011A44
:10311000B0EE412A9FED440A09EE401A22EEA20ABF
:1031200084ED061A01EE010ADFED401A434931EE43
:10313000C00ADFED3F1A20EE210A00EE22AA00EEBF
:10314000018A9FED3C0A48EE8A0A08EE882AC4EDFF
:10315000000A84ED012A61EE000A94ED021A22EEC3
:10316000800A61EE200A94ED031A40EE410A9FEDB9
:10317000321A94ED090A20EE811A01EE280A10EEA7
:10318000100A84ED090A884203DD9FED2D0A84EDC3
:10319000090A10EE100A2B49884203D99FED2A0A2A
:1031A00084ED090AB0EE408A9FED280A1B4800EE24
:1031B000808AB0EE480AFFF78FFE84ED040A94ED92
:1031C000070A08EE280A84ED070AFFF793FA84ED50
:1031D000070AD4ED040AF5EEC00AF1EE10FA02DD9A
:1031E000DFED1B0A01E0DFED1B0A30EE600AFFF79E
:1031F00053FA84ED080A94ED070A00F019FEFFF770
:1032000061FABDEC068B04F10801081DBDE87040B1
:10321000FDF7A0B84800002000409C46400B00206D
:10322000E17A143E4B1FBA3989D2DE399D11BD397E
:10323000286BEE4D1EA352422599164C00803B454B
:1032400000803B4500803BC500803BC50080BB44FF
:10325000DB0FC93FDB0FC9BF10B500F0B7F900F0B5
:10326000FFF8BDE8104001A0FFF7F2BE666F635F94
:103270006170705F696E697420636F6D706C6574E6
:10328000650000000C4910B508684FF6FF021040B9
:103290000A4A10430860FFF703FCFFF719FCFFF729
:1032A00095FDFFF75FFCFFF70DFDFFF7C1FABDE8E5
:1032B000104003A0FFF7CCBE0CED00E00000FA05C3
:1032C000666F635F6273705F696E697420636F6DB0
:1032D000706C6574650000000348D0ED030A90ED42
:1032E000020A00F003B80000080A002010B5424AA4
:1032F000424943482DED048B82B0F0EE609AB0EE67
:10330000409AFFF775FE3C489FED3E2A90EC040A78
:103310003D48FFF7D1FE3C483C4C01A990ED080A1E
:1033200084ED040AD0ED040A6846C4ED070ADFED17
:10333000380A20EE200AFDF70DF89DEC020A21461E
:103340002D4800F052F9D4ED0A0A9FED321A94ED9F
:103350000C2ADFED311A20EE810A02EE210A84EDFB
:103360000C0A94ED0B2A22EE011A94ED0D2A02EEBE
:10337000211A9FED2A2A84ED0D1AD4ED071A21EEA9
:10338000822A22EE018A9FED262A9FED261A00EE60
:10339000021AB0EE490A61EE818A00F077F830EE49
:1033A000080A84ED000AD4ED0B0AB0EE690A00F0B9
:1033B00093F830EE280A1049204684ED010A9DEC6E
:1033C000020A00F0EDF80C4800F040FE164C2146D1
:1033D00020730A4890ED030A074800F031FD2046AB
:1033E00000F0C4FD628A218AE089FFF78BFB02B0FE
:1033F000BDEC048B10BD0000540A0020DC09002045
:10340000EC09002017B75138DC0B0020080A002017
:10341000E02E6542CDCCCC3D6666663F89D2DEB9F2
:103420004B1FBA39EB909B3C400A0020094880EDC5
:10343000000A80ED011A9FED080AC0ED031A80ED25
:10344000020A0648C0ED031A80ED020AC0EC020A27
:10345000704700008C0A0020000000006C0A002069
:1034600009489FED080A9FED061A80ED000A80EDDD
:10347000010A0C30F3EE040A80EC030A70470000E6
:103480000000484300000000EC0A0020114870EEE4
:10349000600A90ED000AD0ED011A20EE201A90ED9E
:1034A000020A01EEA00A80ED020AD0ED030AB4EE92
:1034B000E00AF1EE10FA06DCF1EE600AB4EEE00A82
:1034C000F1EE10FA01D2C0ED020A90ED020A30EEE0
:1034D000010A70478C0A0020114870EE600A90EDD6
:1034E000000AD0ED011A20EE201A90ED020A01EE3A
:1034F000A00A80ED020AD0ED030AB4EEE00AF1EE74
:1035000010FA06DCF1EE600AB4EEE00AF1EE10FA11
:1035100001D2C0ED020A90ED020A30EE010A7047B6
:103520006C0A0020084880ED031A80EC020A9FED27
:10353000070A80ED020A80ED040A80ED050A80ED9D
:10354000060A80ED070A7047CC0A00200000000040
:10355000044880ED031A80EC020A9FED030A80ED17
:10356000020A7047AC0A00200000000010B5FDF709
:103570009BFEFDF7A5FDFDF767FEFDF7CFFDBDE85E
:10358000104001A0FFF764BD666F635F7461736BE9
:103590005F696E697420636F6D706C65746500009F
:1035A00090ED001AD0ED011A21EE201A01EEC01A9A
:1035B00081ED001A90ED001A21EE000A90ED011A3B
:1035C00001EE200A81ED010A704700000321014845
:1035D000FDF735BE00040240FFF754FEFFF73CFE46
:1035E000FFF7C4FF00F0DAFFFEE7F0EE601AB0EE7E
:1035F000401A0A46D0ED030A90ED020A2C3102F17E
:103600002800FFF791B800002DE9F0411E4C0F464D
:103610000546E6682068001D00F05CFD38B92068AA
:1036200090F82C1001208840216981432161681C99
:1036300015D1A7B11549226848689060236882684F
:10364000DA6022688368121D5A602268121D826047
:10365000206841610868401C0860BDE8F08120686E
:103660003544B5424560216805D2E06BBDE8F041C4
:10367000091D00F01BBEA06B091D00F017FEA06A1B
:103680008542EAD2A562E8E774000020F8740020C1
:103690002DE9F041054600F021FE364CA068401CA3
:1036A000A0602068344F10B1606940B32DE0256000
:1036B000A068012829D1002606EB860007EB8000D0
:1036C00000F0E6FD761C052EF6D32B48643000F0A2
:1036D000DFFD2948783000F0DBFD27488C3000F012
:1036E000D7FD2548A03000F0D3FD2348B43000F0CA
:1036F000CFFD21486430A0631430E06305E020680A
:10370000E96AC06A884200D82560606A401C60622D
:103710006864E96A0120226988401043206101EB56
:10372000810007EB80004068A8608168E9608268DA
:10373000291D51608160E86A00EB800007EB800181
:10374000696157F82010491C47F8201000F0E6FD89
:10375000606900280CD02068E96AC06A884207D2F4
:1037600006494FF080500860BFF34F8FBFF36F8F53
:10377000BDE8F081740000204474002004ED00E0F6
:1037800010B500F0ABFD0E4C2068A0B90D4800F05C
:103790007FFD0C48143000F07BFD0A48E0601430D7
:1037A000206100220C210A2000F0F6FF206010B1F9
:1037B00005A100F035FEBDE8104000F0AFBD0000EF
:1037C000B40000200C750020546D72510000000000
:1037D00030B4026C0B46002A0BD0C1681144C160A2
:1037E0008468A14201D30168C16030BC1846FCF76F
:1037F00033BE30BC70472DE9F041856B1746044657
:103800000026026C82B1C7B1E068FCF725FEE168D2
:10381000206C091AE1602268914202D2A168081A5C
:10382000E060022F16D017E02068A8B9A06801F068
:103830004BFB06460020A0600EE06068FCF70CFE23
:10384000216C606808446060A168884204D32068E5
:10385000606001E005B16D1E6D1CA5633046BDE8DA
:10386000F08110B50446006B00F06CFD2046BDE809
:10387000104000F067BD00000E484FF4D0414207F1
:1038800006D0C01D0B4920F00700411AC1F5D041F8
:10389000094A00230144C2E900030839143A21F01F
:1038A000070111604B600B600B1AC0E900139360B5
:1038B00053607047040C002060000020144E154C2B
:1038C000A6F1A0074FF08058DFF84C9012E000BF3F
:1038D00000F004FDF068C568281D00F0FBFBA0683F
:1038E000401EA0606068401E606000F017FD284622
:1038F000FFF7B7FF60680028EAD138680128F9D9D6
:10390000C9F80080BFF34F8FBFF36F8FF2E700005D
:10391000E47400207400002004ED00E02DE9F0477D
:103920000D46DDE909841746824691009946089EB6
:10393000A522206BFCF7A2FD6FF00301206B01EBC9
:103940008701084420F00707780707D0502080F34C
:103950001188BFF34F8FBFF36F8FFEE765B1002073
:103960002218295C82F83410295C11B1401C1028FF
:10397000F6D3002084F84300052E07D3502080F3AF
:103980001188BFF34F8FBFF36F8FFEE7E662201DF4
:10399000E66400F088FC04F1180000F084FC246167
:1039A000C6F105006462A0614A465146384600F0FF
:1039B00029FA2060B8F1000F01D0C8F80040BDE836
:1039C000F087000030B5114900E011460A688242D4
:1039D000FBD34B685C18844203D1406818444860AC
:1039E000084643681C18944209D1084C143C2468CA
:1039F000A24209D052681A4442600A681268026002
:103A0000814200D0086030BD0460F9E7600000200A
:103A100070B5002441600B4D0061914206D8D11A67
:103A20008269914206D2011D286907E09A4203D2B9
:103A3000994201D3012403E0011DE86800F036FC3F
:103A4000204670BDB400002010B5044600F046FCCE
:103A5000A06B28B15FF0000400F060FC204610BDB0
:103A60000124F9E770B506460D480D46C068C068E8
:103A7000C468201D00F02EFB94F82800410705D5EE
:103A80002A463146204600F0B5F803E000F0FE007B
:103A900084F828002046216ABDE8704008470000ED
:103AA000B40000207FB5374E63E00098002860DB4B
:103AB000029C606910B1201D00F00CFB03A800F00F
:103AC000BBF8054600980A2853D2DFE800F05205FB
:103AD00005282E460505282E94F828002A4640F091
:103AE000010084F828000199A069019B0144204647
:103AF000FFF78EFF40B394F82800410707D50198DF
:103B0000A1692A460144204600F074F803E000F061
:103B1000FE0084F82800216A2046884729E014F82E
:103B2000280F00F0FE00207023E094F8280040F0F9
:103B3000010084F828000198A06130B141192B469A
:103B40001A462046FFF764FF13E0502080F31188E7
:103B5000BFF34F8FBFF36F8FFEE794F82800810704
:103B600003D4204600F0EEFB03E000F0FE0084F8F2
:103B7000280000226946306800F0A4FF002894D194
:103B80007FBD0000B4000020F8B50D46064600F0E9
:103B90003DFD684600F050F80446009810B101F071
:103BA0005DFAF8BD1148ADB101690968D9B10025C8
:103BB000311B2A46006800F05BFC01F04FFA002838
:103BC000EFD10B494FF080500860BFF34F8FBFF328
:103BD0006F8FF8BDA642EBD801F040FA214630467F
:103BE000FFF740FFF8BD0125E2E70000B400002028
:103BF00004ED00E070B516460C46054604E0A869E1
:103C0000296A044428468847A86923460119324690
:103C10002846FFF7FDFE0028F1D170BD0548816BF5
:103C2000096821B1816BC9680968816270474FF0EA
:103C3000FF31FAE7740000202DE9F041064601F05B
:103C4000A1F80E4C0546A068854214D24FF0FF370C
:103C500004E0C06839460068FFF704FFE0680168C7
:103C60000029F6D12169C4E90310012030602846FB
:103C7000A560BDE8F0810020F8E70000B400002056
:103C800008484068401C4FF0500080F3118804D071
:103C9000BFF34F8FBFF36F8FFEE7BFF34F8FBFF3BD
:103CA0006F8FFEE768000020074CE068016841B1B3
:103CB000C0680021D0F80000FFF766FFFFF7F2FEB2
:103CC000F3E701210020F7E7B40000202DE9F041DF
:103CD000044600F003FB94F9455004F1240609E082
:103CE000606A48B1304601F04BF908B100F010FCB1
:103CF0006D1E6DB2002DF3DC4FF0FF3684F8456089
:103D000000F00CFB00F0EAFA94F9445004F11007BB
:103D100009E0206948B1384601F032F908B100F0F5
:103D2000F7FB6D1E6DB2002DF3DC84F84460BDE836
:103D3000F04100F0F3BA000070B50446002600F030
:103D400065FC2F4D286808B9FFF796FD94B304F081
:103D50000700C0F11000C1438C4202D8211800298D
:103D600002DC01F07BF93DE068688142F9D8244823
:103D700014300246146801E02046144662688A4204
:103D800002D22268002AF7D12A689442E9D0066854
:103D90002268026060680836421A102A0FD960183B
:103DA000430708D0502080F31188BFF34F8FBFF333
:103DB0006F8FFEE713E042606160FFF703FE61680A
:103DC0006868401A6860AA68904200D2A86041F012
:103DD0000040606000202060E868401CE86001F05E
:103DE0003DF90EB900F090F9700707D0502080F32C
:103DF0001188BFF34F8FBFF36F8FFEE7304670BD62
:103E00004C00002010B5031F4FF080741C601B1F76
:103E100021F001011960191F044B0B6014390A606D
:103E2000091F6FF0020244380A6010BD813C00088F
:103E3000DFED020A20EE200A70470000E12E654205
:103E400070B50C462DED048BB0EE409A0546D0EDD2
:103E5000008A90ED018A28EEA80A08EE080ADFED34
:103E60003D0A69EE209A69EEA90AB4EEE00AF1EE85
:103E700010FA10DD10EE100A374988420BDDFDF70D
:103E8000F8FDC9EE800A68EEA08A28EE208AC5ED0A
:103E9000008A85ED018ADFED310ADFED311A207BE2
:103EA00080EE890AF6EE000A072820EE201A68EE56
:103EB000000AB0EE480A08EEE18A08EEA10ADFED3A
:103EC000291A20EE010A28EE011A29D2DFE800F0B3
:103ED00028040B0E151C2300B1EE410A84ED010AE3
:103EE000C4ED020A20E084ED011A03E0C4ED010AEA
:103EF000B1EE400A84ED020A16E0B1EE600A84EDEC
:103F0000010A84ED021A0FE0B1EE400A84ED010AC5
:103F1000B1EE410AEEE784ED010AB1EE600AE9E78D
:103F2000C4ED011AC4ED021A94ED010ADFED0E0A88
:103F300030EEC00AD4ED020A30EE600A84ED000AC9
:103F4000B5EEC00AF1EE10FA01D2C4ED001ABDECD4
:103F5000048B70BD3ACD133FCCBC8C2B629EB53820
:103F6000D7B3DD3F0000000017B7513890ED000ACD
:103F7000F6EE000A017B20EE200A072947D2DFE88F
:103F800001F046040F1A252C3900D0ED010A90EDFE
:103F9000021A70EE800A70EE810A31EE001A3AE0E1
:103FA000D0ED011A90ED021A71EE801A71EE000A3E
:103FB00031EE811A2FE090ED011AD0ED021AF0EEE9
:103FC000400A31EE001A31EE211A1DE0D0ED021A3E
:103FD000F0EE400A31EE801A05E0D0ED021AB0EEA4
:103FE000401A71EE800A90ED012A32EE000A30EE9E
:103FF000210A10E0D0ED010AD0ED021AB0EE401A0D
:1040000070EE800A70EEA10A31EE800A03E0F0EE55
:10401000400AB0EE401ADFED0C1A60EEA10A20EE65
:10402000210AFCEEE00ABCEEC00A10EE901A61EE26
:10403000210AC181FCEEE00A10EE901A018210EE16
:10404000101A418270470000DC2DA04C90ED010A4F
:10405000D0ED001A9FED1C1AF0EE400A9FED1B2ACE
:1040600051EE810AB0EE401A10EE101A11EE821ACB
:104070001748814201DD012100E0002110EE902A65
:10408000824201DD012200E0002211EE103A83425B
:1040900001DD012000E0002001EB420101EB800086
:1040A00007280FD2DFE800F00E040C0E08060A0005
:1040B0000220704703207047042070470520704796
:1040C0000620704701207047D7B3DD3FD7B3DDBF6F
:1040D000BD378635D0E9013201699A60D0E9012304
:1040E0005A604A68824201D182684A6000220261B5
:1040F0000868401E08600868704700000148806832
:10410000704700007400002001A0FEF7A1FFFEE749
:104110004170706C69636174696F6E206D616C6C65
:104120006F63206661696C656400000001A0FEF7A2
:104130008FFFFEE70D0A21212120537461636B205C
:104140004F766572666C6F7720696E20257320212B
:1041500021210D0A000000004FF47A74204600F07F
:10416000A9F9FBE71CB52548B3EE0E0ADFED260AD8
:1041700080ED080A9FED220AF1EE021A80ED010A95
:104180009FED200A9FED221A80ED000AC0ED030A80
:1041900080ED020A9FED1D0ADFED1E0A80ED090A7F
:1041A0009FED1D0AFFF742F9B1EE001ADFED1B0A81
:1041B0009FED1B0AFFF7CCF9B2EE041ADFED190AE6
:1041C000B7EE000AFFF7AEF91748FEF765FF164E87
:1041D000164F3868FCF764F904460D46306AFCF760
:1041E0005FF941EC100B12A053EC102BCDE9004508
:1041F000FEF72EFF012000F05DF9EAE7080A002033
:104200009A99993E00000000CDCCCC3EC3F5C84041
:104210002BF9453D55553540777717406F12833A56
:10422000CDCCCC3D0AD7233CDC0B0020300B00204A
:10423000252E34662C20252E3466000008B500F0AB
:10424000A1FD074CCDF80000FEF7DCFB18B1FEF72E
:10425000E9FA84EC040A0121684600F03BFDF3E72B
:10426000DC090020094C4FF4FA756E00032120464A
:10427000FCF7E8FF284600F01DF903212046FCF773
:10428000DEFF304600F016F9F0E7000000040240BF
:1042900000F108014FF0FF32C0E90112C160016175
:1042A00000210160704700210161704730B50B6843
:1042B0005A1C02D000F1080202E0026904E0224622
:1042C000546825689D42FAD953684B6099608A60AA
:1042D000516008610168491C016030BD502080F3C5
:1042E0001188BFF34F8FBFF36F8F0A494868401C96
:1042F000486001280CD10848006810F0FF0F07D073
:10430000502080F31188BFF34F8FBFF36F8FFEE70C
:10431000704700006800002004ED00E0084948688C
:1043200028B1401E486001D180F3118870475020A9
:1043300080F31188BFF34F8FBFF36F8FFEE700004C
:104340006800002070B500282AD0A0F10804606839
:10435000002807DB502080F31188BFF34F8FBFF395
:104360006F8FFEE7216839B1502080F31188BFF3C9
:104370004F8FBFF36F8FFEE720F00040606000F0CA
:1043800045F9084D60686968084468602046FFF791
:1043900019FB2869401C2861BDE8704000F05EBE32
:1043A00070BD00004C0000204FF0E02000210161B2
:1043B000816105494FF47A720968B1FBF2F1491E37
:1043C00041610721016170470000002010B5FBF733
:1043D00041FF114910280ED300F1E02090F8F003BE
:1043E0000A78904207D2502080F31188BFF34F8F94
:1043F000BFF36F8FFEE709480068896800F4E0604A
:10440000884207D9502080F31188BFF34F8FBFF344
:104410006F8FFEE710BD0000680000200CED00E08B
:1044200070B5002260B100291ED0104C002300BFDF
:1044300004EBC3056E6886420AD104EBC3020FE0A9
:10444000502080F31188BFF34F8FBFF36F8FFEE7CB
:104450001AB954F8336006B92A465B1C082BE7D317
:10446000002A01D0C2E9001070BD000004740020D1
:1044700070B515460E460446FFF730FF94F9441018
:104480000020491C01D184F8440094F94510491CCE
:1044900001D184F84500FFF741FFA06B28B92A46F7
:1044A000314604F1240000F051F82046BDE8704088
:1044B000FFF70CBC10B5020014D00F48406B38B1A8
:1044C000502080F31188BFF34F8FBFF36F8FFEE74B
:1044D00000F09CF800211046FFF796F800F0BEFDB2
:1044E000002807D105494FF080500860BFF34F8F77
:1044F000BFF36F8F10BD00007400002004ED00E0DA
:1045000002490A6A0260C96841607047740000206D
:1045100001490120C86170477400002010B50C46A5
:1045200050B1094909681831FFF7C0FE2046BDE8BF
:1045300010400121FFF768B8502080F31188BFF3C5
:104540004F8FBFF36F8FFEE774000020F0B40C466E
:10455000D0B1114943680D68EB619D680E68356202
:104560000D689E68183575600D6818359D6009687E
:1045700088620168491C01600AB14FF0FF3420468F
:10458000F0BC1146FFF740B8502080F31188BFF30C
:104590004F8FBFF36F8FFEE7740000207CB5174884
:1045A0000025CDE900502B46802215A1164800F0C9
:1045B00063FB124C2C3C012803D100F0E5FD0128DF
:1045C00002D0401C11D00EE0502080F31188BFF3C0
:1045D0004F8FBFF36F8F4FF0FF30A06201206061FB
:1045E000E56000F05FF8206B7CBD502080F31188FF
:1045F000BFF34F8FBFF36F8FFEE70000A0000020D6
:1046000049444C4500000000BD3800080248416B99
:10461000491C4163704700007400002010B51F4C16
:10462000606B10B10120E06110BD0020E0612068E6
:104630004FF0A531006B02688A4208D142688A4275
:1046400005D182688A4202D1C068884204D02168BC
:1046500020683431FFF76AFD20691149B0FA80F013
:10466000C0F11F0000EB800051F820206AB101EB7F
:10467000800000F10802416849684160914201D11F
:1046800049684160C868206010BD502080F31188DF
:10469000BFF34F8FBFF36F8FFEE700007400002061
:1046A000447400201CB537480168374A914207D14D
:1046B000502080F31188BFF34F8FBFF36F8FFEE759
:1046C00000683149491E884207D1502080F3118883
:1046D000BFF34F8FBFF36F8FFEE72C49087801902F
:1046E000FF20087008788DF800009DF800009DF804
:1046F000002000F0F000904207D0502080F3118895
:10470000BFF34F8FBFF36F8FFEE79DF80000204C83
:1047100000F0500020700720A06005E09DF8002008
:1047200052008DF80020401E9DF800201206F5D49E
:10473000A060032807D0502080F31188BFF34F8F6B
:10474000BFF36F8FFEE74FF44070A06001980870D0
:104750000C482030016841F470010160016841F0AB
:1047600070410160FFF720FE00206060FBF73AFD1A
:104770000848016841F040410160FBF71FFD00203F
:104780001CBD000000ED00E071C20F4100E400E03C
:104790006800002034EF00E02DE9F04117460E4696
:1047A000050020D04FF0FF30B0FBF5F0B0421AD337
:1047B00005FB06F010F1510F15D85030FFF7BCFA89
:1047C00004000CD004F150005EB12060C4E90F5623
:1047D0002046012100F010F8204684F84C70BDE816
:1047E000F0812460F2E7502080F31188BFF34F8FEF
:1047F000BFF36F8FFEE700002DE9F0410F46040084
:104800004FF001062DD0E06B98B3B51EB5FBF0F16B
:10481000206C81423ED3FFF761FDD4E90F2021686F
:1048200002FB0011A1600021A163216861600A46BA
:10483000D4E90F01401E00FB01212046E16000F891
:10484000445F457004F11000A7B1FFF721FD04F1AA
:104850002400FFF71DFD00BFFFF760FD3046BDE8F7
:10486000F081502080F31188BFF34F8FBFF36F8F1B
:10487000FEE70FE021690029EED000F081FB00285F
:10488000EAD008494FF080500860BFF34F8FBFF364
:104890006F8FE1E7502080F31188BFF34F8FBFF394
:1048A0006F8FFEE704ED00E02DE9FF4782B01D4663
:1048B0008A464FF00008040003D0BAF1000F08D078
:1048C00011E0502080F31188BFF34F8FBFF36F8F3B
:1048D000FEE7206C38B1502080F31188BFF34F8F72
:1048E000BFF36F8FFEE7022D0AD1E06B012807D0DE
:1048F000502080F31188BFF34F8FBFF36F8FFEE717
:1049000000F032FA3F4F4FF000094FF0805648B99F
:10491000049838B1502080F31188BFF34F8FBFF354
:104920006F8FFEE7FFF7DAFCA06BE16B884207D3DD
:10493000022D05D00498D0B1B8F1000F1AD01EE0B6
:104940002A4651462046FEF756FF616A19B104F126
:10495000240000F015FB20B13E60BFF34F8FBFF382
:104960006F8FFFF7DBFC012006B0BDE8F087FFF793
:10497000D5FC22E06846FFF7C3FD4FF00108FFF7C2
:10498000CDFCFFF743FEFFF7A9FC94F94400401C5F
:1049900001D184F8449094F94500401C01D184F879
:1049A0004590FFF7BBFC04A9684600F027F930B139
:1049B0002046FFF78BF900F051FB0020D4E7FFF70A
:1049C0008DFCA06BE16B884213D1FFF7A7FC04F1CB
:1049D00010000499FFF7A2FD2046FFF777F900F0D9
:1049E0003DFB00289ED13E60BFF34F8FBFF36F8F1A
:1049F00098E7FFF793FC2046FFF768F900F02EFBDD
:104A000090E7000004ED00E02DE9F0410F460400BE
:104A100009D0206C78B1502080F31188BFF34F8FFC
:104A2000BFF36F8FFEE7502080F31188BFF34F8FE5
:104A3000BFF36F8FFEE7206848B9A06838B15020F7
:104A400080F31188BFF34F8FBFF36F8FFEE7FFF73F
:104A5000BDFC5020EFF3118680F31188BFF34F8F18
:104A6000BFF36F8FA06BE16B814226D994F945505B
:104A7000401CA063681C0AD0FFF740FB854204D2AB
:104A80007F2D12D06D1C84F84550012016E0606A1D
:104A90000028FAD004F1240000F072FA0028F4D0C3
:104AA000002FF2D001203860EFE7502080F311880A
:104AB000BFF34F8FBFF36F8FFEE7002086F311889F
:104AC000BDE8F0812DE9F747002683B08A4604004F
:104AD00003D0BAF1000F08D011E0502080F3118804
:104AE000BFF34F8FBFF36F8FFEE7206C38B15020BC
:104AF00080F31188BFF34F8FBFF36F8FFEE700F095
:104B000033F9DFF8F4804FF000094FF0805748B9CF
:104B1000059838B1502080F31188BFF34F8FBFF351
:104B20006F8FFEE7FFF7DAFBA56BC5B15146204654
:104B3000FEF74EFE6D1EA563206950B104F1100012
:104B400000F01EFA28B1C8F80070BFF34F8FBFF312
:104B50006F8FFFF7E3FB012006B0BDE8F0870598F3
:104B600008B11EB106E0FFF7D9FB27E06846FFF762
:104B7000C7FC0126FFF7D2FBFFF748FDFFF7AEFBAE
:104B800094F94400401C01D184F8449094F9450004
:104B9000401C01D184F84590FFF7C0FB05A9684689
:104BA00000F02CF8002820460AD0FFF78FF800F01C
:104BB00055FA2046FEF748FF0028B3D00020CBE787
:104BC000FEF742FF90B104F124000599FFF7A6FC1F
:104BD0002046FFF77BF800F041FA0028A2D1C8F880
:104BE0000070BFF34F8FBFF36F8F9BE72046FFF737
:104BF0006DF800F033FA95E704ED00E02DE9F0419F
:104C00000C46050014D0DCB1FFF768FB194EF268C2
:104C10006B682068D11A471C1AD02F68D6F820C0BC
:104C20000026674516D0934214D8012526601BE064
:104C3000502080F31188BFF34F8FBFF36F8FFEE7D3
:104C4000502080F31188BFF34F8FBFF36F8FFEE7C3
:104C5000002509E0884205D9401A20602846FFF760
:104C60004FFCF5E701252660FFF758FB2846BDE815
:104C7000F0810000740000202DE9FF5F8346DDE92C
:104C80000E87994616468A469000FFF755F80500AC
:104C90001DD05C20FFF750F8040015D05C21FBF715
:104CA000F4FB25630021CDE90241CDE900874B46A5
:104CB000324651465846FEF731FE2046FEF7E8FCE4
:104CC000012004B0BDE8F09F2846FFF73BFB4FF002
:104CD000FF30F6E770B50E4605004FF000040BD02C
:104CE00096B11F4A506BB8B1502080F31188BFF3C2
:104CF0004F8FBFF36F8FFEE7502080F31188BFF313
:104D00004F8FBFF36F8FFEE7502080F31188BFF302
:104D10004F8FBFF36F8FFEE7FFF778FCD2682B68E9
:104D20009919934204D98B420BD9914202D808E0D9
:104D30008B42FAD9881A296001240021FEF764FC0D
:104D400000E0296000F08AF938B906494FF0805038
:104D50000860BFF34F8FBFF36F8F204670BD000018
:104D60007400002004ED00E00548416919B1406B72
:104D700018B10020704701207047022070470000E2
:104D8000740000200148C0687047000074000020D3
:104D90002DE9F0414A4C0026606B28B1A069401C07
:104DA000A0613046BDE8F081E5686D1CE56013D177
:104DB000A06B006838B1502080F31188BFF34F8F8B
:104DC000BFF36F8FFEE7A06BE16BA163E063206A26
:104DD000401C2062FEF722FFA16A3A488D420FD3A1
:104DE0004FF0000EA16B096839B1A16BC968C968A1
:104DF0004A68954212D2A26202E04FF0FF31A162EE
:104E00002168C96A01EB810150F82100012800D90D
:104E10000126E0690028C4D00126C2E7D1E9027268
:104E20004B69BA60D1E902277A605F680A1D974230
:104E300001D1CF685F60C1F814E01F687F1E1F605A
:104E4000D1F828C0BCF1000F15D0D1E907379F6019
:104E5000D1E907377B60DCF8047001F118039F4249
:104E600002D10B6ACCF80430C1F828E0DCF800303D
:104E70005B1ECCF80030CB6A0127D4F810C09F40ED
:104E800047EA0C07276103EB830300EB83035B68AE
:104E90008B609F68CF609F687A609A60CA6A02EBF5
:104EA000820200EB82034B6150F822305B1C40F819
:104EB0002230C96A2268D26A914293D9012691E7C9
:104EC000740000204474002070B504004FF000010D
:104ED0004FD0294D2868844207D0502080F3118894
:104EE000BFF34F8FBFF36F8FFEE7206D38B1401EC9
:104EF0002065E36CE26A9A423BD040B139E0502031
:104F000080F31188BFF34F8FBFF36F8FFEE7201D33
:104F1000FFF7E0F8012130B994F82C002A6901FA72
:104F200000F082432A61E06CE062C0F10500A061FC
:104F3000E06A2A69814011432961104900EB800031
:104F400001EB80004068A0608268E2608368221DF7
:104F50005A608260E06A00EB800001EB80006061D3
:104F6000E06A00EB800051F82020521C41F820201C
:104F70000121084670BD0000740000204474002028
:104F800070B5C068C06850B3D0E90732816A9A60D2
:104F9000D0E907235A604A6800F118039A4201D108
:104FA000026A4A60002585620A68521E0A60294921
:104FB0004A6B0124DAB1284D6A68C26196680662BC
:104FC00096687360936085622A68521C2A60C06A82
:104FD0000A68D26A90423AD90120CC6170BD502053
:104FE00080F31188BFF34F8FBFF36F8FFEE7D0E9D7
:104FF00002634269B360D0E9023673605668031DEC
:105000009E4201D1C6685660456115686D1E1560E7
:10501000C26A0E6904FA02F535430D610E4D02EBCA
:1050200082028C3D05EB8202526882609668C660FF
:10503000966873609360C26A02EB820205EB82039A
:10504000436155F822305B1C45F82230BFE7002051
:1050500070BD000074000020D07400202DE9F041E4
:10506000464D00242746686B38B1FFF737F9686B67
:10507000401E6863686B40B17AE0502080F311886D
:10508000BFF34F8FBFF36F8FFEE7A8683C4B00263E
:105090004FF00108F0BB6BE0D868C468D4E9072181
:1050A000A06A9160D4E907125160426804F11801C6
:1050B0008A4201D1216A4160A6620168491E0160ED
:1050C000D4E9022160699160D4E90212516042681A
:1050D000211D8A4201D1E268426066610268521E67
:1050E0000260E26AD5F810C008FA02F040EA0C004B
:1050F000286102EB8200224A8C3A02EB8000406871
:10510000A060D0F808C0C4F80CC0D0F808C0CCF833
:10511000041000E012E08160E06A00EB800002EB26
:105120008001616152F82010491C42F82010E06AA9
:105130002968C96A884201D3C5F81C80186800280C
:10514000AAD10CB1FEF76AFDAC693CB1FFF720FEB5
:1051500008B1C5F81C80641EF8D1AE61E86938B1A9
:105160000849012738070860BFF34F8FBFF36F8FDF
:10517000FFF7D4F83846BDE8F08100007400002045
:10518000D074002004ED00E01CB5FEF7F9FA0C48DD
:10519000006860B10A490220091DCDE90001C20181
:1051A000002308A10948FFF767FD002807D1502018
:1051B00080F31188BFF34F8FBFF36F8FFEE71CBDE5
:1051C000B4000020546D722053766300A93C00089F
:1051D00000000000920E493CB10AC93C2BC3163DA9
:1051E0002EFB483D752B7B3D04A9963D80B6AF3D17
:1051F00036BDC83D2FBCE13D73B2FA3D87CF093EB5
:105200008340163EB5AB223EA2102F3ECF6E3B3EF2
:10521000C2C5473E0115543E135C603E7F9A6C3E0A
:10522000CCCF783EC07D823E938E883E229A8E3EC1
:1052300032A0943E86A09A3EE59AA03E128FA63EEA
:10524000D47CAC3EEF63B23E2A44B83E491DBE3E1C
:1052500015EFC33E53B9C93ECA7BCF3E4136D53E5A
:1052600080E8DA3E4F92E03E7533E63EBBCBEB3E44
:10527000EA5AF13ECBE0F63E275DFC3EE4E7003F14
:105280003D9C033F824B063F9BF5083F6B9A0B3FCB
:10529000DA390E3FCDD3103F2A68133FD9F6153FB8
:1052A000C07F183FC6021B3FD17F1D3FCBF61F3F7B
:1052B0009967223F25D2243F5636273F1594293F30
:1052C0004AEB2B3FDE3B2E3FBB85303FC9C8323F08
:1052D000F304353F233A373F4268393F3B8F3B3F2A
:1052E000F9AE3D3F67C73F3F70D8413F01E2433FC2
:1052F00003E4453F65DE473F12D1493FF8BB4B3FD2
:10530000029F4D3F207A4F3F3D4D513F4918533F3B
:1053100031DB543FE595563F5348583F6AF2593FB9
:105320001A945B3F532D5D3F05BE5E3F2146603FB3
:1053300097C5613F5A3C633F59AA643F880F663F57
:10534000D86B673F3CBF683FA7096A3F0C4B6B3F78
:105350005E836C3F93B26D3F9ED86E3F73F56F3F97
:105360000809713F5213723F4714733FDD0B743FBE
:105370000BFA743FC6DE753F07BA763FC58B773FA1
:10538000F853783F9812793F9DC7793F02737A3F6F
:10539000BE147B3FCDAC7B3F283B7C3FC9BF7C3FED
:1053A000AC3A7D3FCCAB7D3F23137E3FB0707E3F58
:1053B0006DC47E3F580E7F3F6D4E7F3FAB847F3F75
:1053C0000FB17F3F97D37F3F43EC7F3F11FB7F3F80
:1053D0000000803F11FB7F3F43EC7F3F97D37F3F2F
:1053E0000FB17F3FAB847F3F6D4E7F3F580E7F3FB5
:1053F0006DC47E3FB0707E3F23137E3FCCAB7D3FBC
:10540000AC3A7D3FC9BF7C3F283B7C3FCDAC7B3F66
:10541000BE147B3F02737A3F9DC7793F9812793F54
:10542000F853783FC58B773F07BA763FC6DE753FA6
:105430000BFA743FDD0B743F4714733F5213723FF6
:105440000809713F73F56F3F9ED86E3F93B26D3F71
:105450005E836C3F0C4B6B3FA7096A3F3CBF683FC4
:10546000D86B673F880F663F59AA643F5A3C633F39
:1054700097C5613F2146603F05BE5E3F532D5D3FAE
:105480001A945B3F6AF2593F5348583FE595563F9F
:1054900031DB543F4918533F3D4D513F207A4F3F38
:1054A000029F4D3FF8BB4B3F12D1493F65DE473F5E
:1054B00003E4453F01E2433F70D8413F67C73F3FA8
:1054C000F9AE3D3F3B8F3B3F4268393F233A373F80
:1054D000F304353FC9C8323FBB85303FDE3B2E3F2A
:1054E0004AEB2B3F1594293F5636273F25D2243FC0
:1054F0009967223FCBF61F3FD17F1D3FC6021B3F5E
:10550000C07F183FD9F6153F2A68133FCDD3103F0F
:10551000DA390E3F6B9A0B3F9BF5083F824B063FF3
:105520003D9C033FE4E7003F275DFC3ECBE0F63EB9
:10553000EA5AF13EBBCBEB3E7533E63E4F92E03E7E
:1055400080E8DA3E4136D53ECA7BCF3E53B9C93EEC
:1055500015EFC33E491DBE3E2A44B83EEF63B23E3E
:10556000D47CAC3E128FA63EE59AA03E86A09A3E21
:1055700032A0943E229A8E3E938E883EC07D823E1B
:10558000CCCF783E7F9A6C3E135C603E0115543E52
:10559000C2C5473ECF6E3B3EA2102F3EB5AB223E6A
:1055A0008340163E87CF093E73B2FA3D2FBCE13DE2
:1055B00036BDC83D80B6AF3D04A9963D752B7B3DF9
:1055C0002EFB483D2BC3163DB10AC93C920E493C07
:1055D00000000000920E49BCB10AC9BC2BC316BD25
:1055E0002EFB48BD752B7BBD04A996BD80B6AFBD13
:1055F00036BDC8BD2FBCE1BD73B2FABD87CF09BEB1
:10560000834016BEB5AB22BEA2102FBECF6E3BBEEE
:10561000C2C547BE011554BE135C60BE7F9A6CBE06
:10562000CCCF78BEC07D82BE938E88BE229A8EBEBD
:1056300032A094BE86A09ABEE59AA0BE128FA6BEE6
:10564000D47CACBEEF63B2BE2A44B8BE491DBEBE18
:1056500015EFC3BE53B9C9BECA7BCFBE4136D5BE56
:1056600080E8DABE4F92E0BE7533E6BEBBCBEBBE40
:10567000EA5AF1BECBE0F6BE275DFCBEE4E700BF10
:105680003D9C03BF824B06BF9BF508BF6B9A0BBFC7
:10569000DA390EBFCDD310BF2A6813BFD9F615BFB4
:1056A000C07F18BFC6021BBFD17F1DBFCBF61FBF77
:1056B000996722BF25D224BF563627BF159429BF2C
:1056C0004AEB2BBFDE3B2EBFBB8530BFC9C832BF04
:1056D000F30435BF233A37BF426839BF3B8F3BBF26
:1056E000F9AE3DBF67C73FBF70D841BF01E243BFBE
:1056F00003E445BF65DE47BF12D149BFF8BB4BBFCE
:10570000029F4DBF207A4FBF3D4D51BF491853BF37
:1057100031DB54BFE59556BF534858BF6AF259BFB5
:105720001A945BBF532D5DBF05BE5EBF214660BFAF
:1057300097C561BF5A3C63BF59AA64BF880F66BF53
:10574000D86B67BF3CBF68BFA7096ABF0C4B6BBF74
:105750005E836CBF93B26DBF9ED86EBF73F56FBF93
:10576000080971BF521372BF471473BFDD0B74BFBA
:105770000BFA74BFC6DE75BF07BA76BFC58B77BF9D
:10578000F85378BF981279BF9DC779BF02737ABF6B
:10579000BE147BBFCDAC7BBF283B7CBFC9BF7CBFE9
:1057A000AC3A7DBFCCAB7DBF23137EBFB0707EBF54
:1057B0006DC47EBF580E7FBF6D4E7FBFAB847FBF71
:1057C0000FB17FBF97D37FBF43EC7FBF11FB7FBF7C
:1057D000000080BF11FB7FBF43EC7FBF97D37FBF2B
:1057E0000FB17FBFAB847FBF6D4E7FBF580E7FBFB1
:1057F0006DC47EBFB0707EBF23137EBFCCAB7DBFB8
:10580000AC3A7DBFC9BF7CBF283B7CBFCDAC7BBF62
:10581000BE147BBF02737ABF9DC779BF981279BF50
:10582000F85378BFC58B77BF07BA76BFC6DE75BFA2
:105830000BFA74BFDD0B74BF471473BF521372BFF2
:10584000080971BF73F56FBF9ED86EBF93B26DBF6D
:105850005E836CBF0C4B6BBFA7096ABF3CBF68BFC0
:10586000D86B67BF880F66BF59AA64BF5A3C63BF35
:1058700097C561BF214660BF05BE5EBF532D5DBFAA
:105880001A945BBF6AF259BF534858BFE59556BF9B
:1058900031DB54BF491853BF3D4D51BF207A4FBF34
:1058A000029F4DBFF8BB4BBF12D149BF65DE47BF5A
:1058B00003E445BF01E243BF70D841BF67C73FBFA4
:1058C000F9AE3DBF3B8F3BBF426839BF233A37BF7C
:1058D000F30435BFC9C832BFBB8530BFDE3B2EBF26
:1058E0004AEB2BBF159429BF563627BF25D224BFBC
:1058F000996722BFCBF61FBFD17F1DBFC6021BBF5A
:10590000C07F18BFD9F615BF2A6813BFCDD310BF0B
:10591000DA390EBF6B9A0BBF9BF508BF824B06BFEF
:105920003D9C03BFE4E700BF275DFCBECBE0F6BEB5
:10593000EA5AF1BEBBCBEBBE7533E6BE4F92E0BE7A
:1059400080E8DABE4136D5BECA7BCFBE53B9C9BEE8
:1059500015EFC3BE491DBEBE2A44B8BEEF63B2BE3A
:10596000D47CACBE128FA6BEE59AA0BE86A09ABE1D
:1059700032A094BE229A8EBE938E88BEC07D82BE17
:10598000CCCF78BE7F9A6CBE135C60BE011554BE4E
:10599000C2C547BECF6E3BBEA2102FBEB5AB22BE66
:1059A000834016BE87CF09BE73B2FABD2FBCE1BDDE
:1059B00036BDC8BD80B6AFBD04A996BD752B7BBDF5
:1059C0002EFB48BD2BC316BDB10AC9BC920E49BC03
:1059D00000000080000000006E83F9A22915444EEB
:1059E000D15727FCC0DD34F5999562DB4190433CEB
:1059F000AB6351FE145A000800000020CC000000E8
:105A0000A41D0008E05A0008CC0000206C780000BB
:105A1000B41D0008007A030A000000000000000026
:105A20000102030406070809000000000102030444
:105A3000010203040607080900000000000000003E
:105A40000000DC3B00080008000800000000000027
:105A5000000000009999AE3C00000000000000002A
:105A60000000000000000000000000000000000036
:105A70000000000000000000000000000000000026
:105A8000AAAAAAAA0000000000000000000000006E
:105A90000000000000000000000000000000000006
:105AA00000000000000000000000000000000000F6
:105AB00000000000000000000400000000000000E2
:105AC00000000000000000000000000000000000D6
:105AD00000000000000000000000000000000000C6
