:020000040800F2
:10000000F07600205D020008971A00083D1A0008EB
:10001000951A0008F91400081123000800000000D8
:100020000000000000000000000000009D0100082A
:100030004518000800000000F9010008F11D000843
:1000400077020008770200087702000877020008AC
:10005000770200087702000877020008770200089C
:10006000770200087702000877020008770200088C
:100070007702000877020008FD14000877020008E4
:100080007702000877020008E912000877020008EA
:10009000770200087702000877020008770200085C
:1000A000791E0008B91E00087702000877020008D0
:1000B000770200087702000877020008770200083C
:1000C000770200087702000877020008770200082C
:1000D000770200087702000877020008770200081C
:1000E000770200087702000877020008770200080C
:1000F00077020008770200087702000877020008FC
:1001000077020008770200087702000877020008EB
:1001100077020008770200087702000877020008DB
:1001200055150008770200087702000877020008DA
:1001300077020008770200087702000877020008BB
:1001400077020008770200087702000877020008AB
:10015000770200087702000877020008770200089B
:10016000770200087702000877020008770200088B
:10017000770200087702000877020008770200087B
:100180007702000877020008DFF80CD000F0E4FFE7
:10019000004800479F470008F07600202C4B196864
:1001A0000868B0E8F04F80F30988BFF36F8F4FF015
:1001B000000080F3118870470000000008480068C4
:1001C000006880F308884FF0000080F3148862B65E
:1001D00061B6BFF34F8FBFF36F8F00DF00BF00BF6B
:1001E00008ED00E0DFF80C00016841F470010160E7
:1001F000704700BF88ED00E0EFF30980BFF36F8F19
:10020000134B1A681EF0100F08BF20ED108A20E96A
:10021000F04F106009B44FF0500080F31188BFF325
:100220004F8FBFF36F8F05F067FB4FF0000080F337
:10023000118809BC19680868B0E8F04F1EF0100F6B
:1002400008BFB0EC108A80F30988BFF36F8F704746
:10025000E4000020EFF30580704700000648804767
:1002600006480047FEE7FEE7FEE7FEE7FEE7FEE79B
:10027000FEE7FEE7FEE7FEE71D1E00088901000815
:100280005FEA930C26D000BFD0ED003A91ED001A42
:10029000D0ED010A91ED013A33EE811AD0ED022A38
:1002A00070EE830A91ED022A90ED030AD1ED031A54
:1002B00082ED001AC2ED010A72EE820A30EE210AC6
:1002C0001030C2ED020A82ED030A10311032BCF187
:1002D000010CD9D113F0030308BF7047B3F1004FED
:1002E0002CD2002BD8BF7047001F091F121F13F01C
:1002F000010F0AD090ED010AD1ED010A001D091D80
:1003000030EE200A82ED010A121D5B0808BF70471B
:1003100090ED010AD1ED010A30EE200A82ED010ACA
:1003200090ED020AD1ED020A0830083130EE200AC1
:1003300082ED020A08325B1EEAD17047B0EC010A76
:100340005B1EF1EC010A30EE200AA2EC010AF5D1A5
:10035000704700005FEA930C26D000BF90ED000AC2
:10036000D1ED000A90ED012A91ED011A60EE201AFC
:1003700090ED020A22EE012AD1ED020A90ED031A55
:10038000C2ED001AD1ED031A20EE200A82ED012AF7
:1003900061EE210A82ED020A1030C2ED030A10312B
:1003A0001032BCF1010CD9D113F0030308BF704720
:1003B000B3F1004F2CD2002BD8BF7047001F091F8C
:1003C000121F13F0010F0AD090ED010AD1ED010ABE
:1003D000001D091D20EE200A82ED010A121D5B0896
:1003E00008BF704790ED010AD1ED010A20EE200A06
:1003F00082ED010A90ED020AD1ED020A08300831BF
:1004000020EE200A82ED020A08325B1EEAD1704714
:10041000B0EC010A5B1EF1EC010A20EE200AA2EC0E
:10042000010AF5D1704793081BD090ED000AD0ED7A
:10043000011AD0ED020A90ED031AB1EE400AF1EE76
:10044000611A81ED000AF1EE600AC1ED011AB1EE08
:10045000411AC1ED020A81ED031A103010315B1E02
:10046000E3D112F0030208BF7047B2F1004F23D26C
:10047000002AD8BF7047001F091F12F0010F07D0D4
:1004800090ED010A001DB1EE400A81ED010A091D3F
:10049000520808BF704790ED010AB1EE400A81EDA5
:1004A000010A90ED020A0830B1EE400A81ED020A1D
:1004B0000831521EEFD17047B0EC010A521EB1EE66
:1004C000400AA1EC010AF7D170470000930814D04C
:1004D00090ED032AD0ED000A90ED011AD0ED021A3A
:1004E00022EE002A60EE800A21EE001A61EE801AE8
:1004F000E1EC040A10305B1EEAD112F0030208BFDF
:100500007047B2F1004F24D2002AD8BF7047001FB5
:10051000091F12F0010F07D0D0ED010A001D60EE97
:10052000800AC1ED010A091D520808BF704700BFCB
:10053000D0ED010A60EE800AC1ED010AD0ED020A99
:10054000083060EE800AC1ED020A0831521EEFD178
:100550007047F0EC010A521E60EE800AE1EC010ADD
:10056000F7D170475FEA930C26D000BFD0ED003A78
:1005700091ED001AD0ED010A91ED013A33EEC11A66
:10058000D0ED022A70EEC30A91ED022A90ED030A23
:10059000D1ED031A82ED001AC2ED010A72EEC20A11
:1005A00030EE610A1030C2ED020A82ED030A10310A
:1005B0001032BCF1010CD9D113F0030308BF70470E
:1005C000B3F1004F2CD2002BD8BF7047001F091F7A
:1005D000121F13F0010F0AD090ED010AD1ED010AAC
:1005E000001D091D30EE600A82ED010A121D5B0834
:1005F00008BF704790ED010AD1ED010A30EE600AA4
:1006000082ED010A90ED020AD1ED020A08300831AC
:1006100030EE600A82ED020A08325B1EEAD17047B2
:10062000B0EC010A5B1EF1EC010A30EE600AA2ECAC
:10063000010AF5D1704700009FED1A1AF5EE000A85
:1006400040EE010ABDEEE00AF5EEC00A10EE100A17
:10065000F1EE10FA38BF401E00EE100A1349F7EE13
:10066000001AB8EEC00A30EEC00ADFED0F0A20EE25
:10067000200AFCEEC00A10EE900AC0F3080000EE5B
:10068000900A01EB8000F8EE600A90ED011A70EE1E
:10069000600A90ED000A71EEE01A21EE800A00EE89
:1006A000810A704783F9223E00000044EC6600088E
:1006B000DFED190AB5EEC00A60EE200ABDEEE01AC1
:1006C00011EE100AF1EE10FA38BF401E00EE100ACB
:1006D0001349F7EE001AB8EEC00A30EEC00ADFED9B
:1006E0000F0A60EE200ABCEEE00A10EE100AC0F31A
:1006F000080000EE100A01EB8000B8EE400A90ED11
:10070000011A70EEC00A90ED000A71EEE01A21EEB7
:10071000800A00EE810A704783F9223E00000044FF
:10072000EC660008DFED3C0A20EE200AFDEEC00A70
:10073000B5EEC00A10EE902AF1EE10FA38BF521E44
:1007400000EE902ADFF8D8C0B0EE084AF8EEE00AD2
:1007500030EE600ADFED310A60EE200ABCEEE00AFE
:1007600010EE102AC2F3080200EE102A02F18003F4
:100770000CEB8202B8EE400AC3F308030CEB8303D0
:1007800030EEC00AD2ED000A93ED002A93ED011A73
:10079000F1EE601AD2ED010A71EE422AF1EE603AF2
:1007A000DFED200A31EEA31A21EE203AB0EE001A56
:1007B00041EE213A01EE623A62EE842A43EEE02AEB
:1007C00040EE032A60EE222A41EEA02A00EE222A01
:1007D00081ED002AD3ED001A93ED013AD2ED002A03
:1007E00092ED012A71EE833A01EE213A32EE622A4D
:1007F00063EEA03A41EE423A22EE042A03EE602A6A
:1008000000EE232A20EE021A01EEA01A40EE012A81
:10081000C0ED002A70470000610B363B0000004429
:10082000EC660008DB0F493C2DE9F05F16460246F6
:100830008A46002001465FEA9A0C16D052F8043B23
:1008400052F8044BC01852F8045B41EBE3710019F5
:1008500041EBE47152F8047B401941EBE571C0199A
:1008600041EBE771BCF1010CE8D11AF003032DD084
:10087000B3F1004F32D25F1E002F20DD151F13F0A1
:10088000010F05D155F804CF1CEB000041EBEC71D2
:100890004FF0000CD5F8048064467F100CD008356A
:1008A00010EB080041EBE871D5E900981CEB090C4E
:1008B00044EBE9747F1EF2D110EB0C0061415B1E2A
:1008C00004D452F82320101841EBE27152464FEA4B
:1008D000EA7300F09BF83060BDE8F09F52F804CB5B
:1008E0001CEB000041EBEC715B1EF7D1EEE78A08D0
:1008F00017D0B2F1004F31D2002AC4BF034694464C
:100900000FDDF0EE400AC3ED000AC3ED010AC3EDAE
:10091000020AC3ED030A1033BCF1010CF1D100EB64
:10092000021011F0030108BF7047B1F1004F23D24C
:100930000029D8BF7047021F11F0010F1CBF82EDC4
:10094000010A121D480808BF704782ED010A82EDB6
:10095000020A401E02F10802F7D17047F0EE400A89
:10096000C0ED000AC0ED010AC0ED020AC0ED030AA5
:100970001030521EF2D1D4E7A0EC010A491EFBD17F
:100980007047000030B4930812D0B3F1004F2CD25E
:10099000002BC4BF8C461C460ADD00BFECE80200F9
:1009A000641E4CF8080B4CF8040CF7D101EB031152
:1009B00012F0030204BF30BC7047B2F1004F1FD2E7
:1009C000002ADCBF30BC7047091F12F0010F18BFAE
:1009D00041F8040F520804BF30BC7047486041F82A
:1009E000080F521EFAD130BC704741F8040B5B1E51
:1009F00041F8040B41F8040B41F8040BF5D1D7E79B
:100A000041F8040B521EFBD130BC70472DE9F04178
:100A10000024061B254671F1000605DA0124002793
:100A2000D0EB070067EB0101161E73F1000605DA33
:100A30000027D2EB0702012567EB030300F0AAF8B9
:100A400086460E4617469C46AC4204D00025D0EBA5
:100A5000050E65EB010624B10020D2EB000760EB28
:100A6000030C704631463A466346BDE8F08140EAE1
:100A700001039B0703D009E008C9121F08C0042A1C
:100A8000FAD203E011F8013B00F8013B521EF9D203
:100A90007047D2B201E000F8012B491EFBD270472B
:100AA0000022F6E710B513460A4604461946FFF73A
:100AB000F0FF204610BD0EB5C10F80EAE07008447B
:100AC000CA07002140F233438DE80E000A460B4668
:100AD00000F000F903B000BD00F0004230F000402B
:100AE0000AD0C10D01F56071C0F3160042EA015150
:100AF000C2084007114370470020014670470000BC
:100B000030B5041E71F1000404DB4FF00044404294
:100B100064EB0101141E73F1000405DB1C464FF069
:100B20000043524263EB0403994208BF904230BD38
:100B300001F0004330B421F0004150EA010206D038
:100B40000A0DA2F56072C1F31301002A02DC30BC69
:100B500000207047440F44EAC104C100E01830BCD3
:100B600000EBC25000F047B830B50B4601460020FC
:100B70002022012409E021FA02F59D4205D303FA5F
:100B800002F5491B04FA02F52844151EA2F10102E0
:100B9000F1DC30BD2DE9F05F0546002092469B4612
:100BA00088460646814640241BE028464146474683
:100BB000224600F0F2FA53465A46C01A914110D329
:100BC00011461846224600F0D9FA2D1A67EB0108A3
:100BD0004F4622460120002100F0D0FA17EB000911
:100BE0004E41201EA4F10104DFDC484631462A466E
:100BF0004346BDE8F09F0029A8BF7047401C49004C
:100C000008BF20F00100704710B4B0FA80FC00FA71
:100C10000CF050EA010404BF10BC704749B1CCF19C
:100C2000200421FA04F411FA0CF118BF0121214328
:100C30000843A3EB0C01CB1D4FEA00614FEA1020E3
:100C400042BF002010BC704700EBC3501044002985
:100C5000A4BF10BC7047401C490008BF20F0010031
:100C600010BC7047F0B400F0004221F0004120F0C9
:100C70000040CE0DC30DC1F3160141F40001C0F3D5
:100C800016004C42154640F40000761E09E010EBB9
:100C9000440002D582F0004240428842F7D840002A
:100CA0005B1EB342F9DA18B1F0BC0021FFF7ACBF0C
:100CB0002846F0BC704710B5141E73F1000408DA22
:100CC000401C41F1000192185B411A4301D120F010
:100CD000010010BD2DE9F04D92469B4611B1B1FACD
:100CE00081F202E0B0FA80F22032904600F046FA3B
:100CF00004460F4640EA0A0041EA0B0153465A46B1
:100D0000084313D0114653EA010019D0C8F140023C
:100D1000504600F042FA05460E46504659464246B5
:100D200000F02CFA084305D0012004E020463946A3
:100D3000BDE8F08D0020054346EAE0762C433743BA
:100D40000A986305E40AA0EB08000022FD0A44EAC1
:100D500047540A3002D500200146E9E70105101981
:100D60006941DDE9084500196941BDE8F04DA2E798
:100D70002DE9FE4F804681EA0300C00F0C4600902B
:100D800021F0004123F00045B8EB0200A94105D253
:100D90004046214690461C460B46024623F0004042
:100DA000104347D0270DC7F30A00C3F30A5102903E
:100DB000401A019040286BDAC3F3130040F4801B03
:100DC0000098924620B10023D2EB030A63EB0B0B91
:100DD00001985946C0F14002504600F0CFF906464E
:100DE0000D4650465946019A00F0E7F910EB08000D
:100DF0006141002487EA115284EAE7731A4340D024
:100E0000009A62B3019A012A4FEA075215DC001BCF
:100E100061EB02014FF0004202EA0752CDE90042C5
:100E2000001C41F5801132462B46FFF753FF03B0FB
:100E3000BDE8F08F40462146F9E7001B61EB020157
:100E4000001C41F5801300185B412018A2F5001723
:100E500047EB030140EAD570B6196D4111E06D080A
:100E60004FEA360645EAC0754FEA0752001B61EBB0
:100E70000201001C41F5801149084FEA30000019B9
:100E8000514132462B4603B0BDE8F04FFFF713BF88
:100E90000098012240000023D0EB020263EBE073D4
:100EA000009821464FEAE074B8EB000061EB0401C2
:100EB000E9E783F000435BE781F0004158E72DE963
:100EC000FE4F81EA030404F0004421F00041009445
:100ED0004FF0000B23F0004350EA01045ED052EAC9
:100EE00003045BD0C3F30A54C1F30A552C44A4F2A3
:100EF000F3340194A0FB0254C1F3130141F48011B7
:100F0000C3F3130343F4801301FB024400FB034EBD
:100F1000840A970A44EA815447EA8357A4FB076886
:100F200002958D0A05FB07854FEA932C04FB0C54B0
:100F30002705029D4FEA065847EA1637B5EB080524
:100F40006EEB070C870E920E47EA811742EA831276
:100F5000A7FB0201B6EB0B0164EB00042B0D43EA87
:100F60000C335E1844EB1C50DA465146E7FB020195
:100F7000C5F313044FEA0B3343EA14534FEA043228
:100F8000019C43EA0603A4F10C040294009CCDE901
:100F900000B4FFF79FFE03B0BDE8F08F00200146CC
:100FA000F9E72DE9F04D81EA030404F0004B21F04C
:100FB000004514464FF0000A23F0004150EA0502B4
:100FC00020D054EA01021DD0C5F30A570246C5F3EA
:100FD0001303C1F31300C1F30A5640F4801543F420
:100FE0008013A7EB0608101BD64608F2FD3873EBFA
:100FF000050002D308F1010801E092185B41B8F145
:10100000000F03DA00200146BDE8F08D00204FF408
:101010008011064684460EE0171B73EB050705D3C7
:10102000121B63EB050306434CEA010C49084FEA27
:10103000300092185B4150EA0107EDD152EA0300FB
:1010400012D082EA040083EA0501084305D0101B90
:10105000AB4106D20122002306E000224FF00043FC
:1010600002E06FF0010253101AEB06004CEB08513E
:1010700010EB0A0041EB0B01BDE8F04DFFF71BBE82
:1010800070B5C1F30A5201F000450024C1F3130109
:1010900040F2FF3341F480119A4201DA002070BD22
:1010A00040F233439A42A2F2334203DC524200F050
:1010B00074F800E090402C43F1D0404270BDC1F381
:1010C0000A52C1F3130140F2FF3341F480119A42F6
:1010D00002DA00200146704740F233439A42A2F2FE
:1010E000334202DC524200F058B800F047B800002A
:1010F00030B5041E71F1000404DB4FF0004440429F
:1011000064EB0101141E73F1000405DB1C464FF073
:101110000043524263EB04038B4208BF824230BD5E
:10112000002801DBC0F10040002901DBC1F10041D2
:10113000814202D24FF0004004E04FF0005001D154
:101140004FF0C0404FEA2062EFF3008162F31F616D
:1011500081F3008870470000064C074D06E0E06808
:1011600040F0010394E8070098471034AC42F6D3EE
:10117000FFF70EF8486F0008686F0008202A04DBAC
:10118000203A00FA02F1002070479140C2F120039A
:1011900020FA03F3194390407047202A04DB203AD9
:1011A00021FA02F00021704721FA02F3D040C2F187
:1011B00020029140084319467047202A06DBCB17CE
:1011C000203A41FA02F043EAE07306E041FA02F302
:1011D000D040C2F12002914008431946704770B5D3
:1011E0008C1810F8015B15F0070301D110F8013BD2
:1011F0002A1106D110F8012B03E010F8016B01F859
:10120000016B5B1EF9D12B0705D40023521E0DD4B0
:1012100001F8013BFAE710F8013BCB1A921C03E0FE
:1012200013F8015B01F8015B521EF9D5A142D8D336
:10123000002070BD6FEA11210160704700298168AC
:1012400002D041F0010101E021F00101816070470D
:10125000084B10B5D3F8042307490A40D0E900141D
:101260002143D0E90240044321431143C3F804134E
:1012700010BD000000200140E030FCFF0029816823
:1012800002D041F4807101E021F4807181607047E7
:10129000826822F470220A4382607047826822F4D6
:1012A00040120A4382607047C06C80B270470246A9
:1012B000002012680A4200D00120704730B5024673
:1012C000002053680C0A01258D4011682B402142F3
:1012D00002D0002B00D0012030BD08B508442830D2
:1012E0000090006880B208BD3EB5324D40F2074420
:1012F00021462846FFF7E2FF00285AD0214628461B
:10130000FFF798FF14212846FFF7E7FF2A4C182122
:1013100020802846FFF7E1FF60801C212846FFF768
:10132000DCFFA080012001F0CDFF244804F1200261
:101330000123B0F9001000EE101AB8EEC00A8DEDCE
:10134000000AB0F9021000EE101A1146B8EEC00AF9
:101350008DED010AB0F9040000EE100A6846B8EEFF
:10136000C00A8DED020AFFF7FDF820340123221D8B
:10137000211D01A8FFF7F6F804F108020123154624
:10138000114602A8FFF7EEF80C4922460123103956
:101390001046FEF7DFFF09490123221D1039201DE9
:1013A000FEF7D8FF05492A46012310391046FEF7FB
:1013B000D1FF3EBD002001403C0600203C00002043
:1013C00001238B4041680AB1194300E09943416011
:1013D0007047000030B542680F4B0C791A400B681B
:1013E00042EA04221343436082680C4B4D791A4051
:1013F000D1E9034323438C6844EA45042343134360
:101400008360C26A097D22F47002491EC9B242EAB1
:101410000151C16230BD0000FFFEFFFCFDF7FFC0BF
:1014200070B5072409290AD9C568A1F10A0606EB97
:101430004606B440A543B3401D43C56007E00569B7
:1014400001EB4106B440A543B3401D430561836BE6
:10145000C3F30154121B921C02EB82041F22A24010
:101460009343A1400B43836370BD826B491E22F4FA
:10147000401242EA01518163704770B5072409297F
:101480000AD9C568A1F10A0606EB4606B440A54391
:10149000B3401D43C56007E0056901EB4106B44058
:1014A000A543B3401D4305611F23072A09D2446B9E
:1014B000521E02EB820293409C4391400C434463D2
:1014C00070BD0D2A09D2046BD21F02EB8202934039
:1014D0009C4391400C43046370BDC46A0D3A02EB17
:1014E000820293409C4391400C43C46270BD81686A
:1014F00041F0804181607047FEE7000038B5002070
:10150000104D114C00902946204600F031F968B189
:101510002946204600F072F80C48006810B1694670
:1015200004F0E0FB0021204600F07EF8009800283F
:1015300007D007494FF080500860BFF34F8FBFF3CB
:101540006F8F38BD008000185860024024000020D2
:1015500004ED00E02DE9F041DFF86080184F4146CE
:10156000384600F005F9174C174EA4F16C0568B128
:101570004146384600F042F82088E880608828819B
:10158000A0886881E088A88101203070DFF83C8065
:101590003846414600F0ECF800280DD04146384668
:1015A00000F02CF82089E88060892881A089688172
:1015B000E089A88102203070BDE8F0811040001061
:1015C00010640240A806002028000020208000109F
:1015D000074A904201D2074801E005481038064A00
:1015E0008B0001EA020101D5C1607047816070473C
:1015F00010640240006002407D0F7D0F074A904258
:1016000001D2074801E005481038064A8B0001EA7C
:10161000020101D5C16070478160704710640240CB
:10162000006002407D0F7D0F0029016802D041F06B
:10163000010101E021F00101016070472DE9F04353
:10164000016821F0010101600021016041608160B9
:10165000C1600161212141613C493C4A3D2510396D
:10166000904202D18D60BDE8F083384A4FF4746631
:101670001832904201D18E60F5E7344A4FF4741766
:101680003032904201D18F60EDE7304A4FF0746CF8
:101690004832904202D1C1F808C0E4E72B4B2C4AF3
:1016A0006033984201D1CA60DDE7284C294B783479
:1016B000A04201D1CB60D6E7DFF89080264C08F13C
:1016C0009008404501D1CC60CDE7DFF880804FF035
:1016D0003D5908F1A808404502D1C1F80C90C2E775
:1016E0001E49DFF878800839404501D10D60BAE71E
:1016F0001A4D1835A84201D10E60B4E7174D3035A8
:10170000A84201D10F60AEE7144D4835A84202D17E
:10171000C1F800C0A7E7114D10496035091FA84264
:1017200001D10A609FE70D4A7832904201D10B60E7
:1017300099E70A4A9032904201D10C6093E7074A38
:10174000A83290428FD1C1F800908CE7106002401F
:101750003D000020400F002000003D2010640240AA
:10176000014600200968C90700D001207047000029
:1017700030B5104A0024904201D20F4B01E00D4BCE
:10178000103B0E4A114205D01E2202EAD125026802
:101790002A4002E0406900F08002880001D55868C4
:1017A00000E01868064B1840084201D002B101243D
:1017B000204630BD10640240006002403C0F3C0FE8
:1017C0007D0F7D0F0B0607D5436912B143F08003EF
:1017D00001E023F080034361802908D0002A0268D9
:1017E00001F01E0101D00A4300E08A430260704705
:1017F00030B50368124ACC6813400A682243D1E925
:1018000005452C432243CC6922430C6A22434C6A8F
:1018100022438C6A22434C6B22438C6B22431A4333
:101820000260426922F00703D1E90B2422431A43E4
:1018300042610A6942604A6882608968C16030BD5D
:101840003F801CF0704700001CB500210120CDE94D
:1018500000010B46820207A1094804F02FFC094948
:101860000128086004D0BDE81C4007A002F0EABBD4
:101870001CBD0000446562756750726F6300000014
:101880007153000850000020446562756720746140
:10189000736B20637265617465204661696C656471
:1018A000000000001CB500210420CDE900010B461A
:1018B000020207A1094804F001FC09490128086057
:1018C00004D0BDE81C4007A002F0BCBB1CBD00005A
:1018D000464F43436F6E74726F6C00007D53000877
:1018E00050000020464F4320436F6E74726F6C208F
:1018F0007461736B20637265617465204661696C05
:1019000065640000F0B50023012403270D6804FA84
:1019100003F21540954242D1D0F800C05E0007FAAC
:1019200006F52CEA050CC0F800C091F804C0D0F808
:1019300000E00CFA06FC4CEA0E0CC0F800C091F86E
:1019400004C0BCF1010F02D0BCF1020F1FD1D0F8CE
:1019500008C02CEA050CC0F808C091F805C0D0F802
:1019600008E00CFA06FC4CEA0E0CC0F808C0D0F8EF
:1019700004C02CEA020CC0F804C0426891F806C00A
:101980000CFA03FC1FFA8CFC42EA0C024260C268AB
:10199000AA43C260CA79C568B2402A43C2605B1CD0
:1019A000102BB3D3F0BD4B07DB0E9A40C90810B51E
:1019B00000EB8100016A0F249C40A1430162016A8F
:1019C0001143016210BD0246002012690A4200D094
:1019D00001207047090481617047816170470000F0
:1019E0001CB500210320CDE900010B464FF48062B5
:1019F00006A1094804F062FB08490128086004D0E8
:101A0000BDE81C4006A002F01DBB1CBD4761746808
:101A1000657250726F630000D553000850000020BB
:101A20004465627567207461736B206372656174CD
:101A300065204661696C656400000000FEE70000F7
:101A40001CB500210220CDE900010B46402207A170
:101A5000084804F033FB08490128086004D0BDE8B9
:101A60001C4006A002F0EEBA1CBD00004C6564509C
:101A7000726F63007D540008500000204C454420E4
:101A80007461736B20637265617465204661696C73
:101A900065640000FEE7704700F01F0201219140DD
:101AA0004009800000F1E020C0F8001170470000FC
:101AB00030B50F22C47801780123FCB1144C24689E
:101AC00001F1E02104F4E064C4F5E064C4F3072408
:101AD000C4F10405E2404478AC40857815402543C4
:101AE0002A0181F80024007800F01F018B40400992
:101AF000800000F1E020C0F8003130BD01F01F008F
:101B000083404809800000F1E020C0F8803130BDFA
:101B10000CED00E00FB42DED020B10B52DED048B94
:101B2000B0EE408AF0EE608ADDED089AB0EE690A08
:101B3000FEF782FDB0EE401AB0EE690AB0EE419AAF
:101B4000FEF7B6FD68EE890A084948EE400A10EE35
:101B5000900ACDED090A884201DDDFED050ACDEDE1
:101B6000090ABDEC048B10BC5DF81CFB920A063F11
:101B7000920A063F044A0029116801D0014300E09F
:101B8000814311607047000030380240044A002948
:101B9000116801D0014300E08143116070470000EB
:101BA00040380240044A0029116801D0014300E096
:101BB00081431160704700004438024070B5204AEC
:101BC0001168204C11F00C0104D06610042903D0D8
:101BD000082903D004601BE0066019E01849091FBA
:101BE0000B68C3F380550B6803F03F0315B1B6FBD8
:101BF000F3F301E0B4FBF3F30C680968C4F3881451
:101C00006343C1F30141491C4900B3FBF1F1016099
:101C100011680F2303EA11110B4B5C5C0168E14072
:101C200041601468072505EA94241C5D21FA04F438
:101C30008460126805EA52329A5CD140C16070BD7E
:101C4000083802400024F4001400002010B5324C83
:101C50009FED300A0F202DED028BB7EE008A84ED48
:101C6000000A9FED2E0A84ED010A84ED028A9FEDA1
:101C70002C0A84ED038A84ED040AA0829FED290BCF
:101C800000F076FB51EC100BFEF752FF00EE100A4D
:101C900004F1200084ED060AD4ED031A94ED021A33
:101CA00038EE400AC1EE810A94ED001AC8EE011A1E
:101CB00060EEA10A20EE800ADFED1D0A84ED070A1E
:101CC000B1EE040A80ED0A0A9FED180A80ED090AB8
:101CD000B6EE000A80ED0B0AB3EE040A80ED0C0AA2
:101CE000B2EE080A80ED0D0AA18A490000EE101A32
:101CF000B8EE400A20EE200ADFED0E0A80EE801AD0
:101D00009FED0D0A80ED0E1A80ED0F0ABDEC028BDF
:101D100010BD0000CCEE293E380900208569CE397F
:101D200017B7D138000000C0DD94A5BFC1CA213E5D
:101D3000DB0F4940000070429A99993E0CB5002093
:101D40002749019000900A6842F480320A604FF4FB
:101D5000A0430A6802F400320092019A521C0192D8
:101D6000009A12B9019A9A42F3D10A68920334D5C3
:101D7000012000901A484030026842F08052026010
:101D80001848026842F44042026015480830026870
:101D90000260026842F400420260026842F4A0520B
:101DA0000260031F104A1A600A6842F080720A60DB
:101DB0000A689201FCD50D4A40F205711160016874
:101DC00021F003010160016841F002010160016836
:101DD000C1F381010229FAD10CBD00900CBD0000B5
:101DE000003802400070004008544007003C0240A8
:101DF00010B5502080F31188BFF34F8FBFF36F8F62
:101E000004F0E8F918B104494FF080500860002050
:101E100080F3118810BD000004ED00E0124810B5F9
:101E2000016841F4700101601048016841F001014E
:101E300001600E4A00210832116002680C4B1A4002
:101E40000260031D0B4A1A60026822F480220260BD
:101E500006480C300160FFF771FF03494FF0006046
:101E60008039086010BD000088ED00E000380240B5
:101E7000FFFFF6FE1030002410B5094C80212046EB
:101E800000F05BF800280AD08021204600F03BF8E3
:101E900001F040FEBDE8104002A002F0D3B810BD32
:101EA0000000014050574D204661756C742045720A
:101EB000726F72210000000010B5094C012120460C
:101EC00000F03BF800280AD00121204600F01BF862
:101ED0002088C00603D5BDE8104002F07BB910BDD4
:101EE0000000014010B50A884B88CC881A438B88C3
:101EF00023431A430B891A434B8989891A430A439E
:101F0000A0F8442010BDC943018270470029018810
:101F100002D041F0010101E021F001010180704790
:101F2000002930F8441F02D041F4004101E0C1F320
:101F30000E0101807047406A704702460020138AF4
:101F400092890B4202EA010202D0002A00D001204D
:101F50007047002A828901D00A4300E08A438281C7
:101F60007047000030B5028C22F001020284028C1E
:101F70008388048B22F0020224F073050C882C4322
:101F80008D8915434A882A430C4DA84202D00C4D36
:101F9000A8420DD122F00805CA8923F440732A43D0
:101FA00022F004058A882A430D8A1D434B8A2B435D
:101FB0008380048389684163028430BD000001404E
:101FC00000040140028B22F008020A43028370479A
:101FD00070B5028C22F010020284028C8488038B7C
:101FE0000D8823F4E6464FF6FF7303EA05253543D3
:101FF0008E8922F0200203EA061616434A8803EA75
:1020000002123243104EB04202D0104EB04215D1EF
:1020100022F08006CA8924F4406403EA02123243A3
:1020200022F040068A8803EA021232430E8A03EA4B
:10203000860626434C8A03EA84043443848005835D
:1020400089688163028470BD000001400004014082
:10205000028B4FF6FF7322F4006203EA0121114361
:102060000183704770B5028C22F480720284028C66
:102070008488838B0D8823F073031D4322F400733F
:102080008E894FF6FF7202EA06261E434B8802EA4B
:1020900003233343104EB04202D0104EB04215D14C
:1020A00023F40066CB8924F4405402EA032333432B
:1020B00023F480668B8802EA032333430E8A02EA04
:1020C000061626434C8A02EA04143443848085832E
:1020D0008968C163038470BD0000014000040140B1
:1020E000828B22F008020A438283704770B5028C0B
:1020F00022F480520284048C8288838B0D8823F41E
:10210000E6464FF6FF7303EA0525354324F40056EF
:102110008C8903EA043434434E8803EA06362643A6
:10212000084CA04202D0084CA04205D122F48044C1
:102130000A8A03EA821222438280858389680164C5
:10214000068470BD0000014000040140828B4FF600
:10215000FF7322F4006203EA012111438183704777
:10216000828822F07002828082880A4382807047CF
:102170004163704781637047C163704730B502881F
:10218000164B174C98420DD0A0420BD0B0F1804FA7
:1021900008D0144DA84205D0134DA84202D0134DCB
:1021A000A84203D122F070054A882A43104DA84264
:1021B00006D0104DA84203D022F440750A892A4364
:1021C00002804A68C2620A880285984201D0A04211
:1021D00001D1897A01860121818230BD0000014050
:1021E000000401400004004000080040000C0040D2
:1021F00000100040001400400029818902D041F401
:10220000005101E021F4005181817047002A828A47
:1022100001D00A4300E08A438282704702460020D0
:1022200012880A4200D00120704710B5C1F3421352
:1022300001F01F040121A140012B07D0022B07D080
:102240001430002A026805D00A4304E00C30F8E795
:102250001030F6E78A43026010BD00007FB50446E7
:10226000008A0D4620F44051E88808432082A08966
:1022700041F20C618843A9882A8911436A89024383
:102280001143A181A08A20F44071A8890843A0824B
:102290006846FFF793FC1A48844202D019488442EA
:1022A00001D1039800E00298A189090400EBC00164
:1022B00001EB0010296801D5490000E08900B0FB5E
:1022C000F1F26420B2FBF0F109010B096FF018057F
:1022D0006B4302EB8302A3891D044FF0320306D542
:1022E00003EBC202B2FBF0F000F0070005E003EBE5
:1022F0000212B2FBF0F000F00F00084320817FBD16
:102300000010014000140140C1F3080181807047B2
:10231000FEE700007CB5044600201D461646002955
:102320000BD0491ECDE90041044B6A462946304690
:1023300000F0FAFB009A002111707CBD57320008B2
:1023400003B401984100009850EAC12018BF04204E
:102350004A0D18BF40F0010040F2FF72B2EB515F2E
:1023600008BF40F00200012808BF052002B07047F6
:1023700070B52DED020B2DED0A8B82B00D98C40FB8
:1023800020F00045AE48854248D3AE48854219D377
:102390000C99C5F31300084309D09DED0C0B02B056
:1023A000BDEC0A8B02B0BDE8704000F0B3BA002C5F
:1023B00014BF9FEDA50B9DED0C0B02B0BDEC0A8B7D
:1023C00002B070BD9FEDA20B53EC102B9DED0C0BDA
:1023D00051EC100BFEF794FB0AD2022000F0DCFA5D
:1023E00002B0BDEC0A8B02B0BDE8704000F09CBAB0
:1023F0009FED990B53EC102B9DED0C0B51EC100B3A
:10240000FEF776FE0AD2022000F0C6FA02B0BDEC5A
:102410000A8B02B0BDE8704000F096BA90489FED7C
:1024200092BBA8425CD29248854219D29148784426
:1024300000EBC40090ED000B53EC102B9DED0C0B4A
:1024400051EC100BFEF735FD41EC1A0B8A4878442D
:1024500000EBC40090ED009BC4F10100041B36E0CA
:102460009FED870B53EC102B9DED0C0B51EC100BDB
:10247000FEF725FD41EC100B8348784400EBC400C7
:1024800090ED001B51EC100B53EC112BFEF770FC80
:10249000FEF7F6FD0446FEF70EFB41EC180B9FED30
:1024A0007C0B53EC102BFEF70AFD9DED0C1B53EC3F
:1024B000112BFEF701FD41EC1A0B9FED770B51EC50
:1024C000180B53EC102BFEF7FAFC41EC190B51ECF6
:1024D0001A0B53EC192BFEF7ECFCCDE90C011BE0B9
:1024E0006F48854217D29FED700B53EC102B9DED7A
:1024F0000C0B51EC100BFEF73BFC53EC1B2BFEF7C7
:10250000FFFA08D29DED0C0B53EC1B2B51EC100B7A
:10251000FEF72EFC6EE000249DED0C0B53EC102B0F
:1025200051EC100BFEF7CBFC41EC180B6048052179
:10253000B0EE480AF0EE680A784400F06FF953EC08
:10254000182B51EC100BFEF7BAFC9DED0C1B53EC55
:10255000112BFEF7B1FC41EC180B9FED570B5CB350
:1025600053EC182B51EC100BFEF7A3FC9DED0C0B5C
:1025700041EC1C0B53EC182B51EC100BFEF79FFC9D
:1025800053EC1C2BFEF70DFD53EC192BFEF794FCBE
:1025900053EC1A2BFEF78DFC53EC1B2BFEF78CFC37
:1025A000CDE900016FF47F70844226DB01EB04501B
:1025B00001909DED000B00E753EC102B51EC180B34
:1025C000FEF777FC9DED0C0B41EC190B53EC182B2F
:1025D00051EC100BFEF773FC53EC192BFEF7E1FCEA
:1025E0009DED0C1B53EC112BFEF763FC53EC1B2BE6
:1025F000FEF762FC41EC100BDFE608464FF07A5123
:1026000001EB04519FED2E0B084453EC102B01906D
:102610009DED000B51EC100BFEF751FC0D4645EC07
:10262000100B044651EC100BFFF78AFE042808BF7C
:1026300000F08AF945EC104BBFE6000000000000F6
:10264000422E86400000F07F0000000000000000E5
:10265000EF39FAFE422E864051302DD5104987C001
:10266000422ED63F00000000000000000000F03FB6
:10267000B2A2F03FCE4A0000BE4A000000000000B7
:10268000FE822B654715F73F724A000000000000EC
:102690000000E0FE422EE63F763C7935EF39EA3D18
:1026A0000000303E000000009C7500883CE4377E4E
:1026B000E4490000000000000000000000000040AD
:1026C00000000000000070012DED020B019820F0C9
:1026D000004001909DED000B02B0704710B52DED4C
:1026E000028BB0EE608AF0EE408A18EE101A18EEF7
:1026F000900AFEF715FD00F07040B0F1005F0CD0BD
:1027000018EE100A20F00040C0F1FF40C00F02BFD9
:10271000B0EE480ABDEC028B10BDB0EE680ABDEC0D
:10272000028B10BD10B52DED028BB0EE608AF0EE7D
:10273000408A18EE101A18EE900AFEF7F1FC00F02D
:102740007040B0F1004F0CD018EE100A20F000409D
:10275000C0F1FF40C00F02BFB0EE480ABDEC028BD3
:1027600010BDB0EE680ABDEC028B10BD10B52DEDAA
:10277000028BF0EE408A18EE900AB0EE608A20F0EC
:102780000040C0F1FF40C00F07D118EE100A20F042
:102790000040C0F1FF40C00F2BD018EE101A18EE09
:1027A000900AFEF75FFA00EE100A10EE100A6FEAC8
:1027B000D05010F0FF0F04BFBDEC028B10BD18EE1F
:1027C000900A00F0004110EE100A00F00040814233
:1027D00004BFBDEC028B10BD18EE101A10EE100AEB
:1027E000BDEC028B61F31E0000EE900A30EE600A31
:1027F00010BD18EE900A4FF07F41B1EB400F1CBFA7
:1028000018EE100A5FEA4000C7D1012000F0C4F8BA
:10281000BDEC028BBDE8104000F0A6B870B50446D0
:102820002DED028B4D1E00EBC500B0EE408AF0EEA0
:10283000608A90ED000B35F0060017D053EC182B92
:1028400051EC100BFEF73BFB41EC100B6D1E04EB43
:10285000C50090ED001B51EC100B53EC112BFEF753
:1028600087FA41EC100B35F00600E7D1022D36D087
:10287000042D1CD0062D1CBFBDEC028B70BD53EC8B
:10288000182B51EC100BFEF71AFB94ED0A1B53ECBE
:10289000112BFEF76DFA53EC182BFEF710FB94ED9D
:1028A000081B53EC112BFEF763FA41EC100B53ECB1
:1028B000182B51EC100BFEF702FB94ED061B53ECAA
:1028C000112BFEF755FA53EC182BFEF7F8FA94ED9E
:1028D000040B53EC102BFEF74BFA41EC100B53ECAE
:1028E000182B51EC100BFEF7EAFA94ED021B53EC97
:1028F000112BFEF73DFA53EC182BFEF7E0FA94ED9E
:10290000001B53EC112BFEF733FABDEC028B41ECAC
:10291000100B70BD10B553EC102B51EC100BFEF7E3
:1029200027FA41EC100B10BD9FED050B10B553ECD1
:10293000102B51EC100BFEF7C2FA41EC100B10BD3E
:1029400000000000000000709FED050B10B553EC77
:10295000102B51EC100BFEF7B2FA41EC100B10BD2E
:102960000000000000000010DFED020A80EEA00A67
:10297000704700000000000002E008C8121F08C1F4
:10298000002AFAD170477047002001E001C1121FF0
:10299000002AFBD170470000014908607047000021
:1029A000380100202DE9FF5F82B00021DDE904300D
:1029B000020DDDF840B0034318D044F61050A2F2E7
:1029C000FF3242431514119801281FD0A5EB0B00CC
:1029D000401C5FEA000A4FF000064E4FDFF83891C6
:1029E000B046504615D5CAF1000413E011980124F1
:1029F0004AA3012801D16FEA0B010298119AC0E99C
:102A00000031C0E9024206B0BDE8F09FCBF1000002
:102A1000DFE704460021404A491842EB0450CDE963
:102A2000001012E0E00707D032463B4640464946D8
:102A3000FEF745FA8046894632463B46104619461F
:102A4000FEF73DFA06460F466410002CEAD1DDE998
:102A50000401DDE90023BAF1000F06DAFEF72FFAD0
:102A600042464B46FEF72BFA05E0FEF79AFA42463D
:102A70004B46FEF796FA04460E460022284BFEF718
:102A80003FF803D84FF0FF30014607E00022254B06
:102A900020463146FEF76CF9FEF711FB102409E0E1
:102AA000002C0ADB0A220023FEF774F8039B303265
:102AB0001A55641E50EA0102F2D1641C039AC4F153
:102AC00011031444119A012A03D0012208430DD1A5
:102AD0000AE0084304D000204FF0110B119072E778
:102AE000A3EB0B056D1E0DE05B4504DD4FF000020E
:102AF00005F1010504E003DA4FF00002A5F101053C
:102B0000002AECD002981199C0E90231C0E90045D1
:102B100079E70000000014400000F03F30000000A2
:102B20000000F0430000E03F2DE9FF4F95B09B46C9
:102B30008946064600250FE2252877D1002427463E
:102B4000F84A0121059400E0044316F8013F203BB8
:102B500001FA03F01042F7D130782A2811D06FF033
:102B60002F033078A0F13002092A16D8059A44F0D4
:102B7000020402EB820203EB42021044761C059031
:102B8000EFE759F8042B0592002A03DA504244F487
:102B90000054059044F00204761C30782E2816D19B
:102BA00016F8010F44F004042A280DD06FF02F020C
:102BB0003078A0F13003092B09D807EB870302EB2B
:102BC0004303C718761CF3E759F8047B761C30786A
:102BD0006C280FD006DC4C2817D068280DD06A2846
:102BE00014D104E0742810D07A280FD10DE044F4F9
:102BF00000140AE044F4801401E044F440147278B4
:102C0000824202D104F58014761C761C3078662846
:102C10000BD013DC582877D009DC002875D0452864
:102C2000F6D04628F4D047281AD19DE118E0632851
:102C300035D0642879D0652812D195E1702873D0F9
:102C400008DC6728F1D069286FD06E280DD06F2876
:102C500006D1B5E073282CD0752875D0782874D0AB
:102C60005A46179990476D1C75E1C4F3025002282B
:102C700009D003280DD0D9F8001004280DD00D601C
:102C800009F1040967E1D9F80010EA17C1E9005217
:102C9000F6E7D9F800100D80F2E70D70F0E719F8AB
:102CA000041B8DF8001000208DF80100EA46012079
:102CB00003E059F804AB4FF0FF3061074FF000011B
:102CC00002D40DE008F101018846B9420FDA8045CF
:102CD000F8DB1AF808100029F4D108E008F1010126
:102CE00088468142FADB1AF808100029F6D10598C7
:102CF0005B46A0EB080721463846179A00F094FA85
:102D0000284400EB080507E04DE029E10DE01AF842
:102D1000010B5A4617999047B8F10108F7D25B4664
:102D200021463846179A13E142E00A220092C4F382
:102D300002524FF0000A022A08D059F804CB032AA5
:102D40004FEAEC710AD00DE029E02AE009F1070111
:102D500021F00702F2E802C1914609E00FFA8CFC6B
:102D60004FEAEC71042A03D14FFA8CFC4FEAEC7164
:102D7000002907DA0A460021DCF1000C61EB0201B0
:102D80002D2202E0220504D52B228DF804200122F9
:102D900003E0E20701D02022F7E7904659E00A213C
:102DA00002E010220DE010214FF0000A00910BE02C
:102DB00010224FF0000A44F004040827009203E0B8
:102DC00008224FF0000A0092C4F30252022A05D0F2
:102DD00059F804CB0021032A08D009E009F10701C2
:102DE00021F00702F2E802C1914605E01FFA8CFCCF
:102DF000042A01D10CF0FF0C4FF00008220728D55F
:102E0000702806D0009B83F0100353EA0A0305D014
:102E10000EE040228DF80420012208E05CEA010265
:102E200006D030228DF804208DF80500022290464D
:102E3000009B83F0080353EA0A030AD15CEA01020B
:102E400001D1620705D530228DF804204FF001082A
:102E50007F1E582804D034A003900EA802900DE0E5
:102E600036A0F9E753466046009AFDF793FE844684
:102E70000398825C0298401E029002705CEA010096
:102E8000F0D1029806A9081A00F1200A600702D5BD
:102E900024F4803400E00127574502DDA7EB0A0047
:102EA00000E0002000EB0A01009005984144401A20
:102EB0000590E00306D45B462146179A059800F07A
:102EC000B3F90544002706E001A85A46C05D1799EA
:102ED00090476D1C7F1C4745F6DBE0030CD55B4635
:102EE0002146179A059800F09FF9054404E0302028
:102EF0005A46179990476D1C0099481E009000296A
:102F0000F5DC08E0029802995A460078491C0291C3
:102F1000179990476D1CBAF10001AAF1010AF1DC82
:102F200065E100000928010030313233343536378D
:102F30003839616263646566000000003031323305
:102F400034353637383941424344454600000000A5
:102F500000F058F90544761C307800287FF4ECAD79
:102F600019B02846BDE8F08F620700D4062709F1A2
:102F7000070222F0070CFCE80223E14603F00048B8
:102F80005FEA080C02D00FF2702C0DE05FEA045CDF
:102F900002D50FF2682C07E05FEAC47C02D00FF282
:102FA000602C01E0AFF2700C4FF0FF3823F00043CB
:102FB000CDF850C065280CD006DC452809D046283D
:102FC0001DD047283DD13DE0662818D067287ED126
:102FD00038E00021112F01DB112000E0781CCDE941
:102FE000000106A90EA8FFF7DDFCDDE90F010E9A2E
:102FF00003910021009207F1010A04914DE04FF086
:1030000000400097CDE9011006A90EA8FFF7CAFC01
:10301000DDE90F0203920E9B11990022DDF80CA04E
:103020000093049211B9791C00EB010AB7EB0A0076
:1030300004D4C0F1FF3007F1010A0490AAEB0700A5
:10304000019044E0012F00DA01270021112F01DD5A
:10305000112000E03846CDE9000106A90EA8FFF7CF
:10306000A1FCDDE90F010E9A039100210491009269
:10307000BA4621070CD40399514500DA8A46BAF1C1
:10308000010F05DD009AAAF10101515C302908D039
:10309000B84202DA10F1040F06DA0121CDE901107D
:1030A00015E0AAF10101E9E7002805DC04990144D3
:1030B0000491AAEB000102E0411C514500DD8A4663
:1030C0000499401A401C01904FF0004002902007E4
:1030D00004D40198504501DBCDF8048000208DF820
:1030E0004F0002980DF14F07B0F1004F25D02B2073
:1030F0000E9002984FF0020800280CDA404202902D
:103100002D200E9007E00A210298FDF72DFD3031A9
:10311000029007F8011DB8F10001A8F10108F2DCE6
:1031200002980028EFD1791E0E980870307800F0D0
:10313000200040F0450007F8020D12A8C01B00F166
:1031400007081498007800B1012000EB0A010198EB
:1031500001EBE07105984144401A401E0590E003E0
:1031600006D45B462146179A059800F05DF80544A1
:103170001498007818B15A46179990476D1CE003CF
:1031800024D55B462146179A059800F04DF8054472
:103190001CE00498002807DBDDE90301884203DD19
:1031A0000098405C179901E0179930205A469047E3
:1031B000049805F10105401C04900198401E0190FF
:1031C00004D12E205A46179990476D1CBAF1000180
:1031D000AAF1010ADDDC05E017F8010B5A46179940
:1031E00090476D1CB8F10001A8F10108F4DC5B46C2
:1031F0002146179A0598ABE62D0000002B00000031
:10320000200000002DE9F041044600251E46174627
:10321000880404D405E039462020B0476D1C641EA4
:10322000F9D52846BDE8F0812DE9F0410446002596
:103230001E469046C80301D5302700E020278804A9
:1032400004D505E041463846B0476D1C641EF9D5EB
:103250002846BDE8F0814A68002A06D00A68531C57
:103260000B6010704868401E486070477CB5DFED09
:10327000120A0D46044620EE200A01A96846FDF711
:1032800051FA94ED000ADFED0D0A94ED011ADFED1D
:103290000C1A60EE200A41EE210A9DEC021A20EE83
:1032A000212A00EE812A60EEA10A40EE410A85ED56
:1032B000002AC5ED010A7CBDE02E65423ACD133FE0
:1032C0003ACD933F70B501268A4D8B4C88B00128CA
:1032D00005D000287ED1E87800287CD0AFE0A8781F
:1032E00008BBB4F90000012100EE100A8148B8EED5
:1032F000C00A0830FDF7FBFAB4F90200012100EE24
:10330000100A7C48B8EEC00A0C30FDF7F0FAB4F9A8
:103310000400012100EE100A7648B8EEC00A103011
:10332000FDF7E5FAAE70B4F9000000EE100AB8EE51
:10333000C00A8DED040AB4F9020000EE100AB8EEDE
:10334000C00A8DED050AB4F9040000EE100AB8EECB
:10335000C00A8DED060A9FED690A8DED020A9FED08
:10336000680A01238DED030A6A4604A902A8FCF746
:10337000F1FF6049012301AA083103A8FCF7EAFF25
:103380005C4A0123083201A96846FCF779FF012352
:103390006A4605A902A8FCF7DDFF5649012301AAE8
:1033A0000C3103A8FCF7D6FF524A01230C3201A9C5
:1033B0006846FCF765FF01236A4606A902A8FCF7E8
:1033C000C9FF4C49012301AA103103A8FCF7C2FF31
:1033D000012301E014E015E0464A01A910326846D5
:1033E000FCF74EFF444895ED020A203080ED000ABC
:1033F00095ED030A80ED010A95ED040A80ED020ABD
:1034000008B070BD3C49B4F9060004222C31FDF728
:10341000B9FA3949B4F9080004223C31FDF7B2FA8F
:103420003549B4F90A0004224C31FDF7ABFA3249B0
:10343000B4F90C0004225C31FDF7A4FAEE702E4AB8
:1034400068782C32B4F9061042F820101032B4F922
:10345000081042F820101032B4F90A1042F8201077
:103460001032B4F90C1042F82010234804AA0421A9
:103470002C30FDF7D9F920486A4604213C30FDF78D
:10348000D3F91D4801AA04214C30FDF7CDF91A48A3
:1034900002AA04215C30FDF7C7F91648DDED040AE5
:1034A0001430F8EEE00A90ED020A134860EE200AAC
:1034B0001030C0ED000ADDED000AF8EEE00A60EE23
:1034C000200AC0ED010ADDED010AF8EEE00A60EE27
:1034D000200AC0ED020ADDED020AF8EEE00A20EE55
:1034E000200A80ED030A6878401C00F00300687031
:1034F00086E70000280000203C060020CDCCCC3E12
:103500009A99193FB0EE002AF0EE402A10B540EE2D
:10351000822A2DED028B8CB0DFED3F0A3F494048F7
:1035200062EEA03AF0EE412AD1ED004A41EE822A45
:1035300090ED072AD0ED091A91ED044A04EEC21A63
:1035400001F1200422EEA03AD1ED070A30EE420A42
:10355000302220EE811A303100EEE11AF0EE421AEC
:1035600041EE041AC0ED0D1AD0ED082A90ED0A1AAA
:1035700094ED0A2A04EEE23A20EE833A00EEC13AD4
:10358000B0EE621A73EEE22A62EE000A22EE222AFE
:10359000C0ED090A03EE041A80ED0A2A94ED090A27
:1035A000D0ED0B2A60EE208AF7EE000A20EE028AA8
:1035B00070EEC00A40EEA28AC0ED0B8A90ED0C0AB4
:1035C00000EE808A80ED0C8AC0ED071A80ED081AA3
:1035D0006846FDF74CFA2046F0EE680A0FC8B0EED8
:1035E000480AFEF797FA94ED000ADFED0E0AB5EEF1
:1035F000C00AF1EE10FA02D230EE200A06E010EE18
:10360000100A0949884203DB30EE600A84ED000AA3
:103610000CB0BDEC028B10BD3ACD133F3809002031
:1036200064000020DB0FC940DB0FC9402DE9F047E3
:103630000026DFF8448135462DED028B34464FF4E9
:103640007A79374602214046FDF731FE0028F9D04D
:103650004046FDF729FE02214046FDF728FE0028DE
:10366000F9D04046FDF720FE02214046FDF71FFE3F
:103670000028F9D04046FDF717FE7F1CBFB2642F2B
:10368000E0D30027C2460221D0465046FDF70FFE88
:103690000028F8D04046FDF707FE064402214046C8
:1036A000FDF705FE0028F9D04046FDF7FDFD054475
:1036B00002214046FDF7FBFD0028F9D04046FDF70A
:1036C000F3FD7F1CBFB2DFF8B4809FED2D8B044467
:1036D0004F45D8D3A6F5FA10FDF7EDF941EC100BE4
:1036E000FEF7F2FF53EC182B51EC100BFDF708FA24
:1036F0002AD2A5F5FA10FDF7DEF941EC100BFEF722
:10370000E3FF53EC182B51EC100BFDF7F9F91BD22A
:10371000A4F5FA10FDF7CFF941EC100BFEF7D4FF3A
:1037200053EC182B51EC100BFDF7EAF90CD24FF4C7
:103730000061A8F80010A8F80210A8F804102346A9
:103740002A46314610A010E0484696FBF0F195FB62
:10375000F9F294FBF9F009B2A8F8001012B203B222
:10376000A8F80220A8F8043012A0BDEC028BBDE836
:10377000F04700F067BC0000002001403C00002042
:10378000000000000088B3400D0A63616C69625F4D
:1037900063757272656E745F6F66667365742066BA
:1037A00061696C6564203A202564202564202564C5
:1037B000000000000D0A63616C69625F63757272DC
:1037C000656E745F6F666673657420737563636599
:1037D0007373203A202564202564202564000000AE
:1037E000014890ED050A704758090020014890EC07
:1037F000040A70474C0600202DE9F0419EB000F00D
:10380000E9F8FFF713FF6D4E00213046FDF716FD76
:1038100001210520FEF7AEF94FF4807801214046E2
:10382000FEF7C0F901218805FEF7A4F90F201690D4
:1038300003208DF85C0000248DF85F4016A96048D5
:10384000FEF760F80720169016A95E48FEF75AF8B2
:103850004FF470604FF48037CDE91A40CDE9184736
:1038600018A8FDF7F5FC012510948DF844500420AC
:103870008DF84550129414948DF85400B06840F4BB
:103880000070B06010A93046FDF7A4FD07230122A7
:1038900000213046FDF7F1FD0723022201213046C9
:1038A000FDF7EBFD0723032202213046FDF7E5FD7E
:1038B000072304220D213046FDF7DFFD03213046AA
:1038C000FDF7D3FD032301220A213046FDF7A8FDB1
:1038D000032302220B213046FDF7A2FD03231A46E3
:1038E0000C213046FDF79CFD39463046FDF7D0FCF3
:1038F00029053046FDF7D2FC012240F2074130464F
:10390000FDF75EFD12208DF83C008DF83D408DF8EE
:103910003E408DF83F500FA8FEF7CAF82A4F3846B0
:10392000FDF78CFE25480AA94C30CDE90040274818
:10393000CDE902040820CDE90404C001069040004E
:1039400007908000CDE90808000181E831000D945E
:10395000694638460E94FDF74BFF01221821384680
:10396000FDF730FF38208DF83C0002208DF83D0037
:103970008DF83E408DF83F500FA8FEF799F8144996
:103980003846FDF725FE01213046FDF777FC012181
:103990003046FDF753FC42F210701C941C99491CF0
:1039A0001C918142FADB01213846FDF73DFE30468D
:1039B000FDF79DFD1EB0BDE8F08100000020014034
:1039C000000802400000024010640240A8060020E7
:1039D0002000001030B58DB001210420FEF7CAF898
:1039E00001210802FEF7DEF8072003250A908DF872
:1039F0002C5000248DF82F400AA92248FDF782FFA1
:103A00004FF48030CDE906404FF47060CDE90840B6
:103A100006A8FDF71DFC009401208DF814508DF8C8
:103A20000400194D8DF80500029404946946284657
:103A3000FDF7D0FC032301220A212846FDF71DFDD6
:103A4000032302220B212846FDF717FD03231A4604
:103A50000C212846FDF711FD00212846FDF705FD44
:103A600001212846FDF7EAFB42F210700C940C99F4
:103A7000491C0C918142FADB2846FDF738FD0DB058
:103A800030BD0000000802400020014010B5054C88
:103A90002078002805D00020FFF714FC00202070BB
:103AA000012010BD280000204FF08040FEF743BAEF
:103AB0001CB501210220FEF75DF8012103208DF8DD
:103AC000041000228DF806208DF8050000908DF876
:103AD000071069460148FDF715FF1CBD00040240B0
:103AE0001CB501210420FEF745F84FF4E07000906A
:103AF00000208DF804008DF8060003208DF80500E5
:103B000001208DF8070069460148FDF7FBFE1CBD4A
:103B10000008024010B5094C00212046FEF700FACB
:103B200000212046FEF724FB00212046FEF722FB61
:103B30002046BDE810400021FEF71EBB00000140FA
:103B400070B50C46074D014616462846FEF710FB99
:103B500021462846FEF70EFB31462846BDE8704058
:103B6000FEF70ABB000001402DE9F0432DED028B6A
:103B700093B00EA8FEF722F884491198844D096885
:103B8000B0EB510F00D24000286001210320FDF767
:103B9000F1FF01210846FEF705F84FF4E060022628
:103BA00005908DF8186003208DF819000024DFF8C7
:103BB000E4918DF81A408DF81B4005A94846FDF7A1
:103BC000A1FE4FF46040744F059005A93846FDF7FB
:103BD00099FE4FF480588DF81840CDF814808DF878
:103BE0001B6005A93846FDF78DFE01220C213846E1
:103BF000FDF7D9FE012208214846FDF7D4FE012237
:103C000009214846FDF7CFFE01220A214846FDF76B
:103C1000CAFE01220D213846FDF7C5FE01220E2104
:103C20003846FDF7C0FE01220F213846FDF7BBFEE6
:103C3000ADF82C402020ADF82E0095ED000AF8EEEE
:103C4000400A9FED568AF7EE008AC60080EE880A89
:103C5000DFF84C910BA9484630EE680ABCEEC00A6A
:103C60008DED0C0AADF834608DF83640FEF786FA1B
:103C70006020ADF8000004200127ADF80400ADF885
:103C80000C40ADF81040ADF802700294ADF80E4053
:103C9000ADF8124069464846FEF764F96946484661
:103CA000FEF796F969464846FEF7DCF908214846D2
:103CB000FEF788F908214846FEF7CAF90821484668
:103CC000FEF70EFAF000ADF81C004010ADF81E0033
:103CD000ADF82480C000ADF826004000ADF82060AB
:103CE000ADF82800ADF8224007A94846FEF7FAF8DB
:103CF00070214846FEF734FA7020ADF80000ADF8A8
:103D00000240ADF8044095ED000A69464846B8EE19
:103D1000400AC0EE080A30EEE80ADFED220A30EE73
:103D2000600ABCEEC00A8DED020AADF80C40ADF899
:103D30001040ADF80E40ADF81240FEF7D7F908215B
:103D40004846FEF703FA012211464846FEF701F9FC
:103D500019208DF848008DF849408DF84A408DF8BB
:103D60004B7012A8FDF7A4FE012280214846FEF701
:103D7000F0F801214846FEF7D3F801214846FEF746
:103D8000C5F813B0BDEC028BBDE8F0830000002045
:103D900048000020000002400004024000409C4611
:103DA000000001400000484210B5012188B00846DB
:103DB000FDF7ECFE03A8FDF701FF12480599026824
:103DC0001148B1EB520F00D249004160084642F25F
:103DD0001071B0FBF1F0401EADF800000020411E54
:103DE000ADF802000191ADF808004FF0804469463B
:103DF0002046FEF7C3F901212046FEF787F808B0F8
:103E000010BD0000000000204800002010B5012176
:103E100090B04805FDF7AEFE4FF0006000901E48E0
:103E200001901E4802904020039000204FF48061D2
:103E30000490CDE9050107900890099003210A90AC
:103E4000CDE90B01164C0D900E9069462046FDF70A
:103E5000CFFC1449802008700E20FDF71DFE0122C2
:103E600010212046FDF7AEFC0F4C206858B9032204
:103E70000021012001F0FEFD206020B100231A4640
:103E8000194601F07FFE044801228021001FFEF741
:103E9000BDF910B010BD0000044800403C020020F5
:103EA000586002400EE400E024000020F0B587B026
:103EB00001210220FDF75EFE01218804FDF766FE68
:103EC00002258DF804504FF480608DF805500024D1
:103ED0002B4F00908DF8064001268DF8076069464B
:103EE0003846FDF70FFD8DF80450A8028DF80550F7
:103EF00000908DF806408DF8076069463846FDF75A
:103F000001FD07220A213846FDF74DFD07220B214E
:103F10003846FDF748FD4FF4E1300290ADF810400F
:103F20000C20184DADF80C40ADF81200ADF80E4065
:103F3000ADF8144002A92846FEF790F927208DF825
:103F4000180005208DF819008DF81A408DF81B60B7
:103F500006A8FDF7ADFD0C49502008702720FDF79D
:103F60009BFD012240F225512846FEF75EF9FFF73E
:103F70004DFF01212846FEF73FF907B0F0BD0000D4
:103F8000000402400048004027E400E070B50D4600
:103F90000646002404E0305D00F03AF8641CA4B248
:103FA000AC42F8D370BD000070B505464FF4806098
:103FB0000C46814200D904461248006818B14FF0FF
:103FC000FF3101F089FF224629460F48FCF74FFDDB
:103FD0000E4D00212846FDF727FB2846FDF7C0FBC4
:103FE0000128FAD009485838C465074941664FF09E
:103FF000C0512846FDF7ECFA2846BDE87040012183
:10400000FDF712BB240000203C0200205860024053
:1040100070B50A4D06464FF6FF7480212846FEF71C
:10402000FDF838B1002C08D031462846BDE8704074
:10403000FEF76AB9641EF0D2F6E770BD0048004092
:10404000704700000FB44FF4807110B503AB0E48F9
:10405000029AFEF75FF90022FD2801D9FD2001E058
:1040600000280DDD08490D230B54401C0A230B5476
:10407000401C00280A5403DD81B20348FFF786FF85
:1040800010BC5DF814FB00003C0100200FB44FF49D
:10409000007110B503AB0E48029AFEF73BF90022FF
:1040A000B0F5FF7F02D340F2FD1001E0002807DDEC
:1040B00007490D230B54401C0A230B54401C0A547F
:1040C00081B20348FFF770FF10BC5DF814FB0000DD
:1040D000B806002010B500F053FB00F027F9FFF7F9
:1040E000AFFF00F037F900F03BF8BDE8104001A049
:1040F000FFF7A8BF666F635F6170705F696E697478
:1041000020636F6D706C6574650000000C4910B51C
:1041100008684FF6FF0210400A4A10430860FFF794
:10412000C7FCFFF7DDFCFFF7C1FEFFF71DFDFFF742
:104130003BFEFFF761FBBDE8104003A0FFF782BF25
:104140000CED00E00000FA05666F635F6273705F5C
:10415000696E697420636F6D706C65746500000032
:1041600008489FED070A80ED000A80ED010A80ED06
:10417000040A80ED050A80ED060A80ED070A704703
:10418000000000009809002070B5114CDDE90465BD
:1041900018B190ED000A84ED000A19B191ED000A02
:1041A00084ED010A1AB192ED000A84ED040A1BB1F4
:1041B00093ED000A84ED050A1EB196ED000A84ED28
:1041C000070A002D03D095ED000A84ED080A70BDA2
:1041D0009809002030B54348414C43492DED028BEE
:1041E00085B090ED000A94ED038ADFED3C8A84ED02
:1041F000040A3E48FFF73AF83B4DB0EE680AD5EDA9
:10420000000A00F0A9F8F0EE408AD5ED010AB0EE00
:10421000480A00F0C7F8F0EE400AC4ED008AC4ED89
:10422000010A94ED040A01AB6A46211D204600F004
:1042300073FA9DEC020A01F019F804462C4804AB0D
:104240009DEC020A03AA90ED031A02A9204600F091
:10425000CFFE204602AC2B1F1A1F94EC030A111F3D
:1042600000F0AEFF2348DFED240AA5F1180290ED1F
:10427000000A92ED032AB8EE401AC1EE201AB7EEFA
:10428000001A71EEC11A61EE821AB8EE402AB8EE39
:10429000400AFCEEE11A11EE900AC2EE201A92EDED
:1042A000042A80B271EEC11A61EE821AFCEEE11AA4
:1042B00011EE901AC0EE201AD2ED050A89B231EE45
:1042C000C10A20EE200ABCEEC00A10EE102A92B2FB
:1042D000FFF736FC05B0BDEC028B30BD00000000DE
:1042E0009809002058000020B40000205C0600203F
:1042F0004C0600204800002000409C460848DFEDA6
:10430000091A80ED031AC0ED021A80EC020A064871
:1043100080ED031AC0ED021A80EC020A704700001B
:10432000D808002000000000F808002008489FED91
:10433000070A002180ED010A8160017080ED030A07
:1043400080ED040A80ED050A7047000000000000BF
:104350006400002070470000114870EE600A90ED84
:10436000000AD0ED011A20EE201A90ED020A01EEAB
:10437000A00A80ED020AD0ED030AB4EEE00AF1EEE5
:1043800010FA06DCF1EE600AB4EEE00AF1EE10FA83
:1043900001D2C0ED020A90ED020A30EE010A704728
:1043A000D8080020114870EE600A90ED000AD0EDA8
:1043B000011A20EE201A90ED020A01EEA00A80ED0B
:1043C000020AD0ED030AB4EEE00AF1EE10FA06DCC0
:1043D000F1EE600AB4EEE00AF1EE10FA01D2C0ED9F
:1043E000020A90ED020A30EE010A7047F808002038
:1043F00010B5FDF725FBFDF727FAFDF7F1FAFDF7FC
:1044000025FCFDF74FFABDE8104001A0FFF71ABEEA
:10441000666F635F7461736B5F696E697420636F4D
:104420006D706C6574650000082805D2044901EBC5
:10443000800090ED000A70479FED020A704700006F
:10444000CC660008000000000548F3EE0E0A9FED60
:10445000051A90ED040A60EE200A80EE810A70478A
:1044600064000020DB0F494070B50E4D0024402150
:104470002846FDF7A8FA012800D10124802128460A
:10448000FDF7A1FA012801D144F002044FF4807134
:104490002846FDF798FA012801D144F0040420468B
:1044A00070BD0000000802402DE9F04106462DEDE8
:1044B000048BFFF7D9FF04469FED8D2A8D4DA86828
:1044C000311A00EE101AB8EE400ADFED8B0A287898
:1044D0008A4A60EE200AF2EE0E1A844262D010EE92
:1044E000903A874EB3425DDDAE464FF0FF3506464B
:1044F0002B4629460020A446175CA74200D143B2B0
:10450000B74200D141B2401C0628F4DB581A40B231
:10451000012845D0411D43D0411C02D0052800D0C0
:10452000002576468EF801506046FFF77DFFB0EE1D
:10453000408AB0EE001A88EE210A86ED050A96F947
:10454000010000EE100AB8EEC00A20EE010A9FED4D
:104550006D1AB1EE082A20EE011A81EE020A80EEF1
:10456000211A96ED010A31EE000A86ED010A96ED58
:10457000061A30EE411A81EE200A86ED030A9FEDFD
:10458000621AD6ED040A00F001F986ED040AFFF77D
:104590008BFAB06096ED010A86ED060A34709DE054
:1045A0000125BEE7B1F57A7F0FD92046FFF73CFF22
:1045B000B0EE408A9FED551AD5ED040AB0EE420ADE
:1045C00000F0E4F885ED040A88E0FFF72DFFB0EE77
:1045D000421A95F90100F0EE408AB0EE418A0621B8
:1045E0009FED4B9A012825D0401C3FD02046FFF775
:1045F0001BFF00BFB5EEC08AF1EE10FA74D0A868B8
:1046000080B395ED042A38EE680A424922EE212A49
:10461000C0EE021AB0EEC00A10EE100A8842F0EEA8
:10462000E11A40DDB4EEE88AF1EE10FA39DD78EEF9
:10463000898A38E02B780020165C00F101009E4248
:1046400011D190FBF1F301FB1300105CFFF7ECFEBE
:10465000B0EE408AB4EEE88AF1EE10FACAD238EE33
:10466000098AC7E740E00628E6DBC3E72B7800208D
:10467000165C9E4211D1401D90FBF1F301FB13002B
:10468000105CFFF7D1FEB0EE408AB4EEE88AF1EE9E
:1046900010FAAFDD38EE498AACE7401C0628E7DBAC
:1046A000A8E738EE098A80EEA10AF0EE400AB0EEE3
:1046B000410AFEF713F8F0EE400AB7EE000AFEF7E3
:1046C00031F878EE680A40EE208AF0EE490AB0EE42
:1046D000680AFEF74BF800BFB0EE408AB0EE480A19
:1046E000BDEC048BBDE8F0812046FFF79DFEF3E7AB
:1046F000000000006400002017B7D138C46600082D
:10470000ACC52737DB0F49400AD7233C0AD7A33C67
:10471000DB0FC940DB0F49403FB515462DED020BBD
:104720001C4601222DED028B83B090ED008AD1ED65
:10473000008A02A99FED110A05A8FBF7C7FE01A98F
:1047400068469DED020AFBF7EDFF9DED010ADDEDE8
:10475000000A28EE000A08EEE00A85ED000A9DED49
:10476000000ADDED010A28EE000A08EEA00A84ED39
:10477000000A03B0BDEC028B06B030BDE02E6542EE
:1047800003210148FDF726B900040240F7EE001AA4
:1047900021EE000A31EEC11A01EE200A7047FFF740
:1047A000B5FCFFF797FCFFF723FE01F065F8FEE785
:1047B0002DE9F0411E4C0F460546E6682068001DB5
:1047C00000F094FD38B9206890F82C100120884042
:1047D000216981432161681C15D1A7B1154922685F
:1047E0004868906023688268DA6022688368121DD6
:1047F0005A602268121D8260206841610868401C6E
:104800000860BDE8F08120683544B5424560216804
:1048100005D2E06BBDE8F041091D00F053BEA06B6E
:10482000091D00F04FFEA06A8542EAD2A562E8E7C2
:10483000E4000020B07200202DE9F041054600F0B0
:1048400059FE364CA068401CA0602068344F10B15F
:10485000606940B32DE02560A068012829D10026B9
:1048600006EB860007EB800000F01EFE761C052E8E
:10487000F6D32B48643000F017FE2948783000F05A
:1048800013FE27488C3000F00FFE2548A03000F0C2
:104890000BFE2348B43000F007FE21486430A063CB
:1048A0001430E06305E02068E96AC06A884200D8F5
:1048B0002560606A401C60626864E96A01202269C0
:1048C00088401043206101EB810007EB80004068C5
:1048D000A8608168E9608268291D51608160E86A8A
:1048E00000EB800007EB8001696157F82010491C3C
:1048F00047F8201000F01EFE606900280CD02068E8
:10490000E96AC06A884207D206494FF080500860C1
:10491000BFF34F8FBFF36F8FBDE8F081E40000203D
:10492000FC71002004ED00E010B500F0E3FD0E4C3A
:104930002068A0B90D4800F0B7FD0C48143000F015
:10494000B3FD0A48E0601430206100220C210A20E7
:1049500001F090F8206010B105A100F06DFEBDE8F7
:10496000104000F0E7BD000024010020C4720020C8
:10497000546D72510000000030B4026C0B46002AE6
:104980000BD0C1681144C1608468A14201D30168A1
:10499000C16030BC1846FCF76AB830BC70472DE9DE
:1049A000F041856B174604460026026C82B1C7B100
:1049B000E068FCF75CF8E168206C091AE1602268A5
:1049C000914202D2A168081AE060022F16D017E0C7
:1049D0002068A8B9A06801F099FC06460020A060F4
:1049E0000EE06068FCF743F8216C60680844606082
:1049F000A168884204D32068606001E005B16D1EA3
:104A00006D1CA5633046BDE8F08110B50446006B0F
:104A100000F0A4FD2046BDE8104000F09FBD00005E
:104A20000E484FF4D041420706D0C01D0B4920F07C
:104A30000700411AC1F5D041094A00230144C2E9E7
:104A400000030839143A21F0070111604B600B6034
:104A50000B1AC0E90013936053607047BC09002033
:104A6000D0000020144E154CA6F1A0074FF080583E
:104A7000DFF84C9012E000BF00F03CFDF068C56824
:104A8000281D00F033FCA068401EA0606068401E36
:104A9000606000F04FFD2846FFF7B7FF6068002810
:104AA000EAD138680128F9D9C9F80080BFF34F8FDF
:104AB000BFF36F8FF2E700009C720020E40000203B
:104AC00004ED00E02DE9F0470D46DDE909841746C5
:104AD000824691009946089EA522206BFBF7D9FFDC
:104AE0006FF00301206B01EB8701084420F00707FA
:104AF000780707D0502080F31188BFF34F8FBFF3A2
:104B00006F8FFEE765B100202218295C82F834100F
:104B1000295C11B1401C1028F6D3002084F8430012
:104B2000052E07D3502080F31188BFF34F8FBFF3BA
:104B30006F8FFEE7E662201DE66400F0C0FC04F122
:104B4000180000F0BCFC2461C6F105006462A0619D
:104B50004A465146384600F035FA2060B8F1000F59
:104B600001D0C8F80040BDE8F087000030B5114919
:104B700000E011460A688242FBD34B685C1884420D
:104B800003D1406818444860084643681C189442A2
:104B900009D1084C143C2468A24209D052681A4436
:104BA00042600A6812680260814200D0086030BD2D
:104BB0000460F9E7D000002070B5002441600B4D7F
:104BC0000061914206D8D11A8269914206D2011D34
:104BD000286907E09A4203D2994201D3012403E0F5
:104BE000011DE86800F06EFC204670BD2401002025
:104BF00010B5044600F07EFCA06B28B15FF0000405
:104C000000F098FC204610BD0124F9E770B5064677
:104C10000D480D46C068C068C468201D00F066FBE2
:104C200094F82800410705D52A463146204600F071
:104C3000B5F803E000F0FE0084F828002046216A61
:104C4000BDE8704008470000240100207FB5374EC2
:104C500063E00098002860DB029C606910B1201DB1
:104C600000F044FB03A800F0BBF8054600980A28B2
:104C700053D2DFE800F0520505282E460505282E00
:104C800094F828002A4640F0010084F82800019991
:104C9000A069019B01442046FFF78EFF40B394F8C2
:104CA0002800410707D50198A1692A4601442046FA
:104CB00000F074F803E000F0FE0084F82800216A98
:104CC0002046884729E014F8280F00F0FE002070E5
:104CD00023E094F8280040F0010084F828000198AF
:104CE000A06130B141192B461A462046FFF764FFF8
:104CF00013E0502080F31188BFF34F8FBFF36F8F05
:104D0000FEE794F82800810703D4204600F026FC33
:104D100003E000F0FE0084F82800002269463068B5
:104D200001F03EF8002894D17FBD0000240100204E
:104D3000F8B50D46064600F0D7FD684600F050F87D
:104D40000446009810B101F003FCF8BD1148ADB164
:104D500001690968D9B10025311B2A46006800F0B5
:104D600093FC01F0F5FB0028EFD10B494FF0805088
:104D70000860BFF34F8FBFF36F8FF8BDA642EBD82B
:104D800001F0E6FB21463046FFF740FFF8BD012564
:104D9000E2E700002401002004ED00E070B51646B3
:104DA0000C46054604E0A869296A04442846884759
:104DB000A8692346011932462846FFF7FDFE002860
:104DC000F1D170BD0548816B096821B1816BC9685B
:104DD0000968816270474FF0FF31FAE7E400002074
:104DE0002DE9F041064601F0EFF90E4C0546A068AA
:104DF000854214D24FF0FF3704E0C068394600689E
:104E0000FFF704FFE06801680029F6D12169C4E9D1
:104E10000310012030602846A560BDE8F081002025
:104E2000F8E700002401002008484068401C4FF0CB
:104E3000500080F3118804D0BFF34F8FBFF36F8F02
:104E4000FEE7BFF34F8FBFF36F8FFEE7D800002060
:104E5000074CE068016841B1C0680021D0F800004B
:104E6000FFF766FFFFF7F2FEF3E701210020F7E707
:104E7000240100202DE9F041044600F03BFB94F9A9
:104E8000455004F1240609E0606A48B1304601F05B
:104E9000F1FA08B100F048FC6D1E6DB2002DF3DC94
:104EA0004FF0FF3684F8456000F044FB00F022FB31
:104EB00094F9445004F1100709E0206948B13846DC
:104EC00001F0D8FA08B100F02FFC6D1E6DB2002D74
:104ED000F3DC84F84460BDE8F04100F02BBB000037
:104EE00070B50446002600F0FFFC2F4D286808B975
:104EF000FFF796FD94B304F00700C0F11000C14322
:104F00008C4202D82118002902DC01F021FB3DE08F
:104F100068688142F9D8244814300246146801E0D8
:104F20002046144662688A4202D22268002AF7D1DB
:104F30002A689442E9D006682268026060680836F0
:104F4000421A102A0FD96018430708D0502080F366
:104F50001188BFF34F8FBFF36F8FFEE713E04260FE
:104F60006160FFF703FE61686868401A6860AA68BC
:104F7000904200D2A86041F00040606000202060B4
:104F8000E868401CE86001F0E3FA0EB900F0C8F9E7
:104F9000700707D0502080F31188BFF34F8FBFF305
:104FA0006F8FFEE7304670BDBC00002004490868E2
:104FB00018B10868026D521C02650868704700004D
:104FC000E400002010B5031F4FF080741C601B1F0D
:104FD00021F001011960191F044B0B6014390A609C
:104FE000091F6FF0020244380A6010BD294E000804
:104FF000FFB50D462DED040B1F46144606462DED5C
:10500000048B8BB00FA9F0EE418A012306AA084653
:10501000FBF7A0F910A9012307AA0846FBF79AF9A4
:10502000012308AA07A906A8FBF72AF99DED080A9B
:105030009FED5D8AB5EEC00AF1EE10FA02DBF1EEEB
:10504000C00A01E0F0EE480A9FED580A28EE801AE7
:10505000F4EEC10AF1EE10FA14DD10EE900A544994
:1050600088420FDD81EE209A0FA901220846B0EE9A
:10507000490AFBF72BFA10A90122B0EE490A0846AB
:10508000FBF724FADFED4B0A012201A980EEA80A02
:10509000F6EE000A10A860EE208AFBF717FA9FEDE3
:1050A000460A01228DED050A03A99DED0F0A05A808
:1050B000FBF70CFA012304AA10A903A8FBF7E0F8F8
:1050C000012202A9B0EE680A04A8FBF7FFF9012249
:1050D00003A99DED0F0A05A8FBF7F8F9012304AA1F
:1050E00010A903A8FBF73EFA01226946B0EE680A50
:1050F00004A8FBF7EBF9694601220846FBF793F990
:10510000072E39D2DFE806F038040D161D262F00D1
:105110009DED000AB1EE400A85ED000A9DED010A01
:1051200005E09DED000A85ED000A9DED020A84ED83
:10513000000A25E09DED010A85ED000A9DED020AB9
:1051400017E09DED010AB1EE400A85ED000A9DEDE4
:10515000000AECE79DED020AB1EE400A85ED000A77
:105160009DED000A05E09DED020A85ED000A9DED2A
:10517000010AB1EE400ADAE785ED008A84ED008A83
:10518000012309AA21462846FBF77AF89DED090A72
:10519000DFED0A0A30EEC00A87ED000A0BB0BDEC65
:1051A000048B08B0F0BD0000000000003ACD133FB2
:1051B000BD378635629E3539D7B3DD3F17B7D13855
:1051C000B6EE002AF6EE002A21EE022A61EE221A3D
:1051D00010B532EE000A32EE202A072830EE201AEF
:1051E00027D2DFE800F026040910151A1F00F0EEA0
:1051F000410AB0EE420A03E0F0EE420AB0EE410A84
:10520000B0EE611A1BE0F0EE610AB0EE410A0DE06B
:10521000F0EE610AB0EE420A11E0F0EE420AB0EEA2
:10522000610A0CE0F0EE410AB0EE610AB0EE421AFB
:1052300005E0B0EE610AF0EE610AB0EE401ADFED73
:105240000A1A60EEA10A20EE210A60EEA20A20EE00
:10525000220AC1ED000A82ED000A21EE210A20EEA9
:10526000220A83ED000A10BD00401C46DFED1C1A27
:10527000B0EE601A9FED1B2A10EE211AF0EE601AB4
:1052800010EE900A50EE021A1749884201DD012201
:1052900000E0002211EE100A884201DD012000E04A
:1052A000002011EE903A8B4201DD012100E0002147
:1052B00002EB400000EB810007280FD2DFE800F08E
:1052C0000E040C0E08060A000220704703207047E7
:1052D0000420704705207047062070470120704762
:1052E000D7B3DD3FD7B3DDBFBD378635D0E9013257
:1052F00001699A60D0E901235A604A68824201D16B
:1053000082684A60002202610868401E08600868DE
:10531000704700000148806870470000E4000020EA
:1053200001A0FEF78FFEFEE74170706C6963617447
:10533000696F6E206D616C6C6F63206661696C656E
:105340006400000001A0FEF77DFEFEE70D0A2121AA
:105350002120537461636B204F766572666C6F77A2
:1053600020696E202573202121210D0A00000000F4
:105370004FF47A74204600F0A9F9FBE71FB500F05E
:1053800023FF9FED100A02900F488DED030AB6EE41
:10539000000A80ED030AB1EE081ADFED0C0A9FED5A
:1053A0000C0AFEF7ABFF002103A8CDE900010B4674
:1053B0000A460846FEF7E8FE052102A800F0ACFE0A
:1053C000FAE700000000F042980900200AD7233DC8
:1053D0009A99193F2DED028B82B000F0F5FE204D19
:1053E000204FDFF88480214C214E0090FEF74EFBC9
:1053F00018B1FEF7FBF985EC040A95ED030AD7ED29
:10540000000A20EE208AD8ED000A18EE100A60EE9D
:10541000208AFBF761FB41EC100B16A053EC102B1C
:10542000FEF734FEFEF740FBFFF73EF884ED010A7D
:10543000F0EE681A96EC020AB0EE481AFEF762F82F
:1054400084ED020AFFF700F884ED000AFEF7C8F9C0
:1054500084ED030A0121684600F05EFEC6E7000005
:105460004C060020A8000020AC00002054000020C2
:105470005C060020252E346600000000094C4FF425
:10548000FA756E0003212046FCF7A7FA284600F0C3
:105490001DF903212046FCF79DFA304600F016F96D
:1054A000F0E700000004024000F108014FF0FF3275
:1054B000C0E90112C1600161002101607047002153
:1054C0000161704730B50B685A1C02D000F1080228
:1054D00002E0026904E02246546825689D42FAD938
:1054E00053684B6099608A60516008610168491C8B
:1054F000016030BD502080F31188BFF34F8FBFF3A0
:105500006F8F0A494868401C486001280CD1084840
:10551000006810F0FF0F07D0502080F31188BFF310
:105520004F8FBFF36F8FFEE770470000D800002059
:1055300004ED00E00849486828B1401E486001D1E8
:1055400080F311887047502080F31188BFF34F8F8C
:10555000BFF36F8FFEE70000D800002070B5002871
:105560002AD0A0F108046068002807DB502080F3EF
:105570001188BFF34F8FBFF36F8FFEE7216839B1FA
:10558000502080F31188BFF34F8FBFF36F8FFEE77A
:1055900020F00040606000F0A7F9084D606869687D
:1055A000084468602046FFF7E1FA2869401C28613A
:1055B000BDE8704000F0CCBF70BD0000BC00002012
:1055C0004FF0E02000210161816105494FF47A72BA
:1055D0000968B1FBF2F1491E416107210161704781
:1055E0000000002010B5FAF735FE114910280ED33F
:1055F00000F1E02090F8F0030A78904207D25020A2
:1056000080F31188BFF34F8FBFF36F8FFEE7094818
:105610000068896800F4E060884207D9502080F370
:105620001188BFF34F8FBFF36F8FFEE710BD0000EF
:10563000D80000200CED00E070B5002260B1002918
:105640001ED0104C002300BF04EBC3056E688642D9
:105650000AD104EBC3020FE0502080F31188BFF39E
:105660004F8FBFF36F8FFEE71AB954F8336006B956
:105670002A465B1C082BE7D3002A01D0C2E90010A0
:1056800070BD0000BC71002070B515460E46044682
:10569000FFF730FF94F944100020491C01D184F831
:1056A000440094F94510491C01D184F84500FFF7E6
:1056B00041FFA06B28B92A46314604F1240000F0CE
:1056C00051F82046BDE87040FFF7D4BB10B502008A
:1056D00014D00F48406B38B1502080F31188BFF3CD
:1056E0004F8FBFF36F8FFEE700F0FEF800211046EA
:1056F000FFF75EF800F02CFF002807D105494FF0B6
:1057000080500860BFF34F8FBFF36F8F10BD000054
:10571000E400002004ED00E002490A6A0260C96862
:1057200041607047E400002001490120C8617047D2
:10573000E400002010B50C4650B109490968183141
:10574000FFF7C0FE2046BDE810400121FFF730B84A
:10575000502080F31188BFF34F8FBFF36F8FFEE7A8
:10576000E4000020F0B40C46D0B1114943680D6844
:10577000EB619D680E6835620D689E68183575602E
:105780000D6818359D60096888620168491C0160D0
:105790000AB14FF0FF342046F0BC1146FFF708B8BD
:1057A000502080F31188BFF34F8FBFF36F8FFEE758
:1057B000E400002070B5040058D0226DA2B1E06C66
:1057C000884200D30146E06A88424FD0012A4DD179
:1057D000274D2A6894420FD1502080F31188BFF3DF
:1057E0004F8FBFF36F8FFEE7502080F31188BFF318
:1057F0004F8FBFF36F8FFEE7E162A269002A02DBE1
:10580000C1F10501A1611B4E00EB8000616906EB4F
:10581000800081422AD1201DFFF768FD012130B9A7
:1058200094F82C002A6901FA00F082432A61E06AA8
:105830002A6981401143296100EB800006EB80005A
:105840004068A0608168E1608268211D51608160CC
:10585000E06A00EB800006EB80006061E06A00EB2C
:10586000800056F82010491C46F8201070BD00003A
:10587000E4000020FC7100207CB517480025CDE92C
:1058800000502B46802215A1164800F017FC124C40
:105890002C3C012803D100F0F1FE012802D0401C6D
:1058A00011D00EE0502080F31188BFF34F8FBFF36B
:1058B0006F8F4FF0FF30A06201206061E56000F063
:1058C0005FF8206B7CBD502080F31188BFF34F8FB1
:1058D000BFF36F8FFEE700001001002049444C45E4
:1058E00000000000654A00080248416B491C416302
:1058F00070470000E400002010B51F4C606B10B131
:105900000120E06110BD0020E06120684FF0A5316A
:10591000006B02688A4208D142688A4205D18268D7
:105920008A4202D1C068884204D02168206834319C
:10593000FFF708FD20691149B0FA80F0C0F11F009F
:1059400000EB800051F820206AB101EB800000F1EB
:105950000802416849684160914201D1496841604B
:10596000C868206010BD502080F31188BFF34F8FAE
:10597000BFF36F8FFEE70000E4000020FC71002001
:105980001CB537480168374A914207D1502080F34F
:105990001188BFF34F8FBFF36F8FFEE70068314967
:1059A000491E884207D1502080F31188BFF34F8FE2
:1059B000BFF36F8FFEE72C4908780190FF20087035
:1059C00008788DF800009DF800009DF8002000F098
:1059D000F000904207D0502080F31188BFF34F8F22
:1059E000BFF36F8FFEE79DF80000204C00F05000E1
:1059F00020700720A06005E09DF8002052008DF87F
:105A00000020401E9DF800201206F5D4A060032857
:105A100007D0502080F31188BFF34F8FBFF36F8FF3
:105A2000FEE74FF44070A060019808700C482030E9
:105A3000016841F470010160016841F0704101604A
:105A4000FFF7BEFD00206060FAF7CCFB0848016854
:105A500041F040410160FAF7B1FB00201CBD00009D
:105A600000ED00E071C20F4100E400E0D80000202A
:105A700034EF00E02DE9F04117460E46050020D036
:105A80004FF0FF30B0FBF5F0B0421AD305FB06F043
:105A900010F1510F15D85030FFF722FA04000CD046
:105AA00004F150005EB12060C4E90F562046012188
:105AB00000F010F8204684F84C70BDE8F0812460B6
:105AC000F2E7502080F31188BFF34F8FBFF36F8F41
:105AD000FEE700002DE9F0410F4604004FF00106FB
